{
  "_format": "hh-sol-artifact-1",
  "contractName": "Challenge",
  "sourceName": "contracts/Challenge.sol",
  "abi": [
    {
      "inputs": [
        {
          "internalType": "address",
          "name": "_ethPriceFeedAddress",
          "type": "address"
        }
      ],
      "stateMutability": "nonpayable",
      "type": "constructor"
    },
    {
      "anonymous": false,
      "inputs": [
        {
          "indexed": true,
          "internalType": "address",
          "name": "_withdrawnBy",
          "type": "address"
        },
        {
          "indexed": false,
          "internalType": "uint256",
          "name": "_amount",
          "type": "uint256"
        }
      ],
      "name": "AmountWithdrawn",
      "type": "event"
    },
    {
      "anonymous": false,
      "inputs": [
        {
          "indexed": true,
          "internalType": "address",
          "name": "_challengerAddress",
          "type": "address"
        },
        {
          "indexed": false,
          "internalType": "uint256",
          "name": "_challengerPrediction",
          "type": "uint256"
        }
      ],
      "name": "ChallengeAccepted",
      "type": "event"
    },
    {
      "anonymous": false,
      "inputs": [
        {
          "indexed": true,
          "internalType": "address",
          "name": "_cancelledBy",
          "type": "address"
        },
        {
          "indexed": false,
          "internalType": "uint256",
          "name": "_cancelledAt",
          "type": "uint256"
        }
      ],
      "name": "ChallengeCancelled",
      "type": "event"
    },
    {
      "anonymous": false,
      "inputs": [
        {
          "indexed": true,
          "internalType": "address",
          "name": "_settledBy",
          "type": "address"
        },
        {
          "indexed": true,
          "internalType": "address",
          "name": "_winner",
          "type": "address"
        },
        {
          "indexed": false,
          "internalType": "uint256",
          "name": "_ethUsdPrice",
          "type": "uint256"
        },
        {
          "indexed": false,
          "internalType": "uint256",
          "name": "_settlementFee",
          "type": "uint256"
        },
        {
          "indexed": false,
          "internalType": "uint256",
          "name": "_settledAt",
          "type": "uint256"
        }
      ],
      "name": "ChallengeSettled",
      "type": "event"
    },
    {
      "anonymous": false,
      "inputs": [
        {
          "indexed": true,
          "internalType": "address",
          "name": "previousOwner",
          "type": "address"
        },
        {
          "indexed": true,
          "internalType": "address",
          "name": "newOwner",
          "type": "address"
        }
      ],
      "name": "OwnershipTransferred",
      "type": "event"
    },
    {
      "inputs": [],
      "name": "SETTLEMENT_FEE_MAX",
      "outputs": [
        {
          "internalType": "uint64",
          "name": "",
          "type": "uint64"
        }
      ],
      "stateMutability": "view",
      "type": "function"
    },
    {
      "inputs": [],
      "name": "SETTLEMENT_FEE_PERCENT",
      "outputs": [
        {
          "internalType": "uint8",
          "name": "",
          "type": "uint8"
        }
      ],
      "stateMutability": "view",
      "type": "function"
    },
    {
      "inputs": [
        {
          "internalType": "uint256",
          "name": "_challengerPrediction",
          "type": "uint256"
        }
      ],
      "name": "acceptChallenge",
      "outputs": [],
      "stateMutability": "payable",
      "type": "function"
    },
    {
      "inputs": [],
      "name": "active",
      "outputs": [
        {
          "internalType": "bool",
          "name": "",
          "type": "bool"
        }
      ],
      "stateMutability": "view",
      "type": "function"
    },
    {
      "inputs": [],
      "name": "cancelChallenge",
      "outputs": [],
      "stateMutability": "nonpayable",
      "type": "function"
    },
    {
      "inputs": [],
      "name": "challenger",
      "outputs": [
        {
          "internalType": "address",
          "name": "",
          "type": "address"
        }
      ],
      "stateMutability": "view",
      "type": "function"
    },
    {
      "inputs": [],
      "name": "challengerPrediction",
      "outputs": [
        {
          "internalType": "uint256",
          "name": "",
          "type": "uint256"
        }
      ],
      "stateMutability": "view",
      "type": "function"
    },
    {
      "inputs": [],
      "name": "challengerWithdrawn",
      "outputs": [
        {
          "internalType": "bool",
          "name": "",
          "type": "bool"
        }
      ],
      "stateMutability": "view",
      "type": "function"
    },
    {
      "inputs": [],
      "name": "creator",
      "outputs": [
        {
          "internalType": "address",
          "name": "",
          "type": "address"
        }
      ],
      "stateMutability": "view",
      "type": "function"
    },
    {
      "inputs": [],
      "name": "creatorPrediction",
      "outputs": [
        {
          "internalType": "uint256",
          "name": "",
          "type": "uint256"
        }
      ],
      "stateMutability": "view",
      "type": "function"
    },
    {
      "inputs": [],
      "name": "creatorWithdrawn",
      "outputs": [
        {
          "internalType": "bool",
          "name": "",
          "type": "bool"
        }
      ],
      "stateMutability": "view",
      "type": "function"
    },
    {
      "inputs": [],
      "name": "entryFee",
      "outputs": [
        {
          "internalType": "uint256",
          "name": "",
          "type": "uint256"
        }
      ],
      "stateMutability": "view",
      "type": "function"
    },
    {
      "inputs": [],
      "name": "ethPriceFeed",
      "outputs": [
        {
          "internalType": "contract AggregatorV3Interface",
          "name": "",
          "type": "address"
        }
      ],
      "stateMutability": "view",
      "type": "function"
    },
    {
      "inputs": [],
      "name": "getChallengeDetails",
      "outputs": [
        {
          "internalType": "address",
          "name": "_owner",
          "type": "address"
        },
        {
          "internalType": "uint256",
          "name": "_startBlock",
          "type": "uint256"
        },
        {
          "internalType": "uint256",
          "name": "_startTime",
          "type": "uint256"
        },
        {
          "internalType": "uint256",
          "name": "_entryFee",
          "type": "uint256"
        },
        {
          "internalType": "uint256",
          "name": "_lockTime",
          "type": "uint256"
        },
        {
          "internalType": "uint256",
          "name": "_settlementStartTime",
          "type": "uint256"
        },
        {
          "internalType": "uint256",
          "name": "_settlementEndTime",
          "type": "uint256"
        },
        {
          "internalType": "address",
          "name": "_creator",
          "type": "address"
        },
        {
          "internalType": "uint256",
          "name": "_creatorPrediction",
          "type": "uint256"
        },
        {
          "internalType": "address",
          "name": "_challenger",
          "type": "address"
        },
        {
          "internalType": "uint256",
          "name": "_challengerPrediction",
          "type": "uint256"
        },
        {
          "internalType": "bool",
          "name": "_settled",
          "type": "bool"
        },
        {
          "internalType": "address",
          "name": "_settledBy",
          "type": "address"
        },
        {
          "internalType": "bool",
          "name": "_active",
          "type": "bool"
        },
        {
          "internalType": "address",
          "name": "_winner",
          "type": "address"
        },
        {
          "internalType": "bool",
          "name": "_creatorWithdrawn",
          "type": "bool"
        },
        {
          "internalType": "bool",
          "name": "_challengerWithdrawn",
          "type": "bool"
        },
        {
          "internalType": "uint8",
          "name": "_SETTLEMENT_FEE_PERCENT",
          "type": "uint8"
        },
        {
          "internalType": "uint64",
          "name": "_SETTLEMENT_FEE_MAX",
          "type": "uint64"
        },
        {
          "internalType": "uint256",
          "name": "_currentTimestamp",
          "type": "uint256"
        },
        {
          "internalType": "string",
          "name": "_challengeStatus",
          "type": "string"
        }
      ],
      "stateMutability": "view",
      "type": "function"
    },
    {
      "inputs": [],
      "name": "getChallengeStatus",
      "outputs": [
        {
          "internalType": "string",
          "name": "_status",
          "type": "string"
        }
      ],
      "stateMutability": "view",
      "type": "function"
    },
    {
      "inputs": [
        {
          "internalType": "uint256",
          "name": "_lockTime",
          "type": "uint256"
        },
        {
          "internalType": "uint256",
          "name": "_settlementStartTime",
          "type": "uint256"
        },
        {
          "internalType": "uint256",
          "name": "_settlementEndTime",
          "type": "uint256"
        },
        {
          "internalType": "address",
          "name": "_creator",
          "type": "address"
        },
        {
          "internalType": "uint256",
          "name": "_creatorPrediction",
          "type": "uint256"
        }
      ],
      "name": "initialize",
      "outputs": [],
      "stateMutability": "payable",
      "type": "function"
    },
    {
      "inputs": [],
      "name": "lockTime",
      "outputs": [
        {
          "internalType": "uint256",
          "name": "",
          "type": "uint256"
        }
      ],
      "stateMutability": "view",
      "type": "function"
    },
    {
      "inputs": [],
      "name": "owner",
      "outputs": [
        {
          "internalType": "address",
          "name": "",
          "type": "address"
        }
      ],
      "stateMutability": "view",
      "type": "function"
    },
    {
      "inputs": [],
      "name": "renounceOwnership",
      "outputs": [],
      "stateMutability": "nonpayable",
      "type": "function"
    },
    {
      "inputs": [],
      "name": "settleChallenge",
      "outputs": [],
      "stateMutability": "nonpayable",
      "type": "function"
    },
    {
      "inputs": [],
      "name": "settled",
      "outputs": [
        {
          "internalType": "bool",
          "name": "",
          "type": "bool"
        }
      ],
      "stateMutability": "view",
      "type": "function"
    },
    {
      "inputs": [],
      "name": "settledBy",
      "outputs": [
        {
          "internalType": "address",
          "name": "",
          "type": "address"
        }
      ],
      "stateMutability": "view",
      "type": "function"
    },
    {
      "inputs": [],
      "name": "settlementEndTime",
      "outputs": [
        {
          "internalType": "uint256",
          "name": "",
          "type": "uint256"
        }
      ],
      "stateMutability": "view",
      "type": "function"
    },
    {
      "inputs": [],
      "name": "settlementStartTime",
      "outputs": [
        {
          "internalType": "uint256",
          "name": "",
          "type": "uint256"
        }
      ],
      "stateMutability": "view",
      "type": "function"
    },
    {
      "inputs": [],
      "name": "startBlock",
      "outputs": [
        {
          "internalType": "uint256",
          "name": "",
          "type": "uint256"
        }
      ],
      "stateMutability": "view",
      "type": "function"
    },
    {
      "inputs": [],
      "name": "startTime",
      "outputs": [
        {
          "internalType": "uint256",
          "name": "",
          "type": "uint256"
        }
      ],
      "stateMutability": "view",
      "type": "function"
    },
    {
      "inputs": [
        {
          "internalType": "address",
          "name": "newOwner",
          "type": "address"
        }
      ],
      "name": "transferOwnership",
      "outputs": [],
      "stateMutability": "nonpayable",
      "type": "function"
    },
    {
      "inputs": [],
      "name": "winner",
      "outputs": [
        {
          "internalType": "address",
          "name": "",
          "type": "address"
        }
      ],
      "stateMutability": "view",
      "type": "function"
    },
    {
      "inputs": [],
      "name": "withdraw",
      "outputs": [],
      "stateMutability": "nonpayable",
      "type": "function"
    }
  ],
  "bytecode": "0x60a0346100b057601f61166a38819003918201601f19168301916001600160401b038311848410176100b5578084926020946040528339810103126100b057516001600160a01b0390818116908190036100b0576000543360018060a01b0319821617600055604051923391167f8be0079c531659141344cd1fd0a4f28419497f9722a3daafe3b4186f6b6457e0600080a360805261159e90816100cc823960805181818161048a01526105ec0152f35b600080fd5b634e487b7160e01b600052604160045260246000fdfe608060408181526004908136101561001657600080fd5b600092833560e01c90816302d05d3f146112095750806302fb0c5e146111e2578063072ea61c146111c357806307f3c255146110d35780630d668087146110b557806311a471ff146110965780631b0fc10614610ea05780631f80823614610e6f5780632efcfda314610e505780633ccfd60b14610a4957806347afcdfd14610a1c57806347e4835d146109f557806348cd4cb1146109d65780634a934534146109ba578063534db0e21461099157806369dd20c814610972578063715018a614610918578063747843f61461056657806378dc25cc1461054357806378e97925146105245780638da5cb5b146104fc5780638f775839146104d85780639d25d7f5146104b9578063af7665ce14610475578063c22659c11461044e578063c839113a1461038f578063dc1d277c1461025c578063dfbf53ae1461022f5763f2fde38b1461016357600080fd5b3461022b57602036600319011261022b576001600160a01b038235818116939192908490036102275761019461126e565b83156101d557505082546001600160a01b0319811683178455167f8be0079c531659141344cd1fd0a4f28419497f9722a3daafe3b4186f6b6457e08380a380f35b906020608492519162461bcd60e51b8352820152602660248201527f4f776e61626c653a206e6577206f776e657220697320746865207a65726f206160448201526564647265737360d01b6064820152fd5b8480fd5b8280fd5b838234610258578160031936011261025857600c5490516001600160a01b039091168152602090f35b5080fd5b50823461038c578060031936011261038c57546001546002546003549454600554600654600754600854600954600a54600b54600c54999c6001600160a01b039b8c169c9b9199929893821697949695909116949392916102bb6112f8565b9b80519e8f9e8f908152602001528d015260608c015260808b015260a08a015260c089015260e088015261010087015261012086015261014085015260ff81161515610160850152600160a01b600190038160081c1661018085015260a81c60ff1615156101a0840152600160a01b6001900381166101c08401528060a01c60ff1615156101e084015260a81c60ff16151561020083015261022082016002905261024082016702c68af0bb1400009052426102608301526102a08061028084015282016103889161122e565b0390f35b80fd5b509060a036600319011261022b576064356001600160a01b038116929083900361044a57600154610407575043600155426002553460035580359055602435600555604435600655600780546001600160a01b031916919091179055608435600855600b805460ff60a81b1916600160a81b17905580f35b906020606492519162461bcd60e51b8352820152601c60248201527f436f6e747261637420616c726561647920696e697469616c697a6564000000006044820152fd5b8380fd5b83823461025857816003193601126102585760209060ff600c5460a81c1690519015158152f35b838234610258578160031936011261025857517f00000000000000000000000000000000000000000000000000000000000000006001600160a01b03168152602090f35b838234610258578160031936011261025857602090600a549051908152f35b83823461025857816003193601126102585760209060ff600b541690519015158152f35b838234610258578160031936011261025857905490516001600160a01b039091168152602090f35b8382346102585781600319360112610258576020906002549051908152f35b838234610258578160031936011261025857602090516702c68af0bb1400008152f35b503461022b578260031936011261022b57600b549061058a60ff8360a81c16611466565b60ff82166108bc576009546001600160a01b03939084169283156108625760055442101580610856575b156107d1576001600160a81b0319163360081b610100600160a81b031617600117600b558151633fabe5a360e21b81529260a08483817f000000000000000000000000000000000000000000000000000000000000000089165afa9384156107c757908591879561074a575b50600854858082111561073b5761063691611545565b600a54868082111561072b5761064b91611545565b905b1015610726575080600754165b166bffffffffffffffffffffffff60a01b600c541617600c5547908160011b918083046002149015171561071357506702c68af0bb14000090606490048181111561070b5750925b8480858015610701575b8280929181923390f1156106f757600c5416928151928352602083015242908201527f99fceb45f3dc401528a4ca15034ef032931f71ea986225bf27986897985dd99c60603392a380f35b81513d86823e3d90fd5b6108fc91506106ac565b9050926106a2565b634e487b7160e01b865260119052602485fd5b61065a565b9061073591611545565b9061064d565b9061074591611545565b610636565b9150935060a03d81116107c0575b601f8101601f1916820167ffffffffffffffff8111838210176107ad5760a09183918652810103126107a9578061078f8692611529565b506107a1608060208301519201611529565b509338610620565b8580fd5b634e487b7160e01b885260418452602488fd5b503d610758565b83513d88823e3d90fd5b50602060a492519162461bcd60e51b8352820152605360248201527f4368616c6c656e67653a20546865206368616c6c656e6765206d75737420626560448201527f20736574746c6564206265747765656e2074686520736574746c656d656e7420606482015272737461727420616e6420656e642074696d657360681b6084820152fd5b506006544211156105b4565b506020608492519162461bcd60e51b8352820152602e60248201527f4368616c6c656e67653a20546865206368616c6c656e676520686173206e6f7460448201526d081899595b881858d8d95c1d195960921b6064820152fd5b5162461bcd60e51b8152602081840152603160248201527f4368616c6c656e67653a20546865206368616c6c656e67652068617320616c726044820152701958591e481899595b881cd95d1d1b1959607a1b6064820152608490fd5b833461038c578060031936011261038c5761093161126e565b80546001600160a01b03198116825581906001600160a01b03167f8be0079c531659141344cd1fd0a4f28419497f9722a3daafe3b4186f6b6457e08280a380f35b8382346102585781600319360112610258576020906005549051908152f35b83823461025857816003193601126102585760095490516001600160a01b039091168152602090f35b8382346102585781600319360112610258576020905160028152f35b8382346102585781600319360112610258576020906001549051908152f35b83823461025857816003193601126102585760209060ff600c5460a01c1690519015158152f35b838234610258578160031936011261025857600b54905160089190911c6001600160a01b03168152602090f35b50903461022b578260031936011261022b57600b5460ff1615610b6357600c546001600160a01b03163303610ad5575047908280838015610acb575b8280929181923390f115610ac057519081527f058b581e2433b8b02263f5b0e5c2889fcb7b3495112884a3147619038fba46d860203392a280f35b51913d9150823e3d90fd5b6108fc9150610a85565b602060a492519162461bcd60e51b8352820152605f60248201527f4368616c6c656e67653a204f6e6c79207468652077696e6e65722063616e207760448201527f69746864726177207468652072656d61696e696e672062616c616e636520617360648201527f20746865206368616c6c656e676520686173206265656e20736574746c6564006084820152fd5b600654421115610dc2576007546001600160a01b03903390821603610c6b5750600c549060ff8260a01c16610c02575060ff60a01b1916600160a01b17600c556003548290819081908190818115610bf9575b3390f115610bef5760035490519081527f058b581e2433b8b02263f5b0e5c2889fcb7b3495112884a3147619038fba46d860203392a280f35b51903d90823e3d90fd5b506108fc610bb6565b608490602084519162461bcd60e51b8352820152603c60248201527f4368616c6c656e67653a205468652063726561746f722068617320616c72656160448201527f64792077697468647261776e20746865697220656e74727920666565000000006064820152fd5b600954163314600014610d4c57600c549060ff8260a81c16610ce3575060ff60a81b1916600160a81b17600c556003548290819081908190818115610bf9573390f115610bef5760035490519081527f058b581e2433b8b02263f5b0e5c2889fcb7b3495112884a3147619038fba46d860203392a280f35b608490602084519162461bcd60e51b8352820152603f60248201527f4368616c6c656e67653a20546865206368616c6c656e6765722068617320616c60448201527f72656164792077697468647261776e20746865697220656e74727920666565006064820152fd5b602060a492519162461bcd60e51b8352820152604560248201527f4368616c6c656e67653a204f6e6c79207468652077696e6e6572206f7220636860448201527f616c6c656e6765722063616e20776974686472617720746865697220656e7472606482015264792066656560d81b6084820152fd5b602060a492519162461bcd60e51b8352820152605c60248201527f4368616c6c656e67653a20546865206368616c6c656e676520686173206e6f7460448201527f206265656e20736574746c6564207965742c20706c656173652077616974207560648201527f6e74696c2074686520736574746c656d656e7420656e642074696d65000000006084820152fd5b8382346102585781600319360112610258576020906006549051908152f35b83823461025857816003193601126102585761038890610e8d6112f8565b905191829160208352602083019061122e565b50602036600319011261022b57813591610ec160ff600b5460a81c16611466565b60095490610ed86001600160a01b038316156114c2565b8054421161101c576003543403610fb3576008548414610f3b575033906bffffffffffffffffffffffff60a01b161760095581600a55519081527f198848172490c9cede6f00b7d3d59d018f0bc4715a37f81b8ce39cc7807369ad60203392a280f35b60a490602084519162461bcd60e51b8352820152604660248201527f4368616c6c656e67653a20546865206368616c6c656e6765722063616e6e6f7460448201527f2070726564696374207468652073616d652076616c75652061732074686520636064820152653932b0ba37b960d11b6084820152fd5b608490602084519162461bcd60e51b8352820152603d60248201527f4368616c6c656e67653a2054686520656e74727920666565206d75737420626560448201527f207061696420746f2061636365707420746865206368616c6c656e67650000006064820152fd5b60a490602084519162461bcd60e51b8352820152604860248201527f4368616c6c656e67653a20546865206368616c6c656e676572206d757374206160448201527f636365707420746865206368616c6c656e6765206265666f726520746865206c6064820152676f636b2074696d6560c01b6084820152fd5b8382346102585781600319360112610258576020906008549051908152f35b50903461022b578260031936011261022b5760209250549051908152f35b50903461022b578260031936011261022b576007546001600160a01b0391908216330361116357506111099060095416156114c2565b60ff60a81b19600b5416600b558180808060035481811561115a575b3390f115610bef57514281527fa5fb4d351dd980e5a412299ec0c40298d0d5289b3d64c10773b3d667d54da19960203392a280f35b506108fc611125565b608490602084519162461bcd60e51b8352820152603460248201527f4368616c6c656e67653a204f6e6c79207468652063726561746f722063616e2060448201527363616e63656c20746865206368616c6c656e676560601b6064820152fd5b8382346102585781600319360112610258576020906003549051908152f35b83823461025857816003193601126102585760209060ff600b5460a81c1690519015158152f35b8490346102585781600319360112610258576007546001600160a01b03168152602090f35b919082519283825260005b84811061125a575050826000602080949584010152601f8019910116010190565b602081830181015184830182015201611239565b6000546001600160a01b0316330361128257565b606460405162461bcd60e51b815260206004820152602060248201527f4f776e61626c653a2063616c6c6572206973206e6f7420746865206f776e65726044820152fd5b6040810190811067ffffffffffffffff8211176112e257604052565b634e487b7160e01b600052604160045260246000fd5b600b5460ff8160a81c161560001461132f5750604051611317816112c6565b6008815267494e41435449564560c01b602082015290565b60ff161561135a57604051611343816112c6565b600781526614d1551513115160ca1b602082015290565b6009546001600160a01b03166113bc57600454421161139c5760405161137f816112c6565b600d81526c4348414c4c454e474541424c4560981b602082015290565b6040516113a8816112c6565b60048152631593d25160e21b602082015290565b60045442116113e9576040516113d1816112c6565b60088152671050d0d15415115160c21b602082015290565b6005544211611414576040516113fe816112c6565b60068152651313d0d2d15160d21b602082015290565b600654421161144357604051611429816112c6565b600a815269534554544c4541424c4560b01b602082015290565b60405161144f816112c6565b60078152661156141254915160ca1b602082015290565b1561146d57565b60405162461bcd60e51b815260206004820152602760248201527f4368616c6c656e67653a20546865206368616c6c656e6765206d7573742062656044820152662061637469766560c81b6064820152608490fd5b156114c957565b60405162461bcd60e51b815260206004820152603260248201527f4368616c6c656e67653a20546865206368616c6c656e67652068617320616c726044820152711958591e481899595b881858d8d95c1d195960721b6064820152608490fd5b519069ffffffffffffffffffff8216820361154057565b600080fd5b9190820391821161155257565b634e487b7160e01b600052601160045260246000fdfea2646970667358221220b3f54e71eb05c45e92030f411332461c332258f2582e23c8b60d96b6711a462f64736f6c63430008120033",
  "linkReferences": {},
  "deployedLinkReferences": {}
}