{
  "_format": "hh-sol-artifact-1",
  "contractName": "ChallengeFactory",
  "sourceName": "contracts/ChallengeFactory.sol",
  "abi": [
    {
      "inputs": [
        {
          "internalType": "uint256",
          "name": "_minEntryFee",
          "type": "uint256"
        },
        {
          "internalType": "uint256",
          "name": "_minChallengeDuration",
          "type": "uint256"
        },
        {
          "internalType": "uint256",
          "name": "_maxChallengeDuration",
          "type": "uint256"
        },
        {
          "internalType": "uint256",
          "name": "_minLockDuration",
          "type": "uint256"
        },
        {
          "internalType": "uint256",
          "name": "_maxLockDuration",
          "type": "uint256"
        },
        {
          "internalType": "uint256",
          "name": "_settlementDuration",
          "type": "uint256"
        },
        {
          "internalType": "address",
          "name": "_ethPriceFeedAddress",
          "type": "address"
        }
      ],
      "stateMutability": "nonpayable",
      "type": "constructor"
    },
    {
      "anonymous": false,
      "inputs": [
        {
          "indexed": true,
          "internalType": "address",
          "name": "creatorAddress",
          "type": "address"
        },
        {
          "indexed": true,
          "internalType": "address",
          "name": "challengeAddress",
          "type": "address"
        },
        {
          "indexed": true,
          "internalType": "uint256",
          "name": "lockTime",
          "type": "uint256"
        },
        {
          "indexed": false,
          "internalType": "uint256",
          "name": "entryFee",
          "type": "uint256"
        },
        {
          "indexed": false,
          "internalType": "uint256",
          "name": "settlementStartTime",
          "type": "uint256"
        },
        {
          "indexed": false,
          "internalType": "uint256",
          "name": "settlementEndTime",
          "type": "uint256"
        },
        {
          "indexed": false,
          "internalType": "uint256",
          "name": "creatorPrediction",
          "type": "uint256"
        }
      ],
      "name": "ChallengeCreated",
      "type": "event"
    },
    {
      "anonymous": false,
      "inputs": [
        {
          "indexed": true,
          "internalType": "address",
          "name": "previousOwner",
          "type": "address"
        },
        {
          "indexed": true,
          "internalType": "address",
          "name": "newOwner",
          "type": "address"
        }
      ],
      "name": "OwnershipTransferred",
      "type": "event"
    },
    {
      "inputs": [],
      "name": "challengeImplementation",
      "outputs": [
        {
          "internalType": "address",
          "name": "",
          "type": "address"
        }
      ],
      "stateMutability": "view",
      "type": "function"
    },
    {
      "inputs": [
        {
          "internalType": "uint256",
          "name": "_creatorPrediction",
          "type": "uint256"
        },
        {
          "internalType": "uint256",
          "name": "_lockTime",
          "type": "uint256"
        },
        {
          "internalType": "uint256",
          "name": "_settlementStartTime",
          "type": "uint256"
        }
      ],
      "name": "createChallenge",
      "outputs": [],
      "stateMutability": "payable",
      "type": "function"
    },
    {
      "inputs": [],
      "name": "ethPriceFeedAddress",
      "outputs": [
        {
          "internalType": "address",
          "name": "",
          "type": "address"
        }
      ],
      "stateMutability": "view",
      "type": "function"
    },
    {
      "inputs": [],
      "name": "getFactoryDetails",
      "outputs": [
        {
          "internalType": "address",
          "name": "_owner",
          "type": "address"
        },
        {
          "internalType": "uint256",
          "name": "_startBlock",
          "type": "uint256"
        },
        {
          "internalType": "uint256",
          "name": "_minEntryFee",
          "type": "uint256"
        },
        {
          "internalType": "uint256",
          "name": "_minChallengeDuration",
          "type": "uint256"
        },
        {
          "internalType": "uint256",
          "name": "_maxChallengeDuration",
          "type": "uint256"
        },
        {
          "internalType": "uint256",
          "name": "_minLockDuration",
          "type": "uint256"
        },
        {
          "internalType": "uint256",
          "name": "_maxLockDuration",
          "type": "uint256"
        },
        {
          "internalType": "uint256",
          "name": "_settlementDuration",
          "type": "uint256"
        },
        {
          "internalType": "address",
          "name": "_challengeImplementation",
          "type": "address"
        }
      ],
      "stateMutability": "view",
      "type": "function"
    },
    {
      "inputs": [],
      "name": "maxChallengeDuration",
      "outputs": [
        {
          "internalType": "uint256",
          "name": "",
          "type": "uint256"
        }
      ],
      "stateMutability": "view",
      "type": "function"
    },
    {
      "inputs": [],
      "name": "maxLockDuration",
      "outputs": [
        {
          "internalType": "uint256",
          "name": "",
          "type": "uint256"
        }
      ],
      "stateMutability": "view",
      "type": "function"
    },
    {
      "inputs": [],
      "name": "minChallengeDuration",
      "outputs": [
        {
          "internalType": "uint256",
          "name": "",
          "type": "uint256"
        }
      ],
      "stateMutability": "view",
      "type": "function"
    },
    {
      "inputs": [],
      "name": "minEntryFee",
      "outputs": [
        {
          "internalType": "uint256",
          "name": "",
          "type": "uint256"
        }
      ],
      "stateMutability": "view",
      "type": "function"
    },
    {
      "inputs": [],
      "name": "minLockDuration",
      "outputs": [
        {
          "internalType": "uint256",
          "name": "",
          "type": "uint256"
        }
      ],
      "stateMutability": "view",
      "type": "function"
    },
    {
      "inputs": [],
      "name": "owner",
      "outputs": [
        {
          "internalType": "address",
          "name": "",
          "type": "address"
        }
      ],
      "stateMutability": "view",
      "type": "function"
    },
    {
      "inputs": [],
      "name": "renounceOwnership",
      "outputs": [],
      "stateMutability": "nonpayable",
      "type": "function"
    },
    {
      "inputs": [],
      "name": "settlementDuration",
      "outputs": [
        {
          "internalType": "uint256",
          "name": "",
          "type": "uint256"
        }
      ],
      "stateMutability": "view",
      "type": "function"
    },
    {
      "inputs": [],
      "name": "startBlock",
      "outputs": [
        {
          "internalType": "uint256",
          "name": "",
          "type": "uint256"
        }
      ],
      "stateMutability": "view",
      "type": "function"
    },
    {
      "inputs": [
        {
          "internalType": "address",
          "name": "newOwner",
          "type": "address"
        }
      ],
      "name": "transferOwnership",
      "outputs": [],
      "stateMutability": "nonpayable",
      "type": "function"
    }
  ],
  "bytecode": "0x6101a0346101f1576001600160401b03601f61232e38819003918201601f1916840191838311858410176101f65780859260e0946040528339810103126101f157815190602083015160408401519360608101519460808201519460c060a08401519301519460018060a01b0392838716908188036101f15760008054336001600160a01b0319821681178355604051929992969188167f8be0079c531659141344cd1fd0a4f28419497f9722a3daafe3b4186f6b6457e08b80a34360805260a05260c05260e05261010098895261012097885261014094855261018096875261166a838101928311848410176101dd57918391602093610cc48439815203019084f09283156101d157506101609216825260405193610ab7958661020d873960805186818161080c01526108d5015260a0518681816102cd015281816103a701526108fb015260c0518681816103d1015281816108470152610920015260e0518681816101eb0152818161040101526109460152518581816101ac01528181610431015261096c0152518481816102260152818161046101526109920152518381816103650152818161049101526109b80152518281816104b80152818161087f01526109de015251816102860152f35b604051903d90823e3d90fd5b634e487b7160e01b87526041600452602487fd5b600080fd5b634e487b7160e01b600052604160045260246000fdfe608060408181526004908136101561001657600080fd5b600092833560e01c908163232b22fa146108ae57508063242fdb911461086a57806340cfc3b11461082f57806348cd4cb1146107f457806351d2f24614610388578063576922131461034d578063715018a6146102f057806376e5b862146102b55780638add9f06146102715780638da5cb5b14610249578063a16cdbb11461020e578063d2177bdd146101d3578063d6a298e9146101945763f2fde38b146100be57600080fd5b34610190576020366003190112610190576001600160a01b0382358181169391929084900361018c576100ef610a06565b831561013a575050600054826bffffffffffffffffffffffff60a01b821617600055167f8be0079c531659141344cd1fd0a4f28419497f9722a3daafe3b4186f6b6457e0600080a380f35b906020608492519162461bcd60e51b8352820152602660248201527f4f776e61626c653a206e6577206f776e657220697320746865207a65726f206160448201526564647265737360d01b6064820152fd5b8480fd5b8280fd5b8382346101cf57816003193601126101cf57602090517f00000000000000000000000000000000000000000000000000000000000000008152f35b5080fd5b8382346101cf57816003193601126101cf57602090517f00000000000000000000000000000000000000000000000000000000000000008152f35b8382346101cf57816003193601126101cf57602090517f00000000000000000000000000000000000000000000000000000000000000008152f35b8382346101cf57816003193601126101cf57905490516001600160a01b039091168152602090f35b8382346101cf57816003193601126101cf57517f00000000000000000000000000000000000000000000000000000000000000006001600160a01b03168152602090f35b8382346101cf57816003193601126101cf57602090517f00000000000000000000000000000000000000000000000000000000000000008152f35b833461034a578060031936011261034a57610309610a06565b600080546001600160a01b0319811682556001600160a01b03167f8be0079c531659141344cd1fd0a4f28419497f9722a3daafe3b4186f6b6457e08280a380f35b80fd5b8382346101cf57816003193601126101cf57602090517f00000000000000000000000000000000000000000000000000000000000000008152f35b50906060366003190112610190578035916024928335936044928335937f0000000000000000000000000000000000000000000000000000000000000000341061079b576103f67f000000000000000000000000000000000000000000000000000000000000000042610a5e565b8710610745576104267f000000000000000000000000000000000000000000000000000000000000000042610a5e565b87116106f0576104567f000000000000000000000000000000000000000000000000000000000000000088610a5e565b8510610689576104867f000000000000000000000000000000000000000000000000000000000000000088610a5e565b8511610622576104b67f000000000000000000000000000000000000000000000000000000000000000086610a5e565b7f0000000000000000000000000000000000000000000000000000000000000000608881901c62ffffff16763d602d80600a3d3981f3363d3d373d3d3d363d73000000178a5260781b6e5af43d82803e903d91602b57fd5bf317602052926001600160a01b03603760098bf0169687156105e957873b156105e5578484519363641c889d60e11b85528a838601528884860152840152336064840152856084840152898360a481348c5af180156105db576105ab575b505050805193348552602085015283015260608201527f5dcce9e35be7747873834045bc817ee442f32112f4c92e2249af12541c40b49f60803392a480f35b67ffffffffffffffff839a949a116105ca57505087529538808061056c565b634e487b7160e01b84526041905282fd5b84513d8c823e3d90fd5b8980fd5b91601675115490cc4c4d8dce8818dc99585d194819985a5b195960521b926020606496519562461bcd60e51b8752860152840152820152fd5b7f4368616c6c656e6765466163746f72793a2054686520736574746c656d656e7490603760849460208995519562461bcd60e51b87528601528401528201527f2073746172742074696d6520697320746f6f206c6174650000000000000000006064820152fd5b7f4368616c6c656e6765466163746f72793a2054686520736574746c656d656e7490603860849460208995519562461bcd60e51b87528601528401528201527f2073746172742074696d6520697320746f6f206561726c7900000000000000006064820152fd5b7f4368616c6c656e6765466163746f72793a20546865206c6f636b2074696d652090602b60849460208995519562461bcd60e51b87528601528401528201526a697320746f6f206c61746560a81b6064820152fd5b7f4368616c6c656e6765466163746f72793a20546865206c6f636b2074696d652090602c60849460208995519562461bcd60e51b87528601528401528201526b697320746f6f206561726c7960a01b6064820152fd5b7f4368616c6c656e6765466163746f72793a2054686520656e747279206665652090602f60849460208995519562461bcd60e51b87528601528401528201526e73656e7420697320746f6f206c6f7760881b6064820152fd5b8382346101cf57816003193601126101cf57602090517f00000000000000000000000000000000000000000000000000000000000000008152f35b8382346101cf57816003193601126101cf57602090517f00000000000000000000000000000000000000000000000000000000000000008152f35b8382346101cf57816003193601126101cf57517f00000000000000000000000000000000000000000000000000000000000000006001600160a01b03168152602090f35b92505034610190578260031936011261019057916101209260018060a01b038092541683527f000000000000000000000000000000000000000000000000000000000000000060208401527f0000000000000000000000000000000000000000000000000000000000000000908301527f000000000000000000000000000000000000000000000000000000000000000060608301527f000000000000000000000000000000000000000000000000000000000000000060808301527f000000000000000000000000000000000000000000000000000000000000000060a08301527f000000000000000000000000000000000000000000000000000000000000000060c08301527f000000000000000000000000000000000000000000000000000000000000000060e08301527f000000000000000000000000000000000000000000000000000000000000000016610100820152f35b6000546001600160a01b03163303610a1a57565b606460405162461bcd60e51b815260206004820152602060248201527f4f776e61626c653a2063616c6c6572206973206e6f7420746865206f776e65726044820152fd5b91908201809211610a6b57565b634e487b7160e01b600052601160045260246000fdfea2646970667358221220a55e70831080e443509efa9f9f9fad827b6d25828162b7f0f20a31cfbdee778864736f6c6343000812003360a0346100b057601f61166a38819003918201601f19168301916001600160401b038311848410176100b5578084926020946040528339810103126100b057516001600160a01b0390818116908190036100b0576000543360018060a01b0319821617600055604051923391167f8be0079c531659141344cd1fd0a4f28419497f9722a3daafe3b4186f6b6457e0600080a360805261159e90816100cc823960805181818161048a01526105ec0152f35b600080fd5b634e487b7160e01b600052604160045260246000fdfe608060408181526004908136101561001657600080fd5b600092833560e01c90816302d05d3f146112095750806302fb0c5e146111e2578063072ea61c146111c357806307f3c255146110d35780630d668087146110b557806311a471ff146110965780631b0fc10614610ea05780631f80823614610e6f5780632efcfda314610e505780633ccfd60b14610a4957806347afcdfd14610a1c57806347e4835d146109f557806348cd4cb1146109d65780634a934534146109ba578063534db0e21461099157806369dd20c814610972578063715018a614610918578063747843f61461056657806378dc25cc1461054357806378e97925146105245780638da5cb5b146104fc5780638f775839146104d85780639d25d7f5146104b9578063af7665ce14610475578063c22659c11461044e578063c839113a1461038f578063dc1d277c1461025c578063dfbf53ae1461022f5763f2fde38b1461016357600080fd5b3461022b57602036600319011261022b576001600160a01b038235818116939192908490036102275761019461126e565b83156101d557505082546001600160a01b0319811683178455167f8be0079c531659141344cd1fd0a4f28419497f9722a3daafe3b4186f6b6457e08380a380f35b906020608492519162461bcd60e51b8352820152602660248201527f4f776e61626c653a206e6577206f776e657220697320746865207a65726f206160448201526564647265737360d01b6064820152fd5b8480fd5b8280fd5b838234610258578160031936011261025857600c5490516001600160a01b039091168152602090f35b5080fd5b50823461038c578060031936011261038c57546001546002546003549454600554600654600754600854600954600a54600b54600c54999c6001600160a01b039b8c169c9b9199929893821697949695909116949392916102bb6112f8565b9b80519e8f9e8f908152602001528d015260608c015260808b015260a08a015260c089015260e088015261010087015261012086015261014085015260ff81161515610160850152600160a01b600190038160081c1661018085015260a81c60ff1615156101a0840152600160a01b6001900381166101c08401528060a01c60ff1615156101e084015260a81c60ff16151561020083015261022082016002905261024082016702c68af0bb1400009052426102608301526102a08061028084015282016103889161122e565b0390f35b80fd5b509060a036600319011261022b576064356001600160a01b038116929083900361044a57600154610407575043600155426002553460035580359055602435600555604435600655600780546001600160a01b031916919091179055608435600855600b805460ff60a81b1916600160a81b17905580f35b906020606492519162461bcd60e51b8352820152601c60248201527f436f6e747261637420616c726561647920696e697469616c697a6564000000006044820152fd5b8380fd5b83823461025857816003193601126102585760209060ff600c5460a81c1690519015158152f35b838234610258578160031936011261025857517f00000000000000000000000000000000000000000000000000000000000000006001600160a01b03168152602090f35b838234610258578160031936011261025857602090600a549051908152f35b83823461025857816003193601126102585760209060ff600b541690519015158152f35b838234610258578160031936011261025857905490516001600160a01b039091168152602090f35b8382346102585781600319360112610258576020906002549051908152f35b838234610258578160031936011261025857602090516702c68af0bb1400008152f35b503461022b578260031936011261022b57600b549061058a60ff8360a81c16611466565b60ff82166108bc576009546001600160a01b03939084169283156108625760055442101580610856575b156107d1576001600160a81b0319163360081b610100600160a81b031617600117600b558151633fabe5a360e21b81529260a08483817f000000000000000000000000000000000000000000000000000000000000000089165afa9384156107c757908591879561074a575b50600854858082111561073b5761063691611545565b600a54868082111561072b5761064b91611545565b905b1015610726575080600754165b166bffffffffffffffffffffffff60a01b600c541617600c5547908160011b918083046002149015171561071357506702c68af0bb14000090606490048181111561070b5750925b8480858015610701575b8280929181923390f1156106f757600c5416928151928352602083015242908201527f99fceb45f3dc401528a4ca15034ef032931f71ea986225bf27986897985dd99c60603392a380f35b81513d86823e3d90fd5b6108fc91506106ac565b9050926106a2565b634e487b7160e01b865260119052602485fd5b61065a565b9061073591611545565b9061064d565b9061074591611545565b610636565b9150935060a03d81116107c0575b601f8101601f1916820167ffffffffffffffff8111838210176107ad5760a09183918652810103126107a9578061078f8692611529565b506107a1608060208301519201611529565b509338610620565b8580fd5b634e487b7160e01b885260418452602488fd5b503d610758565b83513d88823e3d90fd5b50602060a492519162461bcd60e51b8352820152605360248201527f4368616c6c656e67653a20546865206368616c6c656e6765206d75737420626560448201527f20736574746c6564206265747765656e2074686520736574746c656d656e7420606482015272737461727420616e6420656e642074696d657360681b6084820152fd5b506006544211156105b4565b506020608492519162461bcd60e51b8352820152602e60248201527f4368616c6c656e67653a20546865206368616c6c656e676520686173206e6f7460448201526d081899595b881858d8d95c1d195960921b6064820152fd5b5162461bcd60e51b8152602081840152603160248201527f4368616c6c656e67653a20546865206368616c6c656e67652068617320616c726044820152701958591e481899595b881cd95d1d1b1959607a1b6064820152608490fd5b833461038c578060031936011261038c5761093161126e565b80546001600160a01b03198116825581906001600160a01b03167f8be0079c531659141344cd1fd0a4f28419497f9722a3daafe3b4186f6b6457e08280a380f35b8382346102585781600319360112610258576020906005549051908152f35b83823461025857816003193601126102585760095490516001600160a01b039091168152602090f35b8382346102585781600319360112610258576020905160028152f35b8382346102585781600319360112610258576020906001549051908152f35b83823461025857816003193601126102585760209060ff600c5460a01c1690519015158152f35b838234610258578160031936011261025857600b54905160089190911c6001600160a01b03168152602090f35b50903461022b578260031936011261022b57600b5460ff1615610b6357600c546001600160a01b03163303610ad5575047908280838015610acb575b8280929181923390f115610ac057519081527f058b581e2433b8b02263f5b0e5c2889fcb7b3495112884a3147619038fba46d860203392a280f35b51913d9150823e3d90fd5b6108fc9150610a85565b602060a492519162461bcd60e51b8352820152605f60248201527f4368616c6c656e67653a204f6e6c79207468652077696e6e65722063616e207760448201527f69746864726177207468652072656d61696e696e672062616c616e636520617360648201527f20746865206368616c6c656e676520686173206265656e20736574746c6564006084820152fd5b600654421115610dc2576007546001600160a01b03903390821603610c6b5750600c549060ff8260a01c16610c02575060ff60a01b1916600160a01b17600c556003548290819081908190818115610bf9575b3390f115610bef5760035490519081527f058b581e2433b8b02263f5b0e5c2889fcb7b3495112884a3147619038fba46d860203392a280f35b51903d90823e3d90fd5b506108fc610bb6565b608490602084519162461bcd60e51b8352820152603c60248201527f4368616c6c656e67653a205468652063726561746f722068617320616c72656160448201527f64792077697468647261776e20746865697220656e74727920666565000000006064820152fd5b600954163314600014610d4c57600c549060ff8260a81c16610ce3575060ff60a81b1916600160a81b17600c556003548290819081908190818115610bf9573390f115610bef5760035490519081527f058b581e2433b8b02263f5b0e5c2889fcb7b3495112884a3147619038fba46d860203392a280f35b608490602084519162461bcd60e51b8352820152603f60248201527f4368616c6c656e67653a20546865206368616c6c656e6765722068617320616c60448201527f72656164792077697468647261776e20746865697220656e74727920666565006064820152fd5b602060a492519162461bcd60e51b8352820152604560248201527f4368616c6c656e67653a204f6e6c79207468652077696e6e6572206f7220636860448201527f616c6c656e6765722063616e20776974686472617720746865697220656e7472606482015264792066656560d81b6084820152fd5b602060a492519162461bcd60e51b8352820152605c60248201527f4368616c6c656e67653a20546865206368616c6c656e676520686173206e6f7460448201527f206265656e20736574746c6564207965742c20706c656173652077616974207560648201527f6e74696c2074686520736574746c656d656e7420656e642074696d65000000006084820152fd5b8382346102585781600319360112610258576020906006549051908152f35b83823461025857816003193601126102585761038890610e8d6112f8565b905191829160208352602083019061122e565b50602036600319011261022b57813591610ec160ff600b5460a81c16611466565b60095490610ed86001600160a01b038316156114c2565b8054421161101c576003543403610fb3576008548414610f3b575033906bffffffffffffffffffffffff60a01b161760095581600a55519081527f198848172490c9cede6f00b7d3d59d018f0bc4715a37f81b8ce39cc7807369ad60203392a280f35b60a490602084519162461bcd60e51b8352820152604660248201527f4368616c6c656e67653a20546865206368616c6c656e6765722063616e6e6f7460448201527f2070726564696374207468652073616d652076616c75652061732074686520636064820152653932b0ba37b960d11b6084820152fd5b608490602084519162461bcd60e51b8352820152603d60248201527f4368616c6c656e67653a2054686520656e74727920666565206d75737420626560448201527f207061696420746f2061636365707420746865206368616c6c656e67650000006064820152fd5b60a490602084519162461bcd60e51b8352820152604860248201527f4368616c6c656e67653a20546865206368616c6c656e676572206d757374206160448201527f636365707420746865206368616c6c656e6765206265666f726520746865206c6064820152676f636b2074696d6560c01b6084820152fd5b8382346102585781600319360112610258576020906008549051908152f35b50903461022b578260031936011261022b5760209250549051908152f35b50903461022b578260031936011261022b576007546001600160a01b0391908216330361116357506111099060095416156114c2565b60ff60a81b19600b5416600b558180808060035481811561115a575b3390f115610bef57514281527fa5fb4d351dd980e5a412299ec0c40298d0d5289b3d64c10773b3d667d54da19960203392a280f35b506108fc611125565b608490602084519162461bcd60e51b8352820152603460248201527f4368616c6c656e67653a204f6e6c79207468652063726561746f722063616e2060448201527363616e63656c20746865206368616c6c656e676560601b6064820152fd5b8382346102585781600319360112610258576020906003549051908152f35b83823461025857816003193601126102585760209060ff600b5460a81c1690519015158152f35b8490346102585781600319360112610258576007546001600160a01b03168152602090f35b919082519283825260005b84811061125a575050826000602080949584010152601f8019910116010190565b602081830181015184830182015201611239565b6000546001600160a01b0316330361128257565b606460405162461bcd60e51b815260206004820152602060248201527f4f776e61626c653a2063616c6c6572206973206e6f7420746865206f776e65726044820152fd5b6040810190811067ffffffffffffffff8211176112e257604052565b634e487b7160e01b600052604160045260246000fd5b600b5460ff8160a81c161560001461132f5750604051611317816112c6565b6008815267494e41435449564560c01b602082015290565b60ff161561135a57604051611343816112c6565b600781526614d1551513115160ca1b602082015290565b6009546001600160a01b03166113bc57600454421161139c5760405161137f816112c6565b600d81526c4348414c4c454e474541424c4560981b602082015290565b6040516113a8816112c6565b60048152631593d25160e21b602082015290565b60045442116113e9576040516113d1816112c6565b60088152671050d0d15415115160c21b602082015290565b6005544211611414576040516113fe816112c6565b60068152651313d0d2d15160d21b602082015290565b600654421161144357604051611429816112c6565b600a815269534554544c4541424c4560b01b602082015290565b60405161144f816112c6565b60078152661156141254915160ca1b602082015290565b1561146d57565b60405162461bcd60e51b815260206004820152602760248201527f4368616c6c656e67653a20546865206368616c6c656e6765206d7573742062656044820152662061637469766560c81b6064820152608490fd5b156114c957565b60405162461bcd60e51b815260206004820152603260248201527f4368616c6c656e67653a20546865206368616c6c656e67652068617320616c726044820152711958591e481899595b881858d8d95c1d195960721b6064820152608490fd5b519069ffffffffffffffffffff8216820361154057565b600080fd5b9190820391821161155257565b634e487b7160e01b600052601160045260246000fdfea2646970667358221220b3f54e71eb05c45e92030f411332461c332258f2582e23c8b60d96b6711a462f64736f6c63430008120033",
  "linkReferences": {},
  "deployedLinkReferences": {}
}