{"contracts/ChallengeFactory.sol":{"ChallengeFactory":{"abi":[{"inputs":[{"internalType":"uint256","name":"_minEntryFee","type":"uint256"},{"internalType":"uint256","name":"_minChallengeDuration","type":"uint256"},{"internalType":"uint256","name":"_maxChallengeDuration","type":"uint256"},{"internalType":"uint256","name":"_minLockDuration","type":"uint256"},{"internalType":"uint256","name":"_maxLockDuration","type":"uint256"},{"internalType":"uint256","name":"_settlementDuration","type":"uint256"},{"internalType":"address","name":"_ethPriceFeedAddress","type":"address"}],"stateMutability":"nonpayable","type":"constructor"},{"anonymous":false,"inputs":[{"indexed":true,"internalType":"address","name":"creatorAddress","type":"address"},{"indexed":true,"internalType":"address","name":"challengeAddress","type":"address"},{"indexed":true,"internalType":"uint256","name":"lockTime","type":"uint256"},{"indexed":false,"internalType":"uint256","name":"entryFee","type":"uint256"},{"indexed":false,"internalType":"uint256","name":"settlementStartTime","type":"uint256"},{"indexed":false,"internalType":"uint256","name":"settlementEndTime","type":"uint256"},{"indexed":false,"internalType":"uint256","name":"creatorPrediction","type":"uint256"}],"name":"ChallengeCreated","type":"event"},{"anonymous":false,"inputs":[{"indexed":true,"internalType":"address","name":"previousOwner","type":"address"},{"indexed":true,"internalType":"address","name":"newOwner","type":"address"}],"name":"OwnershipTransferred","type":"event"},{"inputs":[],"name":"challengeImplementation","outputs":[{"internalType":"address","name":"","type":"address"}],"stateMutability":"view","type":"function"},{"inputs":[{"internalType":"uint256","name":"_creatorPrediction","type":"uint256"},{"internalType":"uint256","name":"_lockTime","type":"uint256"},{"internalType":"uint256","name":"_settlementStartTime","type":"uint256"}],"name":"createChallenge","outputs":[],"stateMutability":"payable","type":"function"},{"inputs":[],"name":"ethPriceFeedAddress","outputs":[{"internalType":"address","name":"","type":"address"}],"stateMutability":"view","type":"function"},{"inputs":[],"name":"getFactoryDetails","outputs":[{"internalType":"address","name":"_owner","type":"address"},{"internalType":"uint256","name":"_startBlock","type":"uint256"},{"internalType":"uint256","name":"_minEntryFee","type":"uint256"},{"internalType":"uint256","name":"_minChallengeDuration","type":"uint256"},{"internalType":"uint256","name":"_maxChallengeDuration","type":"uint256"},{"internalType":"uint256","name":"_minLockDuration","type":"uint256"},{"internalType":"uint256","name":"_maxLockDuration","type":"uint256"},{"internalType":"uint256","name":"_settlementDuration","type":"uint256"},{"internalType":"address","name":"_challengeImplementation","type":"address"}],"stateMutability":"view","type":"function"},{"inputs":[],"name":"maxChallengeDuration","outputs":[{"internalType":"uint256","name":"","type":"uint256"}],"stateMutability":"view","type":"function"},{"inputs":[],"name":"maxLockDuration","outputs":[{"internalType":"uint256","name":"","type":"uint256"}],"stateMutability":"view","type":"function"},{"inputs":[],"name":"minChallengeDuration","outputs":[{"internalType":"uint256","name":"","type":"uint256"}],"stateMutability":"view","type":"function"},{"inputs":[],"name":"minEntryFee","outputs":[{"internalType":"uint256","name":"","type":"uint256"}],"stateMutability":"view","type":"function"},{"inputs":[],"name":"minLockDuration","outputs":[{"internalType":"uint256","name":"","type":"uint256"}],"stateMutability":"view","type":"function"},{"inputs":[],"name":"owner","outputs":[{"internalType":"address","name":"","type":"address"}],"stateMutability":"view","type":"function"},{"inputs":[],"name":"renounceOwnership","outputs":[],"stateMutability":"nonpayable","type":"function"},{"inputs":[],"name":"settlementDuration","outputs":[{"internalType":"uint256","name":"","type":"uint256"}],"stateMutability":"view","type":"function"},{"inputs":[],"name":"startBlock","outputs":[{"internalType":"uint256","name":"","type":"uint256"}],"stateMutability":"view","type":"function"},{"inputs":[{"internalType":"address","name":"newOwner","type":"address"}],"name":"transferOwnership","outputs":[],"stateMutability":"nonpayable","type":"function"}],"evm":{"bytecode":{"linkReferences":{},"object":"6101a0346101f1576001600160401b03601f61232e38819003918201601f1916840191838311858410176101f65780859260e0946040528339810103126101f157815190602083015160408401519360608101519460808201519460c060a08401519301519460018060a01b0392838716908188036101f15760008054336001600160a01b0319821681178355604051929992969188167f8be0079c531659141344cd1fd0a4f28419497f9722a3daafe3b4186f6b6457e08b80a34360805260a05260c05260e05261010098895261012097885261014094855261018096875261166a838101928311848410176101dd57918391602093610cc48439815203019084f09283156101d157506101609216825260405193610ab7958661020d873960805186818161080c01526108d5015260a0518681816102cd015281816103a701526108fb015260c0518681816103d1015281816108470152610920015260e0518681816101eb0152818161040101526109460152518581816101ac01528181610431015261096c0152518481816102260152818161046101526109920152518381816103650152818161049101526109b80152518281816104b80152818161087f01526109de015251816102860152f35b604051903d90823e3d90fd5b634e487b7160e01b87526041600452602487fd5b600080fd5b634e487b7160e01b600052604160045260246000fdfe608060408181526004908136101561001657600080fd5b600092833560e01c908163232b22fa146108ae57508063242fdb911461086a57806340cfc3b11461082f57806348cd4cb1146107f457806351d2f24614610388578063576922131461034d578063715018a6146102f057806376e5b862146102b55780638add9f06146102715780638da5cb5b14610249578063a16cdbb11461020e578063d2177bdd146101d3578063d6a298e9146101945763f2fde38b146100be57600080fd5b34610190576020366003190112610190576001600160a01b0382358181169391929084900361018c576100ef610a06565b831561013a575050600054826bffffffffffffffffffffffff60a01b821617600055167f8be0079c531659141344cd1fd0a4f28419497f9722a3daafe3b4186f6b6457e0600080a380f35b906020608492519162461bcd60e51b8352820152602660248201527f4f776e61626c653a206e6577206f776e657220697320746865207a65726f206160448201526564647265737360d01b6064820152fd5b8480fd5b8280fd5b8382346101cf57816003193601126101cf57602090517f00000000000000000000000000000000000000000000000000000000000000008152f35b5080fd5b8382346101cf57816003193601126101cf57602090517f00000000000000000000000000000000000000000000000000000000000000008152f35b8382346101cf57816003193601126101cf57602090517f00000000000000000000000000000000000000000000000000000000000000008152f35b8382346101cf57816003193601126101cf57905490516001600160a01b039091168152602090f35b8382346101cf57816003193601126101cf57517f00000000000000000000000000000000000000000000000000000000000000006001600160a01b03168152602090f35b8382346101cf57816003193601126101cf57602090517f00000000000000000000000000000000000000000000000000000000000000008152f35b833461034a578060031936011261034a57610309610a06565b600080546001600160a01b0319811682556001600160a01b03167f8be0079c531659141344cd1fd0a4f28419497f9722a3daafe3b4186f6b6457e08280a380f35b80fd5b8382346101cf57816003193601126101cf57602090517f00000000000000000000000000000000000000000000000000000000000000008152f35b50906060366003190112610190578035916024928335936044928335937f0000000000000000000000000000000000000000000000000000000000000000341061079b576103f67f000000000000000000000000000000000000000000000000000000000000000042610a5e565b8710610745576104267f000000000000000000000000000000000000000000000000000000000000000042610a5e565b87116106f0576104567f000000000000000000000000000000000000000000000000000000000000000088610a5e565b8510610689576104867f000000000000000000000000000000000000000000000000000000000000000088610a5e565b8511610622576104b67f000000000000000000000000000000000000000000000000000000000000000086610a5e565b7f0000000000000000000000000000000000000000000000000000000000000000608881901c62ffffff16763d602d80600a3d3981f3363d3d373d3d3d363d73000000178a5260781b6e5af43d82803e903d91602b57fd5bf317602052926001600160a01b03603760098bf0169687156105e957873b156105e5578484519363641c889d60e11b85528a838601528884860152840152336064840152856084840152898360a481348c5af180156105db576105ab575b505050805193348552602085015283015260608201527f5dcce9e35be7747873834045bc817ee442f32112f4c92e2249af12541c40b49f60803392a480f35b67ffffffffffffffff839a949a116105ca57505087529538808061056c565b634e487b7160e01b84526041905282fd5b84513d8c823e3d90fd5b8980fd5b91601675115490cc4c4d8dce8818dc99585d194819985a5b195960521b926020606496519562461bcd60e51b8752860152840152820152fd5b7f4368616c6c656e6765466163746f72793a2054686520736574746c656d656e7490603760849460208995519562461bcd60e51b87528601528401528201527f2073746172742074696d6520697320746f6f206c6174650000000000000000006064820152fd5b7f4368616c6c656e6765466163746f72793a2054686520736574746c656d656e7490603860849460208995519562461bcd60e51b87528601528401528201527f2073746172742074696d6520697320746f6f206561726c7900000000000000006064820152fd5b7f4368616c6c656e6765466163746f72793a20546865206c6f636b2074696d652090602b60849460208995519562461bcd60e51b87528601528401528201526a697320746f6f206c61746560a81b6064820152fd5b7f4368616c6c656e6765466163746f72793a20546865206c6f636b2074696d652090602c60849460208995519562461bcd60e51b87528601528401528201526b697320746f6f206561726c7960a01b6064820152fd5b7f4368616c6c656e6765466163746f72793a2054686520656e747279206665652090602f60849460208995519562461bcd60e51b87528601528401528201526e73656e7420697320746f6f206c6f7760881b6064820152fd5b8382346101cf57816003193601126101cf57602090517f00000000000000000000000000000000000000000000000000000000000000008152f35b8382346101cf57816003193601126101cf57602090517f00000000000000000000000000000000000000000000000000000000000000008152f35b8382346101cf57816003193601126101cf57517f00000000000000000000000000000000000000000000000000000000000000006001600160a01b03168152602090f35b92505034610190578260031936011261019057916101209260018060a01b038092541683527f000000000000000000000000000000000000000000000000000000000000000060208401527f0000000000000000000000000000000000000000000000000000000000000000908301527f000000000000000000000000000000000000000000000000000000000000000060608301527f000000000000000000000000000000000000000000000000000000000000000060808301527f000000000000000000000000000000000000000000000000000000000000000060a08301527f000000000000000000000000000000000000000000000000000000000000000060c08301527f000000000000000000000000000000000000000000000000000000000000000060e08301527f000000000000000000000000000000000000000000000000000000000000000016610100820152f35b6000546001600160a01b03163303610a1a57565b606460405162461bcd60e51b815260206004820152602060248201527f4f776e61626c653a2063616c6c6572206973206e6f7420746865206f776e65726044820152fd5b91908201809211610a6b57565b634e487b7160e01b600052601160045260246000fdfea2646970667358221220a55e70831080e443509efa9f9f9fad827b6d25828162b7f0f20a31cfbdee778864736f6c6343000812003360a0346100b057601f61166a38819003918201601f19168301916001600160401b038311848410176100b5578084926020946040528339810103126100b057516001600160a01b0390818116908190036100b0576000543360018060a01b0319821617600055604051923391167f8be0079c531659141344cd1fd0a4f28419497f9722a3daafe3b4186f6b6457e0600080a360805261159e90816100cc823960805181818161048a01526105ec0152f35b600080fd5b634e487b7160e01b600052604160045260246000fdfe608060408181526004908136101561001657600080fd5b600092833560e01c90816302d05d3f146112095750806302fb0c5e146111e2578063072ea61c146111c357806307f3c255146110d35780630d668087146110b557806311a471ff146110965780631b0fc10614610ea05780631f80823614610e6f5780632efcfda314610e505780633ccfd60b14610a4957806347afcdfd14610a1c57806347e4835d146109f557806348cd4cb1146109d65780634a934534146109ba578063534db0e21461099157806369dd20c814610972578063715018a614610918578063747843f61461056657806378dc25cc1461054357806378e97925146105245780638da5cb5b146104fc5780638f775839146104d85780639d25d7f5146104b9578063af7665ce14610475578063c22659c11461044e578063c839113a1461038f578063dc1d277c1461025c578063dfbf53ae1461022f5763f2fde38b1461016357600080fd5b3461022b57602036600319011261022b576001600160a01b038235818116939192908490036102275761019461126e565b83156101d557505082546001600160a01b0319811683178455167f8be0079c531659141344cd1fd0a4f28419497f9722a3daafe3b4186f6b6457e08380a380f35b906020608492519162461bcd60e51b8352820152602660248201527f4f776e61626c653a206e6577206f776e657220697320746865207a65726f206160448201526564647265737360d01b6064820152fd5b8480fd5b8280fd5b838234610258578160031936011261025857600c5490516001600160a01b039091168152602090f35b5080fd5b50823461038c578060031936011261038c57546001546002546003549454600554600654600754600854600954600a54600b54600c54999c6001600160a01b039b8c169c9b9199929893821697949695909116949392916102bb6112f8565b9b80519e8f9e8f908152602001528d015260608c015260808b015260a08a015260c089015260e088015261010087015261012086015261014085015260ff81161515610160850152600160a01b600190038160081c1661018085015260a81c60ff1615156101a0840152600160a01b6001900381166101c08401528060a01c60ff1615156101e084015260a81c60ff16151561020083015261022082016002905261024082016702c68af0bb1400009052426102608301526102a08061028084015282016103889161122e565b0390f35b80fd5b509060a036600319011261022b576064356001600160a01b038116929083900361044a57600154610407575043600155426002553460035580359055602435600555604435600655600780546001600160a01b031916919091179055608435600855600b805460ff60a81b1916600160a81b17905580f35b906020606492519162461bcd60e51b8352820152601c60248201527f436f6e747261637420616c726561647920696e697469616c697a6564000000006044820152fd5b8380fd5b83823461025857816003193601126102585760209060ff600c5460a81c1690519015158152f35b838234610258578160031936011261025857517f00000000000000000000000000000000000000000000000000000000000000006001600160a01b03168152602090f35b838234610258578160031936011261025857602090600a549051908152f35b83823461025857816003193601126102585760209060ff600b541690519015158152f35b838234610258578160031936011261025857905490516001600160a01b039091168152602090f35b8382346102585781600319360112610258576020906002549051908152f35b838234610258578160031936011261025857602090516702c68af0bb1400008152f35b503461022b578260031936011261022b57600b549061058a60ff8360a81c16611466565b60ff82166108bc576009546001600160a01b03939084169283156108625760055442101580610856575b156107d1576001600160a81b0319163360081b610100600160a81b031617600117600b558151633fabe5a360e21b81529260a08483817f000000000000000000000000000000000000000000000000000000000000000089165afa9384156107c757908591879561074a575b50600854858082111561073b5761063691611545565b600a54868082111561072b5761064b91611545565b905b1015610726575080600754165b166bffffffffffffffffffffffff60a01b600c541617600c5547908160011b918083046002149015171561071357506702c68af0bb14000090606490048181111561070b5750925b8480858015610701575b8280929181923390f1156106f757600c5416928151928352602083015242908201527f99fceb45f3dc401528a4ca15034ef032931f71ea986225bf27986897985dd99c60603392a380f35b81513d86823e3d90fd5b6108fc91506106ac565b9050926106a2565b634e487b7160e01b865260119052602485fd5b61065a565b9061073591611545565b9061064d565b9061074591611545565b610636565b9150935060a03d81116107c0575b601f8101601f1916820167ffffffffffffffff8111838210176107ad5760a09183918652810103126107a9578061078f8692611529565b506107a1608060208301519201611529565b509338610620565b8580fd5b634e487b7160e01b885260418452602488fd5b503d610758565b83513d88823e3d90fd5b50602060a492519162461bcd60e51b8352820152605360248201527f4368616c6c656e67653a20546865206368616c6c656e6765206d75737420626560448201527f20736574746c6564206265747765656e2074686520736574746c656d656e7420606482015272737461727420616e6420656e642074696d657360681b6084820152fd5b506006544211156105b4565b506020608492519162461bcd60e51b8352820152602e60248201527f4368616c6c656e67653a20546865206368616c6c656e676520686173206e6f7460448201526d081899595b881858d8d95c1d195960921b6064820152fd5b5162461bcd60e51b8152602081840152603160248201527f4368616c6c656e67653a20546865206368616c6c656e67652068617320616c726044820152701958591e481899595b881cd95d1d1b1959607a1b6064820152608490fd5b833461038c578060031936011261038c5761093161126e565b80546001600160a01b03198116825581906001600160a01b03167f8be0079c531659141344cd1fd0a4f28419497f9722a3daafe3b4186f6b6457e08280a380f35b8382346102585781600319360112610258576020906005549051908152f35b83823461025857816003193601126102585760095490516001600160a01b039091168152602090f35b8382346102585781600319360112610258576020905160028152f35b8382346102585781600319360112610258576020906001549051908152f35b83823461025857816003193601126102585760209060ff600c5460a01c1690519015158152f35b838234610258578160031936011261025857600b54905160089190911c6001600160a01b03168152602090f35b50903461022b578260031936011261022b57600b5460ff1615610b6357600c546001600160a01b03163303610ad5575047908280838015610acb575b8280929181923390f115610ac057519081527f058b581e2433b8b02263f5b0e5c2889fcb7b3495112884a3147619038fba46d860203392a280f35b51913d9150823e3d90fd5b6108fc9150610a85565b602060a492519162461bcd60e51b8352820152605f60248201527f4368616c6c656e67653a204f6e6c79207468652077696e6e65722063616e207760448201527f69746864726177207468652072656d61696e696e672062616c616e636520617360648201527f20746865206368616c6c656e676520686173206265656e20736574746c6564006084820152fd5b600654421115610dc2576007546001600160a01b03903390821603610c6b5750600c549060ff8260a01c16610c02575060ff60a01b1916600160a01b17600c556003548290819081908190818115610bf9575b3390f115610bef5760035490519081527f058b581e2433b8b02263f5b0e5c2889fcb7b3495112884a3147619038fba46d860203392a280f35b51903d90823e3d90fd5b506108fc610bb6565b608490602084519162461bcd60e51b8352820152603c60248201527f4368616c6c656e67653a205468652063726561746f722068617320616c72656160448201527f64792077697468647261776e20746865697220656e74727920666565000000006064820152fd5b600954163314600014610d4c57600c549060ff8260a81c16610ce3575060ff60a81b1916600160a81b17600c556003548290819081908190818115610bf9573390f115610bef5760035490519081527f058b581e2433b8b02263f5b0e5c2889fcb7b3495112884a3147619038fba46d860203392a280f35b608490602084519162461bcd60e51b8352820152603f60248201527f4368616c6c656e67653a20546865206368616c6c656e6765722068617320616c60448201527f72656164792077697468647261776e20746865697220656e74727920666565006064820152fd5b602060a492519162461bcd60e51b8352820152604560248201527f4368616c6c656e67653a204f6e6c79207468652077696e6e6572206f7220636860448201527f616c6c656e6765722063616e20776974686472617720746865697220656e7472606482015264792066656560d81b6084820152fd5b602060a492519162461bcd60e51b8352820152605c60248201527f4368616c6c656e67653a20546865206368616c6c656e676520686173206e6f7460448201527f206265656e20736574746c6564207965742c20706c656173652077616974207560648201527f6e74696c2074686520736574746c656d656e7420656e642074696d65000000006084820152fd5b8382346102585781600319360112610258576020906006549051908152f35b83823461025857816003193601126102585761038890610e8d6112f8565b905191829160208352602083019061122e565b50602036600319011261022b57813591610ec160ff600b5460a81c16611466565b60095490610ed86001600160a01b038316156114c2565b8054421161101c576003543403610fb3576008548414610f3b575033906bffffffffffffffffffffffff60a01b161760095581600a55519081527f198848172490c9cede6f00b7d3d59d018f0bc4715a37f81b8ce39cc7807369ad60203392a280f35b60a490602084519162461bcd60e51b8352820152604660248201527f4368616c6c656e67653a20546865206368616c6c656e6765722063616e6e6f7460448201527f2070726564696374207468652073616d652076616c75652061732074686520636064820152653932b0ba37b960d11b6084820152fd5b608490602084519162461bcd60e51b8352820152603d60248201527f4368616c6c656e67653a2054686520656e74727920666565206d75737420626560448201527f207061696420746f2061636365707420746865206368616c6c656e67650000006064820152fd5b60a490602084519162461bcd60e51b8352820152604860248201527f4368616c6c656e67653a20546865206368616c6c656e676572206d757374206160448201527f636365707420746865206368616c6c656e6765206265666f726520746865206c6064820152676f636b2074696d6560c01b6084820152fd5b8382346102585781600319360112610258576020906008549051908152f35b50903461022b578260031936011261022b5760209250549051908152f35b50903461022b578260031936011261022b576007546001600160a01b0391908216330361116357506111099060095416156114c2565b60ff60a81b19600b5416600b558180808060035481811561115a575b3390f115610bef57514281527fa5fb4d351dd980e5a412299ec0c40298d0d5289b3d64c10773b3d667d54da19960203392a280f35b506108fc611125565b608490602084519162461bcd60e51b8352820152603460248201527f4368616c6c656e67653a204f6e6c79207468652063726561746f722063616e2060448201527363616e63656c20746865206368616c6c656e676560601b6064820152fd5b8382346102585781600319360112610258576020906003549051908152f35b83823461025857816003193601126102585760209060ff600b5460a81c1690519015158152f35b8490346102585781600319360112610258576007546001600160a01b03168152602090f35b919082519283825260005b84811061125a575050826000602080949584010152601f8019910116010190565b602081830181015184830182015201611239565b6000546001600160a01b0316330361128257565b606460405162461bcd60e51b815260206004820152602060248201527f4f776e61626c653a2063616c6c6572206973206e6f7420746865206f776e65726044820152fd5b6040810190811067ffffffffffffffff8211176112e257604052565b634e487b7160e01b600052604160045260246000fd5b600b5460ff8160a81c161560001461132f5750604051611317816112c6565b6008815267494e41435449564560c01b602082015290565b60ff161561135a57604051611343816112c6565b600781526614d1551513115160ca1b602082015290565b6009546001600160a01b03166113bc57600454421161139c5760405161137f816112c6565b600d81526c4348414c4c454e474541424c4560981b602082015290565b6040516113a8816112c6565b60048152631593d25160e21b602082015290565b60045442116113e9576040516113d1816112c6565b60088152671050d0d15415115160c21b602082015290565b6005544211611414576040516113fe816112c6565b60068152651313d0d2d15160d21b602082015290565b600654421161144357604051611429816112c6565b600a815269534554544c4541424c4560b01b602082015290565b60405161144f816112c6565b60078152661156141254915160ca1b602082015290565b1561146d57565b60405162461bcd60e51b815260206004820152602760248201527f4368616c6c656e67653a20546865206368616c6c656e6765206d7573742062656044820152662061637469766560c81b6064820152608490fd5b156114c957565b60405162461bcd60e51b815260206004820152603260248201527f4368616c6c656e67653a20546865206368616c6c656e67652068617320616c726044820152711958591e481899595b881858d8d95c1d195960721b6064820152608490fd5b519069ffffffffffffffffffff8216820361154057565b600080fd5b9190820391821161155257565b634e487b7160e01b600052601160045260246000fdfea2646970667358221220b3f54e71eb05c45e92030f411332461c332258f2582e23c8b60d96b6711a462f64736f6c63430008120033","opcodes":"PUSH2 0x1A0 CALLVALUE PUSH2 0x1F1 JUMPI PUSH1 0x1 PUSH1 0x1 PUSH1 0x40 SHL SUB PUSH1 0x1F PUSH2 0x232E CODESIZE DUP2 SWAP1 SUB SWAP2 DUP3 ADD PUSH1 0x1F NOT AND DUP5 ADD SWAP2 DUP4 DUP4 GT DUP6 DUP5 LT OR PUSH2 0x1F6 JUMPI DUP1 DUP6 SWAP3 PUSH1 0xE0 SWAP5 PUSH1 0x40 MSTORE DUP4 CODECOPY DUP2 ADD SUB SLT PUSH2 0x1F1 JUMPI DUP2 MLOAD SWAP1 PUSH1 0x20 DUP4 ADD MLOAD PUSH1 0x40 DUP5 ADD MLOAD SWAP4 PUSH1 0x60 DUP2 ADD MLOAD SWAP5 PUSH1 0x80 DUP3 ADD MLOAD SWAP5 PUSH1 0xC0 PUSH1 0xA0 DUP5 ADD MLOAD SWAP4 ADD MLOAD SWAP5 PUSH1 0x1 DUP1 PUSH1 0xA0 SHL SUB SWAP3 DUP4 DUP8 AND SWAP1 DUP2 DUP9 SUB PUSH2 0x1F1 JUMPI PUSH1 0x0 DUP1 SLOAD CALLER PUSH1 0x1 PUSH1 0x1 PUSH1 0xA0 SHL SUB NOT DUP3 AND DUP2 OR DUP4 SSTORE PUSH1 0x40 MLOAD SWAP3 SWAP10 SWAP3 SWAP7 SWAP2 DUP9 AND PUSH32 0x8BE0079C531659141344CD1FD0A4F28419497F9722A3DAAFE3B4186F6B6457E0 DUP12 DUP1 LOG3 NUMBER PUSH1 0x80 MSTORE PUSH1 0xA0 MSTORE PUSH1 0xC0 MSTORE PUSH1 0xE0 MSTORE PUSH2 0x100 SWAP9 DUP10 MSTORE PUSH2 0x120 SWAP8 DUP9 MSTORE PUSH2 0x140 SWAP5 DUP6 MSTORE PUSH2 0x180 SWAP7 DUP8 MSTORE PUSH2 0x166A DUP4 DUP2 ADD SWAP3 DUP4 GT DUP5 DUP5 LT OR PUSH2 0x1DD JUMPI SWAP2 DUP4 SWAP2 PUSH1 0x20 SWAP4 PUSH2 0xCC4 DUP5 CODECOPY DUP2 MSTORE SUB ADD SWAP1 DUP5 CREATE SWAP3 DUP4 ISZERO PUSH2 0x1D1 JUMPI POP PUSH2 0x160 SWAP3 AND DUP3 MSTORE PUSH1 0x40 MLOAD SWAP4 PUSH2 0xAB7 SWAP6 DUP7 PUSH2 0x20D DUP8 CODECOPY PUSH1 0x80 MLOAD DUP7 DUP2 DUP2 PUSH2 0x80C ADD MSTORE PUSH2 0x8D5 ADD MSTORE PUSH1 0xA0 MLOAD DUP7 DUP2 DUP2 PUSH2 0x2CD ADD MSTORE DUP2 DUP2 PUSH2 0x3A7 ADD MSTORE PUSH2 0x8FB ADD MSTORE PUSH1 0xC0 MLOAD DUP7 DUP2 DUP2 PUSH2 0x3D1 ADD MSTORE DUP2 DUP2 PUSH2 0x847 ADD MSTORE PUSH2 0x920 ADD MSTORE PUSH1 0xE0 MLOAD DUP7 DUP2 DUP2 PUSH2 0x1EB ADD MSTORE DUP2 DUP2 PUSH2 0x401 ADD MSTORE PUSH2 0x946 ADD MSTORE MLOAD DUP6 DUP2 DUP2 PUSH2 0x1AC ADD MSTORE DUP2 DUP2 PUSH2 0x431 ADD MSTORE PUSH2 0x96C ADD MSTORE MLOAD DUP5 DUP2 DUP2 PUSH2 0x226 ADD MSTORE DUP2 DUP2 PUSH2 0x461 ADD MSTORE PUSH2 0x992 ADD MSTORE MLOAD DUP4 DUP2 DUP2 PUSH2 0x365 ADD MSTORE DUP2 DUP2 PUSH2 0x491 ADD MSTORE PUSH2 0x9B8 ADD MSTORE MLOAD DUP3 DUP2 DUP2 PUSH2 0x4B8 ADD MSTORE DUP2 DUP2 PUSH2 0x87F ADD MSTORE PUSH2 0x9DE ADD MSTORE MLOAD DUP2 PUSH2 0x286 ADD MSTORE RETURN JUMPDEST PUSH1 0x40 MLOAD SWAP1 RETURNDATASIZE SWAP1 DUP3 RETURNDATACOPY RETURNDATASIZE SWAP1 REVERT JUMPDEST PUSH4 0x4E487B71 PUSH1 0xE0 SHL DUP8 MSTORE PUSH1 0x41 PUSH1 0x4 MSTORE PUSH1 0x24 DUP8 REVERT JUMPDEST PUSH1 0x0 DUP1 REVERT JUMPDEST PUSH4 0x4E487B71 PUSH1 0xE0 SHL PUSH1 0x0 MSTORE PUSH1 0x41 PUSH1 0x4 MSTORE PUSH1 0x24 PUSH1 0x0 REVERT INVALID PUSH1 0x80 PUSH1 0x40 DUP2 DUP2 MSTORE PUSH1 0x4 SWAP1 DUP2 CALLDATASIZE LT ISZERO PUSH2 0x16 JUMPI PUSH1 0x0 DUP1 REVERT JUMPDEST PUSH1 0x0 SWAP3 DUP4 CALLDATALOAD PUSH1 0xE0 SHR SWAP1 DUP2 PUSH4 0x232B22FA EQ PUSH2 0x8AE JUMPI POP DUP1 PUSH4 0x242FDB91 EQ PUSH2 0x86A JUMPI DUP1 PUSH4 0x40CFC3B1 EQ PUSH2 0x82F JUMPI DUP1 PUSH4 0x48CD4CB1 EQ PUSH2 0x7F4 JUMPI DUP1 PUSH4 0x51D2F246 EQ PUSH2 0x388 JUMPI DUP1 PUSH4 0x57692213 EQ PUSH2 0x34D JUMPI DUP1 PUSH4 0x715018A6 EQ PUSH2 0x2F0 JUMPI DUP1 PUSH4 0x76E5B862 EQ PUSH2 0x2B5 JUMPI DUP1 PUSH4 0x8ADD9F06 EQ PUSH2 0x271 JUMPI DUP1 PUSH4 0x8DA5CB5B EQ PUSH2 0x249 JUMPI DUP1 PUSH4 0xA16CDBB1 EQ PUSH2 0x20E JUMPI DUP1 PUSH4 0xD2177BDD EQ PUSH2 0x1D3 JUMPI DUP1 PUSH4 0xD6A298E9 EQ PUSH2 0x194 JUMPI PUSH4 0xF2FDE38B EQ PUSH2 0xBE JUMPI PUSH1 0x0 DUP1 REVERT JUMPDEST CALLVALUE PUSH2 0x190 JUMPI PUSH1 0x20 CALLDATASIZE PUSH1 0x3 NOT ADD SLT PUSH2 0x190 JUMPI PUSH1 0x1 PUSH1 0x1 PUSH1 0xA0 SHL SUB DUP3 CALLDATALOAD DUP2 DUP2 AND SWAP4 SWAP2 SWAP3 SWAP1 DUP5 SWAP1 SUB PUSH2 0x18C JUMPI PUSH2 0xEF PUSH2 0xA06 JUMP JUMPDEST DUP4 ISZERO PUSH2 0x13A JUMPI POP POP PUSH1 0x0 SLOAD DUP3 PUSH12 0xFFFFFFFFFFFFFFFFFFFFFFFF PUSH1 0xA0 SHL DUP3 AND OR PUSH1 0x0 SSTORE AND PUSH32 0x8BE0079C531659141344CD1FD0A4F28419497F9722A3DAAFE3B4186F6B6457E0 PUSH1 0x0 DUP1 LOG3 DUP1 RETURN JUMPDEST SWAP1 PUSH1 0x20 PUSH1 0x84 SWAP3 MLOAD SWAP2 PUSH3 0x461BCD PUSH1 0xE5 SHL DUP4 MSTORE DUP3 ADD MSTORE PUSH1 0x26 PUSH1 0x24 DUP3 ADD MSTORE PUSH32 0x4F776E61626C653A206E6577206F776E657220697320746865207A65726F2061 PUSH1 0x44 DUP3 ADD MSTORE PUSH6 0x646472657373 PUSH1 0xD0 SHL PUSH1 0x64 DUP3 ADD MSTORE REVERT JUMPDEST DUP5 DUP1 REVERT JUMPDEST DUP3 DUP1 REVERT JUMPDEST DUP4 DUP3 CALLVALUE PUSH2 0x1CF JUMPI DUP2 PUSH1 0x3 NOT CALLDATASIZE ADD SLT PUSH2 0x1CF JUMPI PUSH1 0x20 SWAP1 MLOAD PUSH32 0x0 DUP2 MSTORE RETURN JUMPDEST POP DUP1 REVERT JUMPDEST DUP4 DUP3 CALLVALUE PUSH2 0x1CF JUMPI DUP2 PUSH1 0x3 NOT CALLDATASIZE ADD SLT PUSH2 0x1CF JUMPI PUSH1 0x20 SWAP1 MLOAD PUSH32 0x0 DUP2 MSTORE RETURN JUMPDEST DUP4 DUP3 CALLVALUE PUSH2 0x1CF JUMPI DUP2 PUSH1 0x3 NOT CALLDATASIZE ADD SLT PUSH2 0x1CF JUMPI PUSH1 0x20 SWAP1 MLOAD PUSH32 0x0 DUP2 MSTORE RETURN JUMPDEST DUP4 DUP3 CALLVALUE PUSH2 0x1CF JUMPI DUP2 PUSH1 0x3 NOT CALLDATASIZE ADD SLT PUSH2 0x1CF JUMPI SWAP1 SLOAD SWAP1 MLOAD PUSH1 0x1 PUSH1 0x1 PUSH1 0xA0 SHL SUB SWAP1 SWAP2 AND DUP2 MSTORE PUSH1 0x20 SWAP1 RETURN JUMPDEST DUP4 DUP3 CALLVALUE PUSH2 0x1CF JUMPI DUP2 PUSH1 0x3 NOT CALLDATASIZE ADD SLT PUSH2 0x1CF JUMPI MLOAD PUSH32 0x0 PUSH1 0x1 PUSH1 0x1 PUSH1 0xA0 SHL SUB AND DUP2 MSTORE PUSH1 0x20 SWAP1 RETURN JUMPDEST DUP4 DUP3 CALLVALUE PUSH2 0x1CF JUMPI DUP2 PUSH1 0x3 NOT CALLDATASIZE ADD SLT PUSH2 0x1CF JUMPI PUSH1 0x20 SWAP1 MLOAD PUSH32 0x0 DUP2 MSTORE RETURN JUMPDEST DUP4 CALLVALUE PUSH2 0x34A JUMPI DUP1 PUSH1 0x3 NOT CALLDATASIZE ADD SLT PUSH2 0x34A JUMPI PUSH2 0x309 PUSH2 0xA06 JUMP JUMPDEST PUSH1 0x0 DUP1 SLOAD PUSH1 0x1 PUSH1 0x1 PUSH1 0xA0 SHL SUB NOT DUP2 AND DUP3 SSTORE PUSH1 0x1 PUSH1 0x1 PUSH1 0xA0 SHL SUB AND PUSH32 0x8BE0079C531659141344CD1FD0A4F28419497F9722A3DAAFE3B4186F6B6457E0 DUP3 DUP1 LOG3 DUP1 RETURN JUMPDEST DUP1 REVERT JUMPDEST DUP4 DUP3 CALLVALUE PUSH2 0x1CF JUMPI DUP2 PUSH1 0x3 NOT CALLDATASIZE ADD SLT PUSH2 0x1CF JUMPI PUSH1 0x20 SWAP1 MLOAD PUSH32 0x0 DUP2 MSTORE RETURN JUMPDEST POP SWAP1 PUSH1 0x60 CALLDATASIZE PUSH1 0x3 NOT ADD SLT PUSH2 0x190 JUMPI DUP1 CALLDATALOAD SWAP2 PUSH1 0x24 SWAP3 DUP4 CALLDATALOAD SWAP4 PUSH1 0x44 SWAP3 DUP4 CALLDATALOAD SWAP4 PUSH32 0x0 CALLVALUE LT PUSH2 0x79B JUMPI PUSH2 0x3F6 PUSH32 0x0 TIMESTAMP PUSH2 0xA5E JUMP JUMPDEST DUP8 LT PUSH2 0x745 JUMPI PUSH2 0x426 PUSH32 0x0 TIMESTAMP PUSH2 0xA5E JUMP JUMPDEST DUP8 GT PUSH2 0x6F0 JUMPI PUSH2 0x456 PUSH32 0x0 DUP9 PUSH2 0xA5E JUMP JUMPDEST DUP6 LT PUSH2 0x689 JUMPI PUSH2 0x486 PUSH32 0x0 DUP9 PUSH2 0xA5E JUMP JUMPDEST DUP6 GT PUSH2 0x622 JUMPI PUSH2 0x4B6 PUSH32 0x0 DUP7 PUSH2 0xA5E JUMP JUMPDEST PUSH32 0x0 PUSH1 0x88 DUP2 SWAP1 SHR PUSH3 0xFFFFFF AND PUSH23 0x3D602D80600A3D3981F3363D3D373D3D3D363D73000000 OR DUP11 MSTORE PUSH1 0x78 SHL PUSH15 0x5AF43D82803E903D91602B57FD5BF3 OR PUSH1 0x20 MSTORE SWAP3 PUSH1 0x1 PUSH1 0x1 PUSH1 0xA0 SHL SUB PUSH1 0x37 PUSH1 0x9 DUP12 CREATE AND SWAP7 DUP8 ISZERO PUSH2 0x5E9 JUMPI DUP8 EXTCODESIZE ISZERO PUSH2 0x5E5 JUMPI DUP5 DUP5 MLOAD SWAP4 PUSH4 0x641C889D PUSH1 0xE1 SHL DUP6 MSTORE DUP11 DUP4 DUP7 ADD MSTORE DUP9 DUP5 DUP7 ADD MSTORE DUP5 ADD MSTORE CALLER PUSH1 0x64 DUP5 ADD MSTORE DUP6 PUSH1 0x84 DUP5 ADD MSTORE DUP10 DUP4 PUSH1 0xA4 DUP2 CALLVALUE DUP13 GAS CALL DUP1 ISZERO PUSH2 0x5DB JUMPI PUSH2 0x5AB JUMPI JUMPDEST POP POP POP DUP1 MLOAD SWAP4 CALLVALUE DUP6 MSTORE PUSH1 0x20 DUP6 ADD MSTORE DUP4 ADD MSTORE PUSH1 0x60 DUP3 ADD MSTORE PUSH32 0x5DCCE9E35BE7747873834045BC817EE442F32112F4C92E2249AF12541C40B49F PUSH1 0x80 CALLER SWAP3 LOG4 DUP1 RETURN JUMPDEST PUSH8 0xFFFFFFFFFFFFFFFF DUP4 SWAP11 SWAP5 SWAP11 GT PUSH2 0x5CA JUMPI POP POP DUP8 MSTORE SWAP6 CODESIZE DUP1 DUP1 PUSH2 0x56C JUMP JUMPDEST PUSH4 0x4E487B71 PUSH1 0xE0 SHL DUP5 MSTORE PUSH1 0x41 SWAP1 MSTORE DUP3 REVERT JUMPDEST DUP5 MLOAD RETURNDATASIZE DUP13 DUP3 RETURNDATACOPY RETURNDATASIZE SWAP1 REVERT JUMPDEST DUP10 DUP1 REVERT JUMPDEST SWAP2 PUSH1 0x16 PUSH22 0x115490CC4C4D8DCE8818DC99585D194819985A5B1959 PUSH1 0x52 SHL SWAP3 PUSH1 0x20 PUSH1 0x64 SWAP7 MLOAD SWAP6 PUSH3 0x461BCD PUSH1 0xE5 SHL DUP8 MSTORE DUP7 ADD MSTORE DUP5 ADD MSTORE DUP3 ADD MSTORE REVERT JUMPDEST PUSH32 0x4368616C6C656E6765466163746F72793A2054686520736574746C656D656E74 SWAP1 PUSH1 0x37 PUSH1 0x84 SWAP5 PUSH1 0x20 DUP10 SWAP6 MLOAD SWAP6 PUSH3 0x461BCD PUSH1 0xE5 SHL DUP8 MSTORE DUP7 ADD MSTORE DUP5 ADD MSTORE DUP3 ADD MSTORE PUSH32 0x2073746172742074696D6520697320746F6F206C617465000000000000000000 PUSH1 0x64 DUP3 ADD MSTORE REVERT JUMPDEST PUSH32 0x4368616C6C656E6765466163746F72793A2054686520736574746C656D656E74 SWAP1 PUSH1 0x38 PUSH1 0x84 SWAP5 PUSH1 0x20 DUP10 SWAP6 MLOAD SWAP6 PUSH3 0x461BCD PUSH1 0xE5 SHL DUP8 MSTORE DUP7 ADD MSTORE DUP5 ADD MSTORE DUP3 ADD MSTORE PUSH32 0x2073746172742074696D6520697320746F6F206561726C790000000000000000 PUSH1 0x64 DUP3 ADD MSTORE REVERT JUMPDEST PUSH32 0x4368616C6C656E6765466163746F72793A20546865206C6F636B2074696D6520 SWAP1 PUSH1 0x2B PUSH1 0x84 SWAP5 PUSH1 0x20 DUP10 SWAP6 MLOAD SWAP6 PUSH3 0x461BCD PUSH1 0xE5 SHL DUP8 MSTORE DUP7 ADD MSTORE DUP5 ADD MSTORE DUP3 ADD MSTORE PUSH11 0x697320746F6F206C617465 PUSH1 0xA8 SHL PUSH1 0x64 DUP3 ADD MSTORE REVERT JUMPDEST PUSH32 0x4368616C6C656E6765466163746F72793A20546865206C6F636B2074696D6520 SWAP1 PUSH1 0x2C PUSH1 0x84 SWAP5 PUSH1 0x20 DUP10 SWAP6 MLOAD SWAP6 PUSH3 0x461BCD PUSH1 0xE5 SHL DUP8 MSTORE DUP7 ADD MSTORE DUP5 ADD MSTORE DUP3 ADD MSTORE PUSH12 0x697320746F6F206561726C79 PUSH1 0xA0 SHL PUSH1 0x64 DUP3 ADD MSTORE REVERT JUMPDEST PUSH32 0x4368616C6C656E6765466163746F72793A2054686520656E7472792066656520 SWAP1 PUSH1 0x2F PUSH1 0x84 SWAP5 PUSH1 0x20 DUP10 SWAP6 MLOAD SWAP6 PUSH3 0x461BCD PUSH1 0xE5 SHL DUP8 MSTORE DUP7 ADD MSTORE DUP5 ADD MSTORE DUP3 ADD MSTORE PUSH15 0x73656E7420697320746F6F206C6F77 PUSH1 0x88 SHL PUSH1 0x64 DUP3 ADD MSTORE REVERT JUMPDEST DUP4 DUP3 CALLVALUE PUSH2 0x1CF JUMPI DUP2 PUSH1 0x3 NOT CALLDATASIZE ADD SLT PUSH2 0x1CF JUMPI PUSH1 0x20 SWAP1 MLOAD PUSH32 0x0 DUP2 MSTORE RETURN JUMPDEST DUP4 DUP3 CALLVALUE PUSH2 0x1CF JUMPI DUP2 PUSH1 0x3 NOT CALLDATASIZE ADD SLT PUSH2 0x1CF JUMPI PUSH1 0x20 SWAP1 MLOAD PUSH32 0x0 DUP2 MSTORE RETURN JUMPDEST DUP4 DUP3 CALLVALUE PUSH2 0x1CF JUMPI DUP2 PUSH1 0x3 NOT CALLDATASIZE ADD SLT PUSH2 0x1CF JUMPI MLOAD PUSH32 0x0 PUSH1 0x1 PUSH1 0x1 PUSH1 0xA0 SHL SUB AND DUP2 MSTORE PUSH1 0x20 SWAP1 RETURN JUMPDEST SWAP3 POP POP CALLVALUE PUSH2 0x190 JUMPI DUP3 PUSH1 0x3 NOT CALLDATASIZE ADD SLT PUSH2 0x190 JUMPI SWAP2 PUSH2 0x120 SWAP3 PUSH1 0x1 DUP1 PUSH1 0xA0 SHL SUB DUP1 SWAP3 SLOAD AND DUP4 MSTORE PUSH32 0x0 PUSH1 0x20 DUP5 ADD MSTORE PUSH32 0x0 SWAP1 DUP4 ADD MSTORE PUSH32 0x0 PUSH1 0x60 DUP4 ADD MSTORE PUSH32 0x0 PUSH1 0x80 DUP4 ADD MSTORE PUSH32 0x0 PUSH1 0xA0 DUP4 ADD MSTORE PUSH32 0x0 PUSH1 0xC0 DUP4 ADD MSTORE PUSH32 0x0 PUSH1 0xE0 DUP4 ADD MSTORE PUSH32 0x0 AND PUSH2 0x100 DUP3 ADD MSTORE RETURN JUMPDEST PUSH1 0x0 SLOAD PUSH1 0x1 PUSH1 0x1 PUSH1 0xA0 SHL SUB AND CALLER SUB PUSH2 0xA1A JUMPI JUMP JUMPDEST PUSH1 0x64 PUSH1 0x40 MLOAD PUSH3 0x461BCD PUSH1 0xE5 SHL DUP2 MSTORE PUSH1 0x20 PUSH1 0x4 DUP3 ADD MSTORE PUSH1 0x20 PUSH1 0x24 DUP3 ADD MSTORE PUSH32 0x4F776E61626C653A2063616C6C6572206973206E6F7420746865206F776E6572 PUSH1 0x44 DUP3 ADD MSTORE REVERT JUMPDEST SWAP2 SWAP1 DUP3 ADD DUP1 SWAP3 GT PUSH2 0xA6B JUMPI JUMP JUMPDEST PUSH4 0x4E487B71 PUSH1 0xE0 SHL PUSH1 0x0 MSTORE PUSH1 0x11 PUSH1 0x4 MSTORE PUSH1 0x24 PUSH1 0x0 REVERT INVALID LOG2 PUSH5 0x6970667358 0x22 SLT KECCAK256 0xA5 0x5E PUSH17 0x831080E443509EFA9F9F9FAD827B6D2582 DUP2 PUSH3 0xB7F0F2 EXP BALANCE 0xCF 0xBD 0xEE PUSH24 0x8864736F6C6343000812003360A0346100B057601F61166A CODESIZE DUP2 SWAP1 SUB SWAP2 DUP3 ADD PUSH1 0x1F NOT AND DUP4 ADD SWAP2 PUSH1 0x1 PUSH1 0x1 PUSH1 0x40 SHL SUB DUP4 GT DUP5 DUP5 LT OR PUSH2 0xB5 JUMPI DUP1 DUP5 SWAP3 PUSH1 0x20 SWAP5 PUSH1 0x40 MSTORE DUP4 CODECOPY DUP2 ADD SUB SLT PUSH2 0xB0 JUMPI MLOAD PUSH1 0x1 PUSH1 0x1 PUSH1 0xA0 SHL SUB SWAP1 DUP2 DUP2 AND SWAP1 DUP2 SWAP1 SUB PUSH2 0xB0 JUMPI PUSH1 0x0 SLOAD CALLER PUSH1 0x1 DUP1 PUSH1 0xA0 SHL SUB NOT DUP3 AND OR PUSH1 0x0 SSTORE PUSH1 0x40 MLOAD SWAP3 CALLER SWAP2 AND PUSH32 0x8BE0079C531659141344CD1FD0A4F28419497F9722A3DAAFE3B4186F6B6457E0 PUSH1 0x0 DUP1 LOG3 PUSH1 0x80 MSTORE PUSH2 0x159E SWAP1 DUP2 PUSH2 0xCC DUP3 CODECOPY PUSH1 0x80 MLOAD DUP2 DUP2 DUP2 PUSH2 0x48A ADD MSTORE PUSH2 0x5EC ADD MSTORE RETURN JUMPDEST PUSH1 0x0 DUP1 REVERT JUMPDEST PUSH4 0x4E487B71 PUSH1 0xE0 SHL PUSH1 0x0 MSTORE PUSH1 0x41 PUSH1 0x4 MSTORE PUSH1 0x24 PUSH1 0x0 REVERT INVALID PUSH1 0x80 PUSH1 0x40 DUP2 DUP2 MSTORE PUSH1 0x4 SWAP1 DUP2 CALLDATASIZE LT ISZERO PUSH2 0x16 JUMPI PUSH1 0x0 DUP1 REVERT JUMPDEST PUSH1 0x0 SWAP3 DUP4 CALLDATALOAD PUSH1 0xE0 SHR SWAP1 DUP2 PUSH4 0x2D05D3F EQ PUSH2 0x1209 JUMPI POP DUP1 PUSH4 0x2FB0C5E EQ PUSH2 0x11E2 JUMPI DUP1 PUSH4 0x72EA61C EQ PUSH2 0x11C3 JUMPI DUP1 PUSH4 0x7F3C255 EQ PUSH2 0x10D3 JUMPI DUP1 PUSH4 0xD668087 EQ PUSH2 0x10B5 JUMPI DUP1 PUSH4 0x11A471FF EQ PUSH2 0x1096 JUMPI DUP1 PUSH4 0x1B0FC106 EQ PUSH2 0xEA0 JUMPI DUP1 PUSH4 0x1F808236 EQ PUSH2 0xE6F JUMPI DUP1 PUSH4 0x2EFCFDA3 EQ PUSH2 0xE50 JUMPI DUP1 PUSH4 0x3CCFD60B EQ PUSH2 0xA49 JUMPI DUP1 PUSH4 0x47AFCDFD EQ PUSH2 0xA1C JUMPI DUP1 PUSH4 0x47E4835D EQ PUSH2 0x9F5 JUMPI DUP1 PUSH4 0x48CD4CB1 EQ PUSH2 0x9D6 JUMPI DUP1 PUSH4 0x4A934534 EQ PUSH2 0x9BA JUMPI DUP1 PUSH4 0x534DB0E2 EQ PUSH2 0x991 JUMPI DUP1 PUSH4 0x69DD20C8 EQ PUSH2 0x972 JUMPI DUP1 PUSH4 0x715018A6 EQ PUSH2 0x918 JUMPI DUP1 PUSH4 0x747843F6 EQ PUSH2 0x566 JUMPI DUP1 PUSH4 0x78DC25CC EQ PUSH2 0x543 JUMPI DUP1 PUSH4 0x78E97925 EQ PUSH2 0x524 JUMPI DUP1 PUSH4 0x8DA5CB5B EQ PUSH2 0x4FC JUMPI DUP1 PUSH4 0x8F775839 EQ PUSH2 0x4D8 JUMPI DUP1 PUSH4 0x9D25D7F5 EQ PUSH2 0x4B9 JUMPI DUP1 PUSH4 0xAF7665CE EQ PUSH2 0x475 JUMPI DUP1 PUSH4 0xC22659C1 EQ PUSH2 0x44E JUMPI DUP1 PUSH4 0xC839113A EQ PUSH2 0x38F JUMPI DUP1 PUSH4 0xDC1D277C EQ PUSH2 0x25C JUMPI DUP1 PUSH4 0xDFBF53AE EQ PUSH2 0x22F JUMPI PUSH4 0xF2FDE38B EQ PUSH2 0x163 JUMPI PUSH1 0x0 DUP1 REVERT JUMPDEST CALLVALUE PUSH2 0x22B JUMPI PUSH1 0x20 CALLDATASIZE PUSH1 0x3 NOT ADD SLT PUSH2 0x22B JUMPI PUSH1 0x1 PUSH1 0x1 PUSH1 0xA0 SHL SUB DUP3 CALLDATALOAD DUP2 DUP2 AND SWAP4 SWAP2 SWAP3 SWAP1 DUP5 SWAP1 SUB PUSH2 0x227 JUMPI PUSH2 0x194 PUSH2 0x126E JUMP JUMPDEST DUP4 ISZERO PUSH2 0x1D5 JUMPI POP POP DUP3 SLOAD PUSH1 0x1 PUSH1 0x1 PUSH1 0xA0 SHL SUB NOT DUP2 AND DUP4 OR DUP5 SSTORE AND PUSH32 0x8BE0079C531659141344CD1FD0A4F28419497F9722A3DAAFE3B4186F6B6457E0 DUP4 DUP1 LOG3 DUP1 RETURN JUMPDEST SWAP1 PUSH1 0x20 PUSH1 0x84 SWAP3 MLOAD SWAP2 PUSH3 0x461BCD PUSH1 0xE5 SHL DUP4 MSTORE DUP3 ADD MSTORE PUSH1 0x26 PUSH1 0x24 DUP3 ADD MSTORE PUSH32 0x4F776E61626C653A206E6577206F776E657220697320746865207A65726F2061 PUSH1 0x44 DUP3 ADD MSTORE PUSH6 0x646472657373 PUSH1 0xD0 SHL PUSH1 0x64 DUP3 ADD MSTORE REVERT JUMPDEST DUP5 DUP1 REVERT JUMPDEST DUP3 DUP1 REVERT JUMPDEST DUP4 DUP3 CALLVALUE PUSH2 0x258 JUMPI DUP2 PUSH1 0x3 NOT CALLDATASIZE ADD SLT PUSH2 0x258 JUMPI PUSH1 0xC SLOAD SWAP1 MLOAD PUSH1 0x1 PUSH1 0x1 PUSH1 0xA0 SHL SUB SWAP1 SWAP2 AND DUP2 MSTORE PUSH1 0x20 SWAP1 RETURN JUMPDEST POP DUP1 REVERT JUMPDEST POP DUP3 CALLVALUE PUSH2 0x38C JUMPI DUP1 PUSH1 0x3 NOT CALLDATASIZE ADD SLT PUSH2 0x38C JUMPI SLOAD PUSH1 0x1 SLOAD PUSH1 0x2 SLOAD PUSH1 0x3 SLOAD SWAP5 SLOAD PUSH1 0x5 SLOAD PUSH1 0x6 SLOAD PUSH1 0x7 SLOAD PUSH1 0x8 SLOAD PUSH1 0x9 SLOAD PUSH1 0xA SLOAD PUSH1 0xB SLOAD PUSH1 0xC SLOAD SWAP10 SWAP13 PUSH1 0x1 PUSH1 0x1 PUSH1 0xA0 SHL SUB SWAP12 DUP13 AND SWAP13 SWAP12 SWAP2 SWAP10 SWAP3 SWAP9 SWAP4 DUP3 AND SWAP8 SWAP5 SWAP7 SWAP6 SWAP1 SWAP2 AND SWAP5 SWAP4 SWAP3 SWAP2 PUSH2 0x2BB PUSH2 0x12F8 JUMP JUMPDEST SWAP12 DUP1 MLOAD SWAP15 DUP16 SWAP15 DUP16 SWAP1 DUP2 MSTORE PUSH1 0x20 ADD MSTORE DUP14 ADD MSTORE PUSH1 0x60 DUP13 ADD MSTORE PUSH1 0x80 DUP12 ADD MSTORE PUSH1 0xA0 DUP11 ADD MSTORE PUSH1 0xC0 DUP10 ADD MSTORE PUSH1 0xE0 DUP9 ADD MSTORE PUSH2 0x100 DUP8 ADD MSTORE PUSH2 0x120 DUP7 ADD MSTORE PUSH2 0x140 DUP6 ADD MSTORE PUSH1 0xFF DUP2 AND ISZERO ISZERO PUSH2 0x160 DUP6 ADD MSTORE PUSH1 0x1 PUSH1 0xA0 SHL PUSH1 0x1 SWAP1 SUB DUP2 PUSH1 0x8 SHR AND PUSH2 0x180 DUP6 ADD MSTORE PUSH1 0xA8 SHR PUSH1 0xFF AND ISZERO ISZERO PUSH2 0x1A0 DUP5 ADD MSTORE PUSH1 0x1 PUSH1 0xA0 SHL PUSH1 0x1 SWAP1 SUB DUP2 AND PUSH2 0x1C0 DUP5 ADD MSTORE DUP1 PUSH1 0xA0 SHR PUSH1 0xFF AND ISZERO ISZERO PUSH2 0x1E0 DUP5 ADD MSTORE PUSH1 0xA8 SHR PUSH1 0xFF AND ISZERO ISZERO PUSH2 0x200 DUP4 ADD MSTORE PUSH2 0x220 DUP3 ADD PUSH1 0x2 SWAP1 MSTORE PUSH2 0x240 DUP3 ADD PUSH8 0x2C68AF0BB140000 SWAP1 MSTORE TIMESTAMP PUSH2 0x260 DUP4 ADD MSTORE PUSH2 0x2A0 DUP1 PUSH2 0x280 DUP5 ADD MSTORE DUP3 ADD PUSH2 0x388 SWAP2 PUSH2 0x122E JUMP JUMPDEST SUB SWAP1 RETURN JUMPDEST DUP1 REVERT JUMPDEST POP SWAP1 PUSH1 0xA0 CALLDATASIZE PUSH1 0x3 NOT ADD SLT PUSH2 0x22B JUMPI PUSH1 0x64 CALLDATALOAD PUSH1 0x1 PUSH1 0x1 PUSH1 0xA0 SHL SUB DUP2 AND SWAP3 SWAP1 DUP4 SWAP1 SUB PUSH2 0x44A JUMPI PUSH1 0x1 SLOAD PUSH2 0x407 JUMPI POP NUMBER PUSH1 0x1 SSTORE TIMESTAMP PUSH1 0x2 SSTORE CALLVALUE PUSH1 0x3 SSTORE DUP1 CALLDATALOAD SWAP1 SSTORE PUSH1 0x24 CALLDATALOAD PUSH1 0x5 SSTORE PUSH1 0x44 CALLDATALOAD PUSH1 0x6 SSTORE PUSH1 0x7 DUP1 SLOAD PUSH1 0x1 PUSH1 0x1 PUSH1 0xA0 SHL SUB NOT AND SWAP2 SWAP1 SWAP2 OR SWAP1 SSTORE PUSH1 0x84 CALLDATALOAD PUSH1 0x8 SSTORE PUSH1 0xB DUP1 SLOAD PUSH1 0xFF PUSH1 0xA8 SHL NOT AND PUSH1 0x1 PUSH1 0xA8 SHL OR SWAP1 SSTORE DUP1 RETURN JUMPDEST SWAP1 PUSH1 0x20 PUSH1 0x64 SWAP3 MLOAD SWAP2 PUSH3 0x461BCD PUSH1 0xE5 SHL DUP4 MSTORE DUP3 ADD MSTORE PUSH1 0x1C PUSH1 0x24 DUP3 ADD MSTORE PUSH32 0x436F6E747261637420616C726561647920696E697469616C697A656400000000 PUSH1 0x44 DUP3 ADD MSTORE REVERT JUMPDEST DUP4 DUP1 REVERT JUMPDEST DUP4 DUP3 CALLVALUE PUSH2 0x258 JUMPI DUP2 PUSH1 0x3 NOT CALLDATASIZE ADD SLT PUSH2 0x258 JUMPI PUSH1 0x20 SWAP1 PUSH1 0xFF PUSH1 0xC SLOAD PUSH1 0xA8 SHR AND SWAP1 MLOAD SWAP1 ISZERO ISZERO DUP2 MSTORE RETURN JUMPDEST DUP4 DUP3 CALLVALUE PUSH2 0x258 JUMPI DUP2 PUSH1 0x3 NOT CALLDATASIZE ADD SLT PUSH2 0x258 JUMPI MLOAD PUSH32 0x0 PUSH1 0x1 PUSH1 0x1 PUSH1 0xA0 SHL SUB AND DUP2 MSTORE PUSH1 0x20 SWAP1 RETURN JUMPDEST DUP4 DUP3 CALLVALUE PUSH2 0x258 JUMPI DUP2 PUSH1 0x3 NOT CALLDATASIZE ADD SLT PUSH2 0x258 JUMPI PUSH1 0x20 SWAP1 PUSH1 0xA SLOAD SWAP1 MLOAD SWAP1 DUP2 MSTORE RETURN JUMPDEST DUP4 DUP3 CALLVALUE PUSH2 0x258 JUMPI DUP2 PUSH1 0x3 NOT CALLDATASIZE ADD SLT PUSH2 0x258 JUMPI PUSH1 0x20 SWAP1 PUSH1 0xFF PUSH1 0xB SLOAD AND SWAP1 MLOAD SWAP1 ISZERO ISZERO DUP2 MSTORE RETURN JUMPDEST DUP4 DUP3 CALLVALUE PUSH2 0x258 JUMPI DUP2 PUSH1 0x3 NOT CALLDATASIZE ADD SLT PUSH2 0x258 JUMPI SWAP1 SLOAD SWAP1 MLOAD PUSH1 0x1 PUSH1 0x1 PUSH1 0xA0 SHL SUB SWAP1 SWAP2 AND DUP2 MSTORE PUSH1 0x20 SWAP1 RETURN JUMPDEST DUP4 DUP3 CALLVALUE PUSH2 0x258 JUMPI DUP2 PUSH1 0x3 NOT CALLDATASIZE ADD SLT PUSH2 0x258 JUMPI PUSH1 0x20 SWAP1 PUSH1 0x2 SLOAD SWAP1 MLOAD SWAP1 DUP2 MSTORE RETURN JUMPDEST DUP4 DUP3 CALLVALUE PUSH2 0x258 JUMPI DUP2 PUSH1 0x3 NOT CALLDATASIZE ADD SLT PUSH2 0x258 JUMPI PUSH1 0x20 SWAP1 MLOAD PUSH8 0x2C68AF0BB140000 DUP2 MSTORE RETURN JUMPDEST POP CALLVALUE PUSH2 0x22B JUMPI DUP3 PUSH1 0x3 NOT CALLDATASIZE ADD SLT PUSH2 0x22B JUMPI PUSH1 0xB SLOAD SWAP1 PUSH2 0x58A PUSH1 0xFF DUP4 PUSH1 0xA8 SHR AND PUSH2 0x1466 JUMP JUMPDEST PUSH1 0xFF DUP3 AND PUSH2 0x8BC JUMPI PUSH1 0x9 SLOAD PUSH1 0x1 PUSH1 0x1 PUSH1 0xA0 SHL SUB SWAP4 SWAP1 DUP5 AND SWAP3 DUP4 ISZERO PUSH2 0x862 JUMPI PUSH1 0x5 SLOAD TIMESTAMP LT ISZERO DUP1 PUSH2 0x856 JUMPI JUMPDEST ISZERO PUSH2 0x7D1 JUMPI PUSH1 0x1 PUSH1 0x1 PUSH1 0xA8 SHL SUB NOT AND CALLER PUSH1 0x8 SHL PUSH2 0x100 PUSH1 0x1 PUSH1 0xA8 SHL SUB AND OR PUSH1 0x1 OR PUSH1 0xB SSTORE DUP2 MLOAD PUSH4 0x3FABE5A3 PUSH1 0xE2 SHL DUP2 MSTORE SWAP3 PUSH1 0xA0 DUP5 DUP4 DUP2 PUSH32 0x0 DUP10 AND GAS STATICCALL SWAP4 DUP5 ISZERO PUSH2 0x7C7 JUMPI SWAP1 DUP6 SWAP2 DUP8 SWAP6 PUSH2 0x74A JUMPI JUMPDEST POP PUSH1 0x8 SLOAD DUP6 DUP1 DUP3 GT ISZERO PUSH2 0x73B JUMPI PUSH2 0x636 SWAP2 PUSH2 0x1545 JUMP JUMPDEST PUSH1 0xA SLOAD DUP7 DUP1 DUP3 GT ISZERO PUSH2 0x72B JUMPI PUSH2 0x64B SWAP2 PUSH2 0x1545 JUMP JUMPDEST SWAP1 JUMPDEST LT ISZERO PUSH2 0x726 JUMPI POP DUP1 PUSH1 0x7 SLOAD AND JUMPDEST AND PUSH12 0xFFFFFFFFFFFFFFFFFFFFFFFF PUSH1 0xA0 SHL PUSH1 0xC SLOAD AND OR PUSH1 0xC SSTORE SELFBALANCE SWAP1 DUP2 PUSH1 0x1 SHL SWAP2 DUP1 DUP4 DIV PUSH1 0x2 EQ SWAP1 ISZERO OR ISZERO PUSH2 0x713 JUMPI POP PUSH8 0x2C68AF0BB140000 SWAP1 PUSH1 0x64 SWAP1 DIV DUP2 DUP2 GT ISZERO PUSH2 0x70B JUMPI POP SWAP3 JUMPDEST DUP5 DUP1 DUP6 DUP1 ISZERO PUSH2 0x701 JUMPI JUMPDEST DUP3 DUP1 SWAP3 SWAP2 DUP2 SWAP3 CALLER SWAP1 CALL ISZERO PUSH2 0x6F7 JUMPI PUSH1 0xC SLOAD AND SWAP3 DUP2 MLOAD SWAP3 DUP4 MSTORE PUSH1 0x20 DUP4 ADD MSTORE TIMESTAMP SWAP1 DUP3 ADD MSTORE PUSH32 0x99FCEB45F3DC401528A4CA15034EF032931F71EA986225BF27986897985DD99C PUSH1 0x60 CALLER SWAP3 LOG3 DUP1 RETURN JUMPDEST DUP2 MLOAD RETURNDATASIZE DUP7 DUP3 RETURNDATACOPY RETURNDATASIZE SWAP1 REVERT JUMPDEST PUSH2 0x8FC SWAP2 POP PUSH2 0x6AC JUMP JUMPDEST SWAP1 POP SWAP3 PUSH2 0x6A2 JUMP JUMPDEST PUSH4 0x4E487B71 PUSH1 0xE0 SHL DUP7 MSTORE PUSH1 0x11 SWAP1 MSTORE PUSH1 0x24 DUP6 REVERT JUMPDEST PUSH2 0x65A JUMP JUMPDEST SWAP1 PUSH2 0x735 SWAP2 PUSH2 0x1545 JUMP JUMPDEST SWAP1 PUSH2 0x64D JUMP JUMPDEST SWAP1 PUSH2 0x745 SWAP2 PUSH2 0x1545 JUMP JUMPDEST PUSH2 0x636 JUMP JUMPDEST SWAP2 POP SWAP4 POP PUSH1 0xA0 RETURNDATASIZE DUP2 GT PUSH2 0x7C0 JUMPI JUMPDEST PUSH1 0x1F DUP2 ADD PUSH1 0x1F NOT AND DUP3 ADD PUSH8 0xFFFFFFFFFFFFFFFF DUP2 GT DUP4 DUP3 LT OR PUSH2 0x7AD JUMPI PUSH1 0xA0 SWAP2 DUP4 SWAP2 DUP7 MSTORE DUP2 ADD SUB SLT PUSH2 0x7A9 JUMPI DUP1 PUSH2 0x78F DUP7 SWAP3 PUSH2 0x1529 JUMP JUMPDEST POP PUSH2 0x7A1 PUSH1 0x80 PUSH1 0x20 DUP4 ADD MLOAD SWAP3 ADD PUSH2 0x1529 JUMP JUMPDEST POP SWAP4 CODESIZE PUSH2 0x620 JUMP JUMPDEST DUP6 DUP1 REVERT JUMPDEST PUSH4 0x4E487B71 PUSH1 0xE0 SHL DUP9 MSTORE PUSH1 0x41 DUP5 MSTORE PUSH1 0x24 DUP9 REVERT JUMPDEST POP RETURNDATASIZE PUSH2 0x758 JUMP JUMPDEST DUP4 MLOAD RETURNDATASIZE DUP9 DUP3 RETURNDATACOPY RETURNDATASIZE SWAP1 REVERT JUMPDEST POP PUSH1 0x20 PUSH1 0xA4 SWAP3 MLOAD SWAP2 PUSH3 0x461BCD PUSH1 0xE5 SHL DUP4 MSTORE DUP3 ADD MSTORE PUSH1 0x53 PUSH1 0x24 DUP3 ADD MSTORE PUSH32 0x4368616C6C656E67653A20546865206368616C6C656E6765206D757374206265 PUSH1 0x44 DUP3 ADD MSTORE PUSH32 0x20736574746C6564206265747765656E2074686520736574746C656D656E7420 PUSH1 0x64 DUP3 ADD MSTORE PUSH19 0x737461727420616E6420656E642074696D6573 PUSH1 0x68 SHL PUSH1 0x84 DUP3 ADD MSTORE REVERT JUMPDEST POP PUSH1 0x6 SLOAD TIMESTAMP GT ISZERO PUSH2 0x5B4 JUMP JUMPDEST POP PUSH1 0x20 PUSH1 0x84 SWAP3 MLOAD SWAP2 PUSH3 0x461BCD PUSH1 0xE5 SHL DUP4 MSTORE DUP3 ADD MSTORE PUSH1 0x2E PUSH1 0x24 DUP3 ADD MSTORE PUSH32 0x4368616C6C656E67653A20546865206368616C6C656E676520686173206E6F74 PUSH1 0x44 DUP3 ADD MSTORE PUSH14 0x81899595B881858D8D95C1D1959 PUSH1 0x92 SHL PUSH1 0x64 DUP3 ADD MSTORE REVERT JUMPDEST MLOAD PUSH3 0x461BCD PUSH1 0xE5 SHL DUP2 MSTORE PUSH1 0x20 DUP2 DUP5 ADD MSTORE PUSH1 0x31 PUSH1 0x24 DUP3 ADD MSTORE PUSH32 0x4368616C6C656E67653A20546865206368616C6C656E67652068617320616C72 PUSH1 0x44 DUP3 ADD MSTORE PUSH17 0x1958591E481899595B881CD95D1D1B1959 PUSH1 0x7A SHL PUSH1 0x64 DUP3 ADD MSTORE PUSH1 0x84 SWAP1 REVERT JUMPDEST DUP4 CALLVALUE PUSH2 0x38C JUMPI DUP1 PUSH1 0x3 NOT CALLDATASIZE ADD SLT PUSH2 0x38C JUMPI PUSH2 0x931 PUSH2 0x126E JUMP JUMPDEST DUP1 SLOAD PUSH1 0x1 PUSH1 0x1 PUSH1 0xA0 SHL SUB NOT DUP2 AND DUP3 SSTORE DUP2 SWAP1 PUSH1 0x1 PUSH1 0x1 PUSH1 0xA0 SHL SUB AND PUSH32 0x8BE0079C531659141344CD1FD0A4F28419497F9722A3DAAFE3B4186F6B6457E0 DUP3 DUP1 LOG3 DUP1 RETURN JUMPDEST DUP4 DUP3 CALLVALUE PUSH2 0x258 JUMPI DUP2 PUSH1 0x3 NOT CALLDATASIZE ADD SLT PUSH2 0x258 JUMPI PUSH1 0x20 SWAP1 PUSH1 0x5 SLOAD SWAP1 MLOAD SWAP1 DUP2 MSTORE RETURN JUMPDEST DUP4 DUP3 CALLVALUE PUSH2 0x258 JUMPI DUP2 PUSH1 0x3 NOT CALLDATASIZE ADD SLT PUSH2 0x258 JUMPI PUSH1 0x9 SLOAD SWAP1 MLOAD PUSH1 0x1 PUSH1 0x1 PUSH1 0xA0 SHL SUB SWAP1 SWAP2 AND DUP2 MSTORE PUSH1 0x20 SWAP1 RETURN JUMPDEST DUP4 DUP3 CALLVALUE PUSH2 0x258 JUMPI DUP2 PUSH1 0x3 NOT CALLDATASIZE ADD SLT PUSH2 0x258 JUMPI PUSH1 0x20 SWAP1 MLOAD PUSH1 0x2 DUP2 MSTORE RETURN JUMPDEST DUP4 DUP3 CALLVALUE PUSH2 0x258 JUMPI DUP2 PUSH1 0x3 NOT CALLDATASIZE ADD SLT PUSH2 0x258 JUMPI PUSH1 0x20 SWAP1 PUSH1 0x1 SLOAD SWAP1 MLOAD SWAP1 DUP2 MSTORE RETURN JUMPDEST DUP4 DUP3 CALLVALUE PUSH2 0x258 JUMPI DUP2 PUSH1 0x3 NOT CALLDATASIZE ADD SLT PUSH2 0x258 JUMPI PUSH1 0x20 SWAP1 PUSH1 0xFF PUSH1 0xC SLOAD PUSH1 0xA0 SHR AND SWAP1 MLOAD SWAP1 ISZERO ISZERO DUP2 MSTORE RETURN JUMPDEST DUP4 DUP3 CALLVALUE PUSH2 0x258 JUMPI DUP2 PUSH1 0x3 NOT CALLDATASIZE ADD SLT PUSH2 0x258 JUMPI PUSH1 0xB SLOAD SWAP1 MLOAD PUSH1 0x8 SWAP2 SWAP1 SWAP2 SHR PUSH1 0x1 PUSH1 0x1 PUSH1 0xA0 SHL SUB AND DUP2 MSTORE PUSH1 0x20 SWAP1 RETURN JUMPDEST POP SWAP1 CALLVALUE PUSH2 0x22B JUMPI DUP3 PUSH1 0x3 NOT CALLDATASIZE ADD SLT PUSH2 0x22B JUMPI PUSH1 0xB SLOAD PUSH1 0xFF AND ISZERO PUSH2 0xB63 JUMPI PUSH1 0xC SLOAD PUSH1 0x1 PUSH1 0x1 PUSH1 0xA0 SHL SUB AND CALLER SUB PUSH2 0xAD5 JUMPI POP SELFBALANCE SWAP1 DUP3 DUP1 DUP4 DUP1 ISZERO PUSH2 0xACB JUMPI JUMPDEST DUP3 DUP1 SWAP3 SWAP2 DUP2 SWAP3 CALLER SWAP1 CALL ISZERO PUSH2 0xAC0 JUMPI MLOAD SWAP1 DUP2 MSTORE PUSH32 0x58B581E2433B8B02263F5B0E5C2889FCB7B3495112884A3147619038FBA46D8 PUSH1 0x20 CALLER SWAP3 LOG2 DUP1 RETURN JUMPDEST MLOAD SWAP2 RETURNDATASIZE SWAP2 POP DUP3 RETURNDATACOPY RETURNDATASIZE SWAP1 REVERT JUMPDEST PUSH2 0x8FC SWAP2 POP PUSH2 0xA85 JUMP JUMPDEST PUSH1 0x20 PUSH1 0xA4 SWAP3 MLOAD SWAP2 PUSH3 0x461BCD PUSH1 0xE5 SHL DUP4 MSTORE DUP3 ADD MSTORE PUSH1 0x5F PUSH1 0x24 DUP3 ADD MSTORE PUSH32 0x4368616C6C656E67653A204F6E6C79207468652077696E6E65722063616E2077 PUSH1 0x44 DUP3 ADD MSTORE PUSH32 0x69746864726177207468652072656D61696E696E672062616C616E6365206173 PUSH1 0x64 DUP3 ADD MSTORE PUSH32 0x20746865206368616C6C656E676520686173206265656E20736574746C656400 PUSH1 0x84 DUP3 ADD MSTORE REVERT JUMPDEST PUSH1 0x6 SLOAD TIMESTAMP GT ISZERO PUSH2 0xDC2 JUMPI PUSH1 0x7 SLOAD PUSH1 0x1 PUSH1 0x1 PUSH1 0xA0 SHL SUB SWAP1 CALLER SWAP1 DUP3 AND SUB PUSH2 0xC6B JUMPI POP PUSH1 0xC SLOAD SWAP1 PUSH1 0xFF DUP3 PUSH1 0xA0 SHR AND PUSH2 0xC02 JUMPI POP PUSH1 0xFF PUSH1 0xA0 SHL NOT AND PUSH1 0x1 PUSH1 0xA0 SHL OR PUSH1 0xC SSTORE PUSH1 0x3 SLOAD DUP3 SWAP1 DUP2 SWAP1 DUP2 SWAP1 DUP2 SWAP1 DUP2 DUP2 ISZERO PUSH2 0xBF9 JUMPI JUMPDEST CALLER SWAP1 CALL ISZERO PUSH2 0xBEF JUMPI PUSH1 0x3 SLOAD SWAP1 MLOAD SWAP1 DUP2 MSTORE PUSH32 0x58B581E2433B8B02263F5B0E5C2889FCB7B3495112884A3147619038FBA46D8 PUSH1 0x20 CALLER SWAP3 LOG2 DUP1 RETURN JUMPDEST MLOAD SWAP1 RETURNDATASIZE SWAP1 DUP3 RETURNDATACOPY RETURNDATASIZE SWAP1 REVERT JUMPDEST POP PUSH2 0x8FC PUSH2 0xBB6 JUMP JUMPDEST PUSH1 0x84 SWAP1 PUSH1 0x20 DUP5 MLOAD SWAP2 PUSH3 0x461BCD PUSH1 0xE5 SHL DUP4 MSTORE DUP3 ADD MSTORE PUSH1 0x3C PUSH1 0x24 DUP3 ADD MSTORE PUSH32 0x4368616C6C656E67653A205468652063726561746F722068617320616C726561 PUSH1 0x44 DUP3 ADD MSTORE PUSH32 0x64792077697468647261776E20746865697220656E7472792066656500000000 PUSH1 0x64 DUP3 ADD MSTORE REVERT JUMPDEST PUSH1 0x9 SLOAD AND CALLER EQ PUSH1 0x0 EQ PUSH2 0xD4C JUMPI PUSH1 0xC SLOAD SWAP1 PUSH1 0xFF DUP3 PUSH1 0xA8 SHR AND PUSH2 0xCE3 JUMPI POP PUSH1 0xFF PUSH1 0xA8 SHL NOT AND PUSH1 0x1 PUSH1 0xA8 SHL OR PUSH1 0xC SSTORE PUSH1 0x3 SLOAD DUP3 SWAP1 DUP2 SWAP1 DUP2 SWAP1 DUP2 SWAP1 DUP2 DUP2 ISZERO PUSH2 0xBF9 JUMPI CALLER SWAP1 CALL ISZERO PUSH2 0xBEF JUMPI PUSH1 0x3 SLOAD SWAP1 MLOAD SWAP1 DUP2 MSTORE PUSH32 0x58B581E2433B8B02263F5B0E5C2889FCB7B3495112884A3147619038FBA46D8 PUSH1 0x20 CALLER SWAP3 LOG2 DUP1 RETURN JUMPDEST PUSH1 0x84 SWAP1 PUSH1 0x20 DUP5 MLOAD SWAP2 PUSH3 0x461BCD PUSH1 0xE5 SHL DUP4 MSTORE DUP3 ADD MSTORE PUSH1 0x3F PUSH1 0x24 DUP3 ADD MSTORE PUSH32 0x4368616C6C656E67653A20546865206368616C6C656E6765722068617320616C PUSH1 0x44 DUP3 ADD MSTORE PUSH32 0x72656164792077697468647261776E20746865697220656E7472792066656500 PUSH1 0x64 DUP3 ADD MSTORE REVERT JUMPDEST PUSH1 0x20 PUSH1 0xA4 SWAP3 MLOAD SWAP2 PUSH3 0x461BCD PUSH1 0xE5 SHL DUP4 MSTORE DUP3 ADD MSTORE PUSH1 0x45 PUSH1 0x24 DUP3 ADD MSTORE PUSH32 0x4368616C6C656E67653A204F6E6C79207468652077696E6E6572206F72206368 PUSH1 0x44 DUP3 ADD MSTORE PUSH32 0x616C6C656E6765722063616E20776974686472617720746865697220656E7472 PUSH1 0x64 DUP3 ADD MSTORE PUSH5 0x7920666565 PUSH1 0xD8 SHL PUSH1 0x84 DUP3 ADD MSTORE REVERT JUMPDEST PUSH1 0x20 PUSH1 0xA4 SWAP3 MLOAD SWAP2 PUSH3 0x461BCD PUSH1 0xE5 SHL DUP4 MSTORE DUP3 ADD MSTORE PUSH1 0x5C PUSH1 0x24 DUP3 ADD MSTORE PUSH32 0x4368616C6C656E67653A20546865206368616C6C656E676520686173206E6F74 PUSH1 0x44 DUP3 ADD MSTORE PUSH32 0x206265656E20736574746C6564207965742C20706C6561736520776169742075 PUSH1 0x64 DUP3 ADD MSTORE PUSH32 0x6E74696C2074686520736574746C656D656E7420656E642074696D6500000000 PUSH1 0x84 DUP3 ADD MSTORE REVERT JUMPDEST DUP4 DUP3 CALLVALUE PUSH2 0x258 JUMPI DUP2 PUSH1 0x3 NOT CALLDATASIZE ADD SLT PUSH2 0x258 JUMPI PUSH1 0x20 SWAP1 PUSH1 0x6 SLOAD SWAP1 MLOAD SWAP1 DUP2 MSTORE RETURN JUMPDEST DUP4 DUP3 CALLVALUE PUSH2 0x258 JUMPI DUP2 PUSH1 0x3 NOT CALLDATASIZE ADD SLT PUSH2 0x258 JUMPI PUSH2 0x388 SWAP1 PUSH2 0xE8D PUSH2 0x12F8 JUMP JUMPDEST SWAP1 MLOAD SWAP2 DUP3 SWAP2 PUSH1 0x20 DUP4 MSTORE PUSH1 0x20 DUP4 ADD SWAP1 PUSH2 0x122E JUMP JUMPDEST POP PUSH1 0x20 CALLDATASIZE PUSH1 0x3 NOT ADD SLT PUSH2 0x22B JUMPI DUP2 CALLDATALOAD SWAP2 PUSH2 0xEC1 PUSH1 0xFF PUSH1 0xB SLOAD PUSH1 0xA8 SHR AND PUSH2 0x1466 JUMP JUMPDEST PUSH1 0x9 SLOAD SWAP1 PUSH2 0xED8 PUSH1 0x1 PUSH1 0x1 PUSH1 0xA0 SHL SUB DUP4 AND ISZERO PUSH2 0x14C2 JUMP JUMPDEST DUP1 SLOAD TIMESTAMP GT PUSH2 0x101C JUMPI PUSH1 0x3 SLOAD CALLVALUE SUB PUSH2 0xFB3 JUMPI PUSH1 0x8 SLOAD DUP5 EQ PUSH2 0xF3B JUMPI POP CALLER SWAP1 PUSH12 0xFFFFFFFFFFFFFFFFFFFFFFFF PUSH1 0xA0 SHL AND OR PUSH1 0x9 SSTORE DUP2 PUSH1 0xA SSTORE MLOAD SWAP1 DUP2 MSTORE PUSH32 0x198848172490C9CEDE6F00B7D3D59D018F0BC4715A37F81B8CE39CC7807369AD PUSH1 0x20 CALLER SWAP3 LOG2 DUP1 RETURN JUMPDEST PUSH1 0xA4 SWAP1 PUSH1 0x20 DUP5 MLOAD SWAP2 PUSH3 0x461BCD PUSH1 0xE5 SHL DUP4 MSTORE DUP3 ADD MSTORE PUSH1 0x46 PUSH1 0x24 DUP3 ADD MSTORE PUSH32 0x4368616C6C656E67653A20546865206368616C6C656E6765722063616E6E6F74 PUSH1 0x44 DUP3 ADD MSTORE PUSH32 0x2070726564696374207468652073616D652076616C7565206173207468652063 PUSH1 0x64 DUP3 ADD MSTORE PUSH6 0x3932B0BA37B9 PUSH1 0xD1 SHL PUSH1 0x84 DUP3 ADD MSTORE REVERT JUMPDEST PUSH1 0x84 SWAP1 PUSH1 0x20 DUP5 MLOAD SWAP2 PUSH3 0x461BCD PUSH1 0xE5 SHL DUP4 MSTORE DUP3 ADD MSTORE PUSH1 0x3D PUSH1 0x24 DUP3 ADD MSTORE PUSH32 0x4368616C6C656E67653A2054686520656E74727920666565206D757374206265 PUSH1 0x44 DUP3 ADD MSTORE PUSH32 0x207061696420746F2061636365707420746865206368616C6C656E6765000000 PUSH1 0x64 DUP3 ADD MSTORE REVERT JUMPDEST PUSH1 0xA4 SWAP1 PUSH1 0x20 DUP5 MLOAD SWAP2 PUSH3 0x461BCD PUSH1 0xE5 SHL DUP4 MSTORE DUP3 ADD MSTORE PUSH1 0x48 PUSH1 0x24 DUP3 ADD MSTORE PUSH32 0x4368616C6C656E67653A20546865206368616C6C656E676572206D7573742061 PUSH1 0x44 DUP3 ADD MSTORE PUSH32 0x636365707420746865206368616C6C656E6765206265666F726520746865206C PUSH1 0x64 DUP3 ADD MSTORE PUSH8 0x6F636B2074696D65 PUSH1 0xC0 SHL PUSH1 0x84 DUP3 ADD MSTORE REVERT JUMPDEST DUP4 DUP3 CALLVALUE PUSH2 0x258 JUMPI DUP2 PUSH1 0x3 NOT CALLDATASIZE ADD SLT PUSH2 0x258 JUMPI PUSH1 0x20 SWAP1 PUSH1 0x8 SLOAD SWAP1 MLOAD SWAP1 DUP2 MSTORE RETURN JUMPDEST POP SWAP1 CALLVALUE PUSH2 0x22B JUMPI DUP3 PUSH1 0x3 NOT CALLDATASIZE ADD SLT PUSH2 0x22B JUMPI PUSH1 0x20 SWAP3 POP SLOAD SWAP1 MLOAD SWAP1 DUP2 MSTORE RETURN JUMPDEST POP SWAP1 CALLVALUE PUSH2 0x22B JUMPI DUP3 PUSH1 0x3 NOT CALLDATASIZE ADD SLT PUSH2 0x22B JUMPI PUSH1 0x7 SLOAD PUSH1 0x1 PUSH1 0x1 PUSH1 0xA0 SHL SUB SWAP2 SWAP1 DUP3 AND CALLER SUB PUSH2 0x1163 JUMPI POP PUSH2 0x1109 SWAP1 PUSH1 0x9 SLOAD AND ISZERO PUSH2 0x14C2 JUMP JUMPDEST PUSH1 0xFF PUSH1 0xA8 SHL NOT PUSH1 0xB SLOAD AND PUSH1 0xB SSTORE DUP2 DUP1 DUP1 DUP1 PUSH1 0x3 SLOAD DUP2 DUP2 ISZERO PUSH2 0x115A JUMPI JUMPDEST CALLER SWAP1 CALL ISZERO PUSH2 0xBEF JUMPI MLOAD TIMESTAMP DUP2 MSTORE PUSH32 0xA5FB4D351DD980E5A412299EC0C40298D0D5289B3D64C10773B3D667D54DA199 PUSH1 0x20 CALLER SWAP3 LOG2 DUP1 RETURN JUMPDEST POP PUSH2 0x8FC PUSH2 0x1125 JUMP JUMPDEST PUSH1 0x84 SWAP1 PUSH1 0x20 DUP5 MLOAD SWAP2 PUSH3 0x461BCD PUSH1 0xE5 SHL DUP4 MSTORE DUP3 ADD MSTORE PUSH1 0x34 PUSH1 0x24 DUP3 ADD MSTORE PUSH32 0x4368616C6C656E67653A204F6E6C79207468652063726561746F722063616E20 PUSH1 0x44 DUP3 ADD MSTORE PUSH20 0x63616E63656C20746865206368616C6C656E6765 PUSH1 0x60 SHL PUSH1 0x64 DUP3 ADD MSTORE REVERT JUMPDEST DUP4 DUP3 CALLVALUE PUSH2 0x258 JUMPI DUP2 PUSH1 0x3 NOT CALLDATASIZE ADD SLT PUSH2 0x258 JUMPI PUSH1 0x20 SWAP1 PUSH1 0x3 SLOAD SWAP1 MLOAD SWAP1 DUP2 MSTORE RETURN JUMPDEST DUP4 DUP3 CALLVALUE PUSH2 0x258 JUMPI DUP2 PUSH1 0x3 NOT CALLDATASIZE ADD SLT PUSH2 0x258 JUMPI PUSH1 0x20 SWAP1 PUSH1 0xFF PUSH1 0xB SLOAD PUSH1 0xA8 SHR AND SWAP1 MLOAD SWAP1 ISZERO ISZERO DUP2 MSTORE RETURN JUMPDEST DUP5 SWAP1 CALLVALUE PUSH2 0x258 JUMPI DUP2 PUSH1 0x3 NOT CALLDATASIZE ADD SLT PUSH2 0x258 JUMPI PUSH1 0x7 SLOAD PUSH1 0x1 PUSH1 0x1 PUSH1 0xA0 SHL SUB AND DUP2 MSTORE PUSH1 0x20 SWAP1 RETURN JUMPDEST SWAP2 SWAP1 DUP3 MLOAD SWAP3 DUP4 DUP3 MSTORE PUSH1 0x0 JUMPDEST DUP5 DUP2 LT PUSH2 0x125A JUMPI POP POP DUP3 PUSH1 0x0 PUSH1 0x20 DUP1 SWAP5 SWAP6 DUP5 ADD ADD MSTORE PUSH1 0x1F DUP1 NOT SWAP2 ADD AND ADD ADD SWAP1 JUMP JUMPDEST PUSH1 0x20 DUP2 DUP4 ADD DUP2 ADD MLOAD DUP5 DUP4 ADD DUP3 ADD MSTORE ADD PUSH2 0x1239 JUMP JUMPDEST PUSH1 0x0 SLOAD PUSH1 0x1 PUSH1 0x1 PUSH1 0xA0 SHL SUB AND CALLER SUB PUSH2 0x1282 JUMPI JUMP JUMPDEST PUSH1 0x64 PUSH1 0x40 MLOAD PUSH3 0x461BCD PUSH1 0xE5 SHL DUP2 MSTORE PUSH1 0x20 PUSH1 0x4 DUP3 ADD MSTORE PUSH1 0x20 PUSH1 0x24 DUP3 ADD MSTORE PUSH32 0x4F776E61626C653A2063616C6C6572206973206E6F7420746865206F776E6572 PUSH1 0x44 DUP3 ADD MSTORE REVERT JUMPDEST PUSH1 0x40 DUP2 ADD SWAP1 DUP2 LT PUSH8 0xFFFFFFFFFFFFFFFF DUP3 GT OR PUSH2 0x12E2 JUMPI PUSH1 0x40 MSTORE JUMP JUMPDEST PUSH4 0x4E487B71 PUSH1 0xE0 SHL PUSH1 0x0 MSTORE PUSH1 0x41 PUSH1 0x4 MSTORE PUSH1 0x24 PUSH1 0x0 REVERT JUMPDEST PUSH1 0xB SLOAD PUSH1 0xFF DUP2 PUSH1 0xA8 SHR AND ISZERO PUSH1 0x0 EQ PUSH2 0x132F JUMPI POP PUSH1 0x40 MLOAD PUSH2 0x1317 DUP2 PUSH2 0x12C6 JUMP JUMPDEST PUSH1 0x8 DUP2 MSTORE PUSH8 0x494E414354495645 PUSH1 0xC0 SHL PUSH1 0x20 DUP3 ADD MSTORE SWAP1 JUMP JUMPDEST PUSH1 0xFF AND ISZERO PUSH2 0x135A JUMPI PUSH1 0x40 MLOAD PUSH2 0x1343 DUP2 PUSH2 0x12C6 JUMP JUMPDEST PUSH1 0x7 DUP2 MSTORE PUSH7 0x14D15515131151 PUSH1 0xCA SHL PUSH1 0x20 DUP3 ADD MSTORE SWAP1 JUMP JUMPDEST PUSH1 0x9 SLOAD PUSH1 0x1 PUSH1 0x1 PUSH1 0xA0 SHL SUB AND PUSH2 0x13BC JUMPI PUSH1 0x4 SLOAD TIMESTAMP GT PUSH2 0x139C JUMPI PUSH1 0x40 MLOAD PUSH2 0x137F DUP2 PUSH2 0x12C6 JUMP JUMPDEST PUSH1 0xD DUP2 MSTORE PUSH13 0x4348414C4C454E474541424C45 PUSH1 0x98 SHL PUSH1 0x20 DUP3 ADD MSTORE SWAP1 JUMP JUMPDEST PUSH1 0x40 MLOAD PUSH2 0x13A8 DUP2 PUSH2 0x12C6 JUMP JUMPDEST PUSH1 0x4 DUP2 MSTORE PUSH4 0x1593D251 PUSH1 0xE2 SHL PUSH1 0x20 DUP3 ADD MSTORE SWAP1 JUMP JUMPDEST PUSH1 0x4 SLOAD TIMESTAMP GT PUSH2 0x13E9 JUMPI PUSH1 0x40 MLOAD PUSH2 0x13D1 DUP2 PUSH2 0x12C6 JUMP JUMPDEST PUSH1 0x8 DUP2 MSTORE PUSH8 0x1050D0D154151151 PUSH1 0xC2 SHL PUSH1 0x20 DUP3 ADD MSTORE SWAP1 JUMP JUMPDEST PUSH1 0x5 SLOAD TIMESTAMP GT PUSH2 0x1414 JUMPI PUSH1 0x40 MLOAD PUSH2 0x13FE DUP2 PUSH2 0x12C6 JUMP JUMPDEST PUSH1 0x6 DUP2 MSTORE PUSH6 0x1313D0D2D151 PUSH1 0xD2 SHL PUSH1 0x20 DUP3 ADD MSTORE SWAP1 JUMP JUMPDEST PUSH1 0x6 SLOAD TIMESTAMP GT PUSH2 0x1443 JUMPI PUSH1 0x40 MLOAD PUSH2 0x1429 DUP2 PUSH2 0x12C6 JUMP JUMPDEST PUSH1 0xA DUP2 MSTORE PUSH10 0x534554544C4541424C45 PUSH1 0xB0 SHL PUSH1 0x20 DUP3 ADD MSTORE SWAP1 JUMP JUMPDEST PUSH1 0x40 MLOAD PUSH2 0x144F DUP2 PUSH2 0x12C6 JUMP JUMPDEST PUSH1 0x7 DUP2 MSTORE PUSH7 0x11561412549151 PUSH1 0xCA SHL PUSH1 0x20 DUP3 ADD MSTORE SWAP1 JUMP JUMPDEST ISZERO PUSH2 0x146D JUMPI JUMP JUMPDEST PUSH1 0x40 MLOAD PUSH3 0x461BCD PUSH1 0xE5 SHL DUP2 MSTORE PUSH1 0x20 PUSH1 0x4 DUP3 ADD MSTORE PUSH1 0x27 PUSH1 0x24 DUP3 ADD MSTORE PUSH32 0x4368616C6C656E67653A20546865206368616C6C656E6765206D757374206265 PUSH1 0x44 DUP3 ADD MSTORE PUSH7 0x20616374697665 PUSH1 0xC8 SHL PUSH1 0x64 DUP3 ADD MSTORE PUSH1 0x84 SWAP1 REVERT JUMPDEST ISZERO PUSH2 0x14C9 JUMPI JUMP JUMPDEST PUSH1 0x40 MLOAD PUSH3 0x461BCD PUSH1 0xE5 SHL DUP2 MSTORE PUSH1 0x20 PUSH1 0x4 DUP3 ADD MSTORE PUSH1 0x32 PUSH1 0x24 DUP3 ADD MSTORE PUSH32 0x4368616C6C656E67653A20546865206368616C6C656E67652068617320616C72 PUSH1 0x44 DUP3 ADD MSTORE PUSH18 0x1958591E481899595B881858D8D95C1D1959 PUSH1 0x72 SHL PUSH1 0x64 DUP3 ADD MSTORE PUSH1 0x84 SWAP1 REVERT JUMPDEST MLOAD SWAP1 PUSH10 0xFFFFFFFFFFFFFFFFFFFF DUP3 AND DUP3 SUB PUSH2 0x1540 JUMPI JUMP JUMPDEST PUSH1 0x0 DUP1 REVERT JUMPDEST SWAP2 SWAP1 DUP3 SUB SWAP2 DUP3 GT PUSH2 0x1552 JUMPI JUMP JUMPDEST PUSH4 0x4E487B71 PUSH1 0xE0 SHL PUSH1 0x0 MSTORE PUSH1 0x11 PUSH1 0x4 MSTORE PUSH1 0x24 PUSH1 0x0 REVERT INVALID LOG2 PUSH5 0x6970667358 0x22 SLT KECCAK256 0xB3 CREATE2 0x4E PUSH18 0xEB05C45E92030F411332461C332258F2582E 0x23 0xC8 0xB6 0xD SWAP7 0xB6 PUSH18 0x1A462F64736F6C6343000812003300000000 "},"methodIdentifiers":{"challengeImplementation()":"242fdb91","createChallenge(uint256,uint256,uint256)":"51d2f246","ethPriceFeedAddress()":"8add9f06","getFactoryDetails()":"232b22fa","maxChallengeDuration()":"d2177bdd","maxLockDuration()":"a16cdbb1","minChallengeDuration()":"40cfc3b1","minEntryFee()":"76e5b862","minLockDuration()":"d6a298e9","owner()":"8da5cb5b","renounceOwnership()":"715018a6","settlementDuration()":"57692213","startBlock()":"48cd4cb1","transferOwnership(address)":"f2fde38b"}}}}}