{"contracts/ChallengeFactory.sol":{"ChallengeFactory":{"abi":[{"inputs":[{"internalType":"uint256","name":"_minEntryFee","type":"uint256"},{"internalType":"uint256","name":"_minChallengeDuration","type":"uint256"},{"internalType":"uint256","name":"_maxChallengeDuration","type":"uint256"},{"internalType":"uint256","name":"_minLockDuration","type":"uint256"},{"internalType":"uint256","name":"_maxLockDuration","type":"uint256"},{"internalType":"uint256","name":"_settlementDuration","type":"uint256"},{"internalType":"address","name":"_ethPriceFeedAddress","type":"address"}],"stateMutability":"nonpayable","type":"constructor"},{"anonymous":false,"inputs":[{"indexed":true,"internalType":"address","name":"creatorAddress","type":"address"},{"indexed":true,"internalType":"address","name":"challengeAddress","type":"address"},{"indexed":true,"internalType":"uint256","name":"lockTime","type":"uint256"},{"indexed":false,"internalType":"uint256","name":"entryFee","type":"uint256"},{"indexed":false,"internalType":"uint256","name":"settlementStartTime","type":"uint256"},{"indexed":false,"internalType":"uint256","name":"settlementEndTime","type":"uint256"},{"indexed":false,"internalType":"uint256","name":"creatorPrediction","type":"uint256"}],"name":"ChallengeCreated","type":"event"},{"anonymous":false,"inputs":[{"indexed":true,"internalType":"address","name":"previousOwner","type":"address"},{"indexed":true,"internalType":"address","name":"newOwner","type":"address"}],"name":"OwnershipTransferred","type":"event"},{"inputs":[],"name":"challengeImplementation","outputs":[{"internalType":"address","name":"","type":"address"}],"stateMutability":"view","type":"function"},{"inputs":[{"internalType":"uint256","name":"_creatorPrediction","type":"uint256"},{"internalType":"uint256","name":"_lockTime","type":"uint256"},{"internalType":"uint256","name":"_settlementStartTime","type":"uint256"}],"name":"createChallenge","outputs":[],"stateMutability":"payable","type":"function"},{"inputs":[],"name":"ethPriceFeedAddress","outputs":[{"internalType":"address","name":"","type":"address"}],"stateMutability":"view","type":"function"},{"inputs":[],"name":"getFactoryDetails","outputs":[{"internalType":"address","name":"_owner","type":"address"},{"internalType":"uint256","name":"_startBlock","type":"uint256"},{"internalType":"uint256","name":"_minEntryFee","type":"uint256"},{"internalType":"uint256","name":"_minChallengeDuration","type":"uint256"},{"internalType":"uint256","name":"_maxChallengeDuration","type":"uint256"},{"internalType":"uint256","name":"_minLockDuration","type":"uint256"},{"internalType":"uint256","name":"_maxLockDuration","type":"uint256"},{"internalType":"uint256","name":"_settlementDuration","type":"uint256"},{"internalType":"address","name":"_challengeImplementation","type":"address"},{"internalType":"address","name":"_ethPriceFeedAddress","type":"address"}],"stateMutability":"view","type":"function"},{"inputs":[],"name":"maxChallengeDuration","outputs":[{"internalType":"uint256","name":"","type":"uint256"}],"stateMutability":"view","type":"function"},{"inputs":[],"name":"maxLockDuration","outputs":[{"internalType":"uint256","name":"","type":"uint256"}],"stateMutability":"view","type":"function"},{"inputs":[],"name":"minChallengeDuration","outputs":[{"internalType":"uint256","name":"","type":"uint256"}],"stateMutability":"view","type":"function"},{"inputs":[],"name":"minEntryFee","outputs":[{"internalType":"uint256","name":"","type":"uint256"}],"stateMutability":"view","type":"function"},{"inputs":[],"name":"minLockDuration","outputs":[{"internalType":"uint256","name":"","type":"uint256"}],"stateMutability":"view","type":"function"},{"inputs":[],"name":"owner","outputs":[{"internalType":"address","name":"","type":"address"}],"stateMutability":"view","type":"function"},{"inputs":[],"name":"renounceOwnership","outputs":[],"stateMutability":"nonpayable","type":"function"},{"inputs":[],"name":"settlementDuration","outputs":[{"internalType":"uint256","name":"","type":"uint256"}],"stateMutability":"view","type":"function"},{"inputs":[],"name":"startBlock","outputs":[{"internalType":"uint256","name":"","type":"uint256"}],"stateMutability":"view","type":"function"},{"inputs":[{"internalType":"address","name":"newOwner","type":"address"}],"name":"transferOwnership","outputs":[],"stateMutability":"nonpayable","type":"function"}],"evm":{"bytecode":{"linkReferences":{},"object":"6101a0346101f8576001600160401b03601f61162a38819003918201601f1916840191838311858410176101fd5780859260e0946040528339810103126101f857815190602083015160408401519360608101519460808201519460c060a08401519301519460018060a01b0392838716908188036101f85760008054336001600160a01b0319821681178355604051929992969188167f8be0079c531659141344cd1fd0a4f28419497f9722a3daafe3b4186f6b6457e08b80a34360805260a05260c05260e052610100988952610120978852610140948552610180968752610936838101928311848410176101e457918391602093610cf48439815203019084f09283156101d857506101609216825260405193610ae09586610214873960805186818161080c01526108d5015260a0518681816102cd015281816103a701526108fb015260c0518681816103d1015281816108470152610920015260e0518681816101eb0152818161040101526109460152518581816101ac01528181610431015261096c0152518481816102260152818161046101526109920152518381816103650152818161049101526109b80152518281816104b80152818161087f01526109df0152518181816102860152610a070152f35b604051903d90823e3d90fd5b634e487b7160e01b87526041600452602487fd5b600080fd5b634e487b7160e01b600052604160045260246000fdfe608060408181526004908136101561001657600080fd5b600092833560e01c908163232b22fa146108ae57508063242fdb911461086a57806340cfc3b11461082f57806348cd4cb1146107f457806351d2f24614610388578063576922131461034d578063715018a6146102f057806376e5b862146102b55780638add9f06146102715780638da5cb5b14610249578063a16cdbb11461020e578063d2177bdd146101d3578063d6a298e9146101945763f2fde38b146100be57600080fd5b34610190576020366003190112610190576001600160a01b0382358181169391929084900361018c576100ef610a2f565b831561013a575050600054826bffffffffffffffffffffffff60a01b821617600055167f8be0079c531659141344cd1fd0a4f28419497f9722a3daafe3b4186f6b6457e0600080a380f35b906020608492519162461bcd60e51b8352820152602660248201527f4f776e61626c653a206e6577206f776e657220697320746865207a65726f206160448201526564647265737360d01b6064820152fd5b8480fd5b8280fd5b8382346101cf57816003193601126101cf57602090517f00000000000000000000000000000000000000000000000000000000000000008152f35b5080fd5b8382346101cf57816003193601126101cf57602090517f00000000000000000000000000000000000000000000000000000000000000008152f35b8382346101cf57816003193601126101cf57602090517f00000000000000000000000000000000000000000000000000000000000000008152f35b8382346101cf57816003193601126101cf57905490516001600160a01b039091168152602090f35b8382346101cf57816003193601126101cf57517f00000000000000000000000000000000000000000000000000000000000000006001600160a01b03168152602090f35b8382346101cf57816003193601126101cf57602090517f00000000000000000000000000000000000000000000000000000000000000008152f35b833461034a578060031936011261034a57610309610a2f565b600080546001600160a01b0319811682556001600160a01b03167f8be0079c531659141344cd1fd0a4f28419497f9722a3daafe3b4186f6b6457e08280a380f35b80fd5b8382346101cf57816003193601126101cf57602090517f00000000000000000000000000000000000000000000000000000000000000008152f35b50906060366003190112610190578035916024928335936044928335937f0000000000000000000000000000000000000000000000000000000000000000341061079b576103f67f000000000000000000000000000000000000000000000000000000000000000042610a87565b8710610745576104267f000000000000000000000000000000000000000000000000000000000000000042610a87565b87116106f0576104567f000000000000000000000000000000000000000000000000000000000000000088610a87565b8510610689576104867f000000000000000000000000000000000000000000000000000000000000000088610a87565b8511610622576104b67f000000000000000000000000000000000000000000000000000000000000000086610a87565b7f0000000000000000000000000000000000000000000000000000000000000000608881901c62ffffff16763d602d80600a3d3981f3363d3d373d3d3d363d73000000178a5260781b6e5af43d82803e903d91602b57fd5bf317602052926001600160a01b03603760098bf0169687156105e957873b156105e5578484519363641c889d60e11b85528a838601528884860152840152336064840152856084840152898360a481348c5af180156105db576105ab575b505050805193348552602085015283015260608201527f5dcce9e35be7747873834045bc817ee442f32112f4c92e2249af12541c40b49f60803392a480f35b67ffffffffffffffff839a949a116105ca57505087529538808061056c565b634e487b7160e01b84526041905282fd5b84513d8c823e3d90fd5b8980fd5b91601675115490cc4c4d8dce8818dc99585d194819985a5b195960521b926020606496519562461bcd60e51b8752860152840152820152fd5b7f4368616c6c656e6765466163746f72793a2054686520736574746c656d656e7490603760849460208995519562461bcd60e51b87528601528401528201527f2073746172742074696d6520697320746f6f206c6174650000000000000000006064820152fd5b7f4368616c6c656e6765466163746f72793a2054686520736574746c656d656e7490603860849460208995519562461bcd60e51b87528601528401528201527f2073746172742074696d6520697320746f6f206561726c7900000000000000006064820152fd5b7f4368616c6c656e6765466163746f72793a20546865206c6f636b2074696d652090602b60849460208995519562461bcd60e51b87528601528401528201526a697320746f6f206c61746560a81b6064820152fd5b7f4368616c6c656e6765466163746f72793a20546865206c6f636b2074696d652090602c60849460208995519562461bcd60e51b87528601528401528201526b697320746f6f206561726c7960a01b6064820152fd5b7f4368616c6c656e6765466163746f72793a2054686520656e747279206665652090602f60849460208995519562461bcd60e51b87528601528401528201526e73656e7420697320746f6f206c6f7760881b6064820152fd5b8382346101cf57816003193601126101cf57602090517f00000000000000000000000000000000000000000000000000000000000000008152f35b8382346101cf57816003193601126101cf57602090517f00000000000000000000000000000000000000000000000000000000000000008152f35b8382346101cf57816003193601126101cf57517f00000000000000000000000000000000000000000000000000000000000000006001600160a01b03168152602090f35b92505034610190578260031936011261019057916101409260018060a01b038092541683527f000000000000000000000000000000000000000000000000000000000000000060208401527f0000000000000000000000000000000000000000000000000000000000000000908301527f000000000000000000000000000000000000000000000000000000000000000060608301527f000000000000000000000000000000000000000000000000000000000000000060808301527f000000000000000000000000000000000000000000000000000000000000000060a08301527f000000000000000000000000000000000000000000000000000000000000000060c08301527f000000000000000000000000000000000000000000000000000000000000000060e0830152807f0000000000000000000000000000000000000000000000000000000000000000166101008301527f000000000000000000000000000000000000000000000000000000000000000016610120820152f35b6000546001600160a01b03163303610a4357565b606460405162461bcd60e51b815260206004820152602060248201527f4f776e61626c653a2063616c6c6572206973206e6f7420746865206f776e65726044820152fd5b91908201809211610a9457565b634e487b7160e01b600052601160045260246000fdfea2646970667358221220384417ad72fc60c118bd9846033e123cbe4509059c58e1bf4b3fca43eb14912464736f6c6343000812003360a0346100a957601f61093638819003918201601f19168301916001600160401b038311848410176100ae578084926020946040528339810103126100a957516001600160a01b0390818116908190036100a9576000543360018060a01b0319821617600055604051923391167f8be0079c531659141344cd1fd0a4f28419497f9722a3daafe3b4186f6b6457e0600080a360805261087190816100c58239608051816103530152f35b600080fd5b634e487b7160e01b600052604160045260246000fdfe608060408181526004908136101561001657600080fd5b600092833560e01c90816302d05d3f146107be57508063072ea61c1461079f5780630d6680871461078157806311a471ff146107625780631b0fc1061461055e5780632efcfda31461053f57806347afcdfd1461051657806348cd4cb1146104f75780634a934534146104db578063534db0e2146104b257806369dd20c814610493578063715018a61461043657806378dc25cc1461041357806378e97925146103f45780638da5cb5b146103cc5780638f775839146103a55780639d25d7f514610386578063af7665ce1461033e578063c839113a1461028e578063dc1d277c146101d75763f2fde38b1461010b57600080fd5b346101d35760203660031901126101d3576001600160a01b038235818116939192908490036101cf5761013c6107e3565b831561017d57505082546001600160a01b0319811683178455167f8be0079c531659141344cd1fd0a4f28419497f9722a3daafe3b4186f6b6457e08380a380f35b906020608492519162461bcd60e51b8352820152602660248201527f4f776e61626c653a206e6577206f776e657220697320746865207a65726f206160448201526564647265737360d01b6064820152fd5b8480fd5b8280fd5b5090346101d357826003193601126101d357916101e09260018060a01b038092541692600154916002549060035490546005546006549087600754169260085494896009541696600a5498600b549a602082519e8f90815201528c015260608b015260808a015260a089015260c088015260e087015261010086015261012085015261014084015260ff8160a01c1615156101608401521661018082015260026101a08201526702c68af0bb1400006101c0820152f35b509060a03660031901126101d3576064356001600160a01b038116929083900361033a576001546102f75750436001554260025534600355803590556024356005556044356006556bffffffffffffffffffffffff60a01b600754161760075560843560085580f35b906020606492519162461bcd60e51b8352820152601c60248201527f436f6e747261637420616c726561647920696e697469616c697a6564000000006044820152fd5b8380fd5b838234610382578160031936011261038257517f00000000000000000000000000000000000000000000000000000000000000006001600160a01b03168152602090f35b5080fd5b838234610382578160031936011261038257602090600a549051908152f35b83823461038257816003193601126103825760209060ff600b5460a01c1690519015158152f35b838234610382578160031936011261038257905490516001600160a01b039091168152602090f35b8382346103825781600319360112610382576020906002549051908152f35b838234610382578160031936011261038257602090516702c68af0bb1400008152f35b833461049057806003193601126104905761044f6107e3565b80546001600160a01b03198116825581906001600160a01b03167f8be0079c531659141344cd1fd0a4f28419497f9722a3daafe3b4186f6b6457e08280a380f35b80fd5b8382346103825781600319360112610382576020906005549051908152f35b83823461038257816003193601126103825760095490516001600160a01b039091168152602090f35b8382346103825781600319360112610382576020905160028152f35b8382346103825781600319360112610382576020906001549051908152f35b838234610382578160031936011261038257600b5490516001600160a01b039091168152602090f35b8382346103825781600319360112610382576020906006549051908152f35b506020908160031936011261033a576009548335936001600160a01b03821661070f57805442116106a65760035434036106485760085485146105df57506001600160a01b03191633908117600955600a8490559051928352917f198848172490c9cede6f00b7d3d59d018f0bc4715a37f81b8ce39cc7807369ad9190a280f35b825162461bcd60e51b8152908101849052603b60248201527f546865206368616c6c656e6765722063616e6e6f74207072656469637420746860448201527f652073616d652076616c7565206173207468652063726561746f7200000000006064820152608490fd5b825162461bcd60e51b8152908101849052603260248201527f54686520656e74727920666565206d757374206265207061696420746f2061636044820152716365707420746865206368616c6c656e676560701b6064820152608490fd5b825162461bcd60e51b8152908101849052603d60248201527f546865206368616c6c656e676572206d7573742061636365707420746865206360448201527f68616c6c656e6765206265666f726520746865206c6f636b2074696d650000006064820152608490fd5b825162461bcd60e51b8152908101849052602760248201527f546865206368616c6c656e67652068617320616c7265616479206265656e206160448201526618d8d95c1d195960ca1b6064820152608490fd5b8382346103825781600319360112610382576020906008549051908152f35b5090346101d357826003193601126101d35760209250549051908152f35b8382346103825781600319360112610382576020906003549051908152f35b8490346103825781600319360112610382576007546001600160a01b03168152602090f35b6000546001600160a01b031633036107f757565b606460405162461bcd60e51b815260206004820152602060248201527f4f776e61626c653a2063616c6c6572206973206e6f7420746865206f776e65726044820152fdfea264697066735822122013cfcb552e99349a226f1bce61dd641bcb9b9d72e5086c17057bf49f1645fcd964736f6c63430008120033","opcodes":"PUSH2 0x1A0 CALLVALUE PUSH2 0x1F8 JUMPI PUSH1 0x1 PUSH1 0x1 PUSH1 0x40 SHL SUB PUSH1 0x1F PUSH2 0x162A CODESIZE DUP2 SWAP1 SUB SWAP2 DUP3 ADD PUSH1 0x1F NOT AND DUP5 ADD SWAP2 DUP4 DUP4 GT DUP6 DUP5 LT OR PUSH2 0x1FD JUMPI DUP1 DUP6 SWAP3 PUSH1 0xE0 SWAP5 PUSH1 0x40 MSTORE DUP4 CODECOPY DUP2 ADD SUB SLT PUSH2 0x1F8 JUMPI DUP2 MLOAD SWAP1 PUSH1 0x20 DUP4 ADD MLOAD PUSH1 0x40 DUP5 ADD MLOAD SWAP4 PUSH1 0x60 DUP2 ADD MLOAD SWAP5 PUSH1 0x80 DUP3 ADD MLOAD SWAP5 PUSH1 0xC0 PUSH1 0xA0 DUP5 ADD MLOAD SWAP4 ADD MLOAD SWAP5 PUSH1 0x1 DUP1 PUSH1 0xA0 SHL SUB SWAP3 DUP4 DUP8 AND SWAP1 DUP2 DUP9 SUB PUSH2 0x1F8 JUMPI PUSH1 0x0 DUP1 SLOAD CALLER PUSH1 0x1 PUSH1 0x1 PUSH1 0xA0 SHL SUB NOT DUP3 AND DUP2 OR DUP4 SSTORE PUSH1 0x40 MLOAD SWAP3 SWAP10 SWAP3 SWAP7 SWAP2 DUP9 AND PUSH32 0x8BE0079C531659141344CD1FD0A4F28419497F9722A3DAAFE3B4186F6B6457E0 DUP12 DUP1 LOG3 NUMBER PUSH1 0x80 MSTORE PUSH1 0xA0 MSTORE PUSH1 0xC0 MSTORE PUSH1 0xE0 MSTORE PUSH2 0x100 SWAP9 DUP10 MSTORE PUSH2 0x120 SWAP8 DUP9 MSTORE PUSH2 0x140 SWAP5 DUP6 MSTORE PUSH2 0x180 SWAP7 DUP8 MSTORE PUSH2 0x936 DUP4 DUP2 ADD SWAP3 DUP4 GT DUP5 DUP5 LT OR PUSH2 0x1E4 JUMPI SWAP2 DUP4 SWAP2 PUSH1 0x20 SWAP4 PUSH2 0xCF4 DUP5 CODECOPY DUP2 MSTORE SUB ADD SWAP1 DUP5 CREATE SWAP3 DUP4 ISZERO PUSH2 0x1D8 JUMPI POP PUSH2 0x160 SWAP3 AND DUP3 MSTORE PUSH1 0x40 MLOAD SWAP4 PUSH2 0xAE0 SWAP6 DUP7 PUSH2 0x214 DUP8 CODECOPY PUSH1 0x80 MLOAD DUP7 DUP2 DUP2 PUSH2 0x80C ADD MSTORE PUSH2 0x8D5 ADD MSTORE PUSH1 0xA0 MLOAD DUP7 DUP2 DUP2 PUSH2 0x2CD ADD MSTORE DUP2 DUP2 PUSH2 0x3A7 ADD MSTORE PUSH2 0x8FB ADD MSTORE PUSH1 0xC0 MLOAD DUP7 DUP2 DUP2 PUSH2 0x3D1 ADD MSTORE DUP2 DUP2 PUSH2 0x847 ADD MSTORE PUSH2 0x920 ADD MSTORE PUSH1 0xE0 MLOAD DUP7 DUP2 DUP2 PUSH2 0x1EB ADD MSTORE DUP2 DUP2 PUSH2 0x401 ADD MSTORE PUSH2 0x946 ADD MSTORE MLOAD DUP6 DUP2 DUP2 PUSH2 0x1AC ADD MSTORE DUP2 DUP2 PUSH2 0x431 ADD MSTORE PUSH2 0x96C ADD MSTORE MLOAD DUP5 DUP2 DUP2 PUSH2 0x226 ADD MSTORE DUP2 DUP2 PUSH2 0x461 ADD MSTORE PUSH2 0x992 ADD MSTORE MLOAD DUP4 DUP2 DUP2 PUSH2 0x365 ADD MSTORE DUP2 DUP2 PUSH2 0x491 ADD MSTORE PUSH2 0x9B8 ADD MSTORE MLOAD DUP3 DUP2 DUP2 PUSH2 0x4B8 ADD MSTORE DUP2 DUP2 PUSH2 0x87F ADD MSTORE PUSH2 0x9DF ADD MSTORE MLOAD DUP2 DUP2 DUP2 PUSH2 0x286 ADD MSTORE PUSH2 0xA07 ADD MSTORE RETURN JUMPDEST PUSH1 0x40 MLOAD SWAP1 RETURNDATASIZE SWAP1 DUP3 RETURNDATACOPY RETURNDATASIZE SWAP1 REVERT JUMPDEST PUSH4 0x4E487B71 PUSH1 0xE0 SHL DUP8 MSTORE PUSH1 0x41 PUSH1 0x4 MSTORE PUSH1 0x24 DUP8 REVERT JUMPDEST PUSH1 0x0 DUP1 REVERT JUMPDEST PUSH4 0x4E487B71 PUSH1 0xE0 SHL PUSH1 0x0 MSTORE PUSH1 0x41 PUSH1 0x4 MSTORE PUSH1 0x24 PUSH1 0x0 REVERT INVALID PUSH1 0x80 PUSH1 0x40 DUP2 DUP2 MSTORE PUSH1 0x4 SWAP1 DUP2 CALLDATASIZE LT ISZERO PUSH2 0x16 JUMPI PUSH1 0x0 DUP1 REVERT JUMPDEST PUSH1 0x0 SWAP3 DUP4 CALLDATALOAD PUSH1 0xE0 SHR SWAP1 DUP2 PUSH4 0x232B22FA EQ PUSH2 0x8AE JUMPI POP DUP1 PUSH4 0x242FDB91 EQ PUSH2 0x86A JUMPI DUP1 PUSH4 0x40CFC3B1 EQ PUSH2 0x82F JUMPI DUP1 PUSH4 0x48CD4CB1 EQ PUSH2 0x7F4 JUMPI DUP1 PUSH4 0x51D2F246 EQ PUSH2 0x388 JUMPI DUP1 PUSH4 0x57692213 EQ PUSH2 0x34D JUMPI DUP1 PUSH4 0x715018A6 EQ PUSH2 0x2F0 JUMPI DUP1 PUSH4 0x76E5B862 EQ PUSH2 0x2B5 JUMPI DUP1 PUSH4 0x8ADD9F06 EQ PUSH2 0x271 JUMPI DUP1 PUSH4 0x8DA5CB5B EQ PUSH2 0x249 JUMPI DUP1 PUSH4 0xA16CDBB1 EQ PUSH2 0x20E JUMPI DUP1 PUSH4 0xD2177BDD EQ PUSH2 0x1D3 JUMPI DUP1 PUSH4 0xD6A298E9 EQ PUSH2 0x194 JUMPI PUSH4 0xF2FDE38B EQ PUSH2 0xBE JUMPI PUSH1 0x0 DUP1 REVERT JUMPDEST CALLVALUE PUSH2 0x190 JUMPI PUSH1 0x20 CALLDATASIZE PUSH1 0x3 NOT ADD SLT PUSH2 0x190 JUMPI PUSH1 0x1 PUSH1 0x1 PUSH1 0xA0 SHL SUB DUP3 CALLDATALOAD DUP2 DUP2 AND SWAP4 SWAP2 SWAP3 SWAP1 DUP5 SWAP1 SUB PUSH2 0x18C JUMPI PUSH2 0xEF PUSH2 0xA2F JUMP JUMPDEST DUP4 ISZERO PUSH2 0x13A JUMPI POP POP PUSH1 0x0 SLOAD DUP3 PUSH12 0xFFFFFFFFFFFFFFFFFFFFFFFF PUSH1 0xA0 SHL DUP3 AND OR PUSH1 0x0 SSTORE AND PUSH32 0x8BE0079C531659141344CD1FD0A4F28419497F9722A3DAAFE3B4186F6B6457E0 PUSH1 0x0 DUP1 LOG3 DUP1 RETURN JUMPDEST SWAP1 PUSH1 0x20 PUSH1 0x84 SWAP3 MLOAD SWAP2 PUSH3 0x461BCD PUSH1 0xE5 SHL DUP4 MSTORE DUP3 ADD MSTORE PUSH1 0x26 PUSH1 0x24 DUP3 ADD MSTORE PUSH32 0x4F776E61626C653A206E6577206F776E657220697320746865207A65726F2061 PUSH1 0x44 DUP3 ADD MSTORE PUSH6 0x646472657373 PUSH1 0xD0 SHL PUSH1 0x64 DUP3 ADD MSTORE REVERT JUMPDEST DUP5 DUP1 REVERT JUMPDEST DUP3 DUP1 REVERT JUMPDEST DUP4 DUP3 CALLVALUE PUSH2 0x1CF JUMPI DUP2 PUSH1 0x3 NOT CALLDATASIZE ADD SLT PUSH2 0x1CF JUMPI PUSH1 0x20 SWAP1 MLOAD PUSH32 0x0 DUP2 MSTORE RETURN JUMPDEST POP DUP1 REVERT JUMPDEST DUP4 DUP3 CALLVALUE PUSH2 0x1CF JUMPI DUP2 PUSH1 0x3 NOT CALLDATASIZE ADD SLT PUSH2 0x1CF JUMPI PUSH1 0x20 SWAP1 MLOAD PUSH32 0x0 DUP2 MSTORE RETURN JUMPDEST DUP4 DUP3 CALLVALUE PUSH2 0x1CF JUMPI DUP2 PUSH1 0x3 NOT CALLDATASIZE ADD SLT PUSH2 0x1CF JUMPI PUSH1 0x20 SWAP1 MLOAD PUSH32 0x0 DUP2 MSTORE RETURN JUMPDEST DUP4 DUP3 CALLVALUE PUSH2 0x1CF JUMPI DUP2 PUSH1 0x3 NOT CALLDATASIZE ADD SLT PUSH2 0x1CF JUMPI SWAP1 SLOAD SWAP1 MLOAD PUSH1 0x1 PUSH1 0x1 PUSH1 0xA0 SHL SUB SWAP1 SWAP2 AND DUP2 MSTORE PUSH1 0x20 SWAP1 RETURN JUMPDEST DUP4 DUP3 CALLVALUE PUSH2 0x1CF JUMPI DUP2 PUSH1 0x3 NOT CALLDATASIZE ADD SLT PUSH2 0x1CF JUMPI MLOAD PUSH32 0x0 PUSH1 0x1 PUSH1 0x1 PUSH1 0xA0 SHL SUB AND DUP2 MSTORE PUSH1 0x20 SWAP1 RETURN JUMPDEST DUP4 DUP3 CALLVALUE PUSH2 0x1CF JUMPI DUP2 PUSH1 0x3 NOT CALLDATASIZE ADD SLT PUSH2 0x1CF JUMPI PUSH1 0x20 SWAP1 MLOAD PUSH32 0x0 DUP2 MSTORE RETURN JUMPDEST DUP4 CALLVALUE PUSH2 0x34A JUMPI DUP1 PUSH1 0x3 NOT CALLDATASIZE ADD SLT PUSH2 0x34A JUMPI PUSH2 0x309 PUSH2 0xA2F JUMP JUMPDEST PUSH1 0x0 DUP1 SLOAD PUSH1 0x1 PUSH1 0x1 PUSH1 0xA0 SHL SUB NOT DUP2 AND DUP3 SSTORE PUSH1 0x1 PUSH1 0x1 PUSH1 0xA0 SHL SUB AND PUSH32 0x8BE0079C531659141344CD1FD0A4F28419497F9722A3DAAFE3B4186F6B6457E0 DUP3 DUP1 LOG3 DUP1 RETURN JUMPDEST DUP1 REVERT JUMPDEST DUP4 DUP3 CALLVALUE PUSH2 0x1CF JUMPI DUP2 PUSH1 0x3 NOT CALLDATASIZE ADD SLT PUSH2 0x1CF JUMPI PUSH1 0x20 SWAP1 MLOAD PUSH32 0x0 DUP2 MSTORE RETURN JUMPDEST POP SWAP1 PUSH1 0x60 CALLDATASIZE PUSH1 0x3 NOT ADD SLT PUSH2 0x190 JUMPI DUP1 CALLDATALOAD SWAP2 PUSH1 0x24 SWAP3 DUP4 CALLDATALOAD SWAP4 PUSH1 0x44 SWAP3 DUP4 CALLDATALOAD SWAP4 PUSH32 0x0 CALLVALUE LT PUSH2 0x79B JUMPI PUSH2 0x3F6 PUSH32 0x0 TIMESTAMP PUSH2 0xA87 JUMP JUMPDEST DUP8 LT PUSH2 0x745 JUMPI PUSH2 0x426 PUSH32 0x0 TIMESTAMP PUSH2 0xA87 JUMP JUMPDEST DUP8 GT PUSH2 0x6F0 JUMPI PUSH2 0x456 PUSH32 0x0 DUP9 PUSH2 0xA87 JUMP JUMPDEST DUP6 LT PUSH2 0x689 JUMPI PUSH2 0x486 PUSH32 0x0 DUP9 PUSH2 0xA87 JUMP JUMPDEST DUP6 GT PUSH2 0x622 JUMPI PUSH2 0x4B6 PUSH32 0x0 DUP7 PUSH2 0xA87 JUMP JUMPDEST PUSH32 0x0 PUSH1 0x88 DUP2 SWAP1 SHR PUSH3 0xFFFFFF AND PUSH23 0x3D602D80600A3D3981F3363D3D373D3D3D363D73000000 OR DUP11 MSTORE PUSH1 0x78 SHL PUSH15 0x5AF43D82803E903D91602B57FD5BF3 OR PUSH1 0x20 MSTORE SWAP3 PUSH1 0x1 PUSH1 0x1 PUSH1 0xA0 SHL SUB PUSH1 0x37 PUSH1 0x9 DUP12 CREATE AND SWAP7 DUP8 ISZERO PUSH2 0x5E9 JUMPI DUP8 EXTCODESIZE ISZERO PUSH2 0x5E5 JUMPI DUP5 DUP5 MLOAD SWAP4 PUSH4 0x641C889D PUSH1 0xE1 SHL DUP6 MSTORE DUP11 DUP4 DUP7 ADD MSTORE DUP9 DUP5 DUP7 ADD MSTORE DUP5 ADD MSTORE CALLER PUSH1 0x64 DUP5 ADD MSTORE DUP6 PUSH1 0x84 DUP5 ADD MSTORE DUP10 DUP4 PUSH1 0xA4 DUP2 CALLVALUE DUP13 GAS CALL DUP1 ISZERO PUSH2 0x5DB JUMPI PUSH2 0x5AB JUMPI JUMPDEST POP POP POP DUP1 MLOAD SWAP4 CALLVALUE DUP6 MSTORE PUSH1 0x20 DUP6 ADD MSTORE DUP4 ADD MSTORE PUSH1 0x60 DUP3 ADD MSTORE PUSH32 0x5DCCE9E35BE7747873834045BC817EE442F32112F4C92E2249AF12541C40B49F PUSH1 0x80 CALLER SWAP3 LOG4 DUP1 RETURN JUMPDEST PUSH8 0xFFFFFFFFFFFFFFFF DUP4 SWAP11 SWAP5 SWAP11 GT PUSH2 0x5CA JUMPI POP POP DUP8 MSTORE SWAP6 CODESIZE DUP1 DUP1 PUSH2 0x56C JUMP JUMPDEST PUSH4 0x4E487B71 PUSH1 0xE0 SHL DUP5 MSTORE PUSH1 0x41 SWAP1 MSTORE DUP3 REVERT JUMPDEST DUP5 MLOAD RETURNDATASIZE DUP13 DUP3 RETURNDATACOPY RETURNDATASIZE SWAP1 REVERT JUMPDEST DUP10 DUP1 REVERT JUMPDEST SWAP2 PUSH1 0x16 PUSH22 0x115490CC4C4D8DCE8818DC99585D194819985A5B1959 PUSH1 0x52 SHL SWAP3 PUSH1 0x20 PUSH1 0x64 SWAP7 MLOAD SWAP6 PUSH3 0x461BCD PUSH1 0xE5 SHL DUP8 MSTORE DUP7 ADD MSTORE DUP5 ADD MSTORE DUP3 ADD MSTORE REVERT JUMPDEST PUSH32 0x4368616C6C656E6765466163746F72793A2054686520736574746C656D656E74 SWAP1 PUSH1 0x37 PUSH1 0x84 SWAP5 PUSH1 0x20 DUP10 SWAP6 MLOAD SWAP6 PUSH3 0x461BCD PUSH1 0xE5 SHL DUP8 MSTORE DUP7 ADD MSTORE DUP5 ADD MSTORE DUP3 ADD MSTORE PUSH32 0x2073746172742074696D6520697320746F6F206C617465000000000000000000 PUSH1 0x64 DUP3 ADD MSTORE REVERT JUMPDEST PUSH32 0x4368616C6C656E6765466163746F72793A2054686520736574746C656D656E74 SWAP1 PUSH1 0x38 PUSH1 0x84 SWAP5 PUSH1 0x20 DUP10 SWAP6 MLOAD SWAP6 PUSH3 0x461BCD PUSH1 0xE5 SHL DUP8 MSTORE DUP7 ADD MSTORE DUP5 ADD MSTORE DUP3 ADD MSTORE PUSH32 0x2073746172742074696D6520697320746F6F206561726C790000000000000000 PUSH1 0x64 DUP3 ADD MSTORE REVERT JUMPDEST PUSH32 0x4368616C6C656E6765466163746F72793A20546865206C6F636B2074696D6520 SWAP1 PUSH1 0x2B PUSH1 0x84 SWAP5 PUSH1 0x20 DUP10 SWAP6 MLOAD SWAP6 PUSH3 0x461BCD PUSH1 0xE5 SHL DUP8 MSTORE DUP7 ADD MSTORE DUP5 ADD MSTORE DUP3 ADD MSTORE PUSH11 0x697320746F6F206C617465 PUSH1 0xA8 SHL PUSH1 0x64 DUP3 ADD MSTORE REVERT JUMPDEST PUSH32 0x4368616C6C656E6765466163746F72793A20546865206C6F636B2074696D6520 SWAP1 PUSH1 0x2C PUSH1 0x84 SWAP5 PUSH1 0x20 DUP10 SWAP6 MLOAD SWAP6 PUSH3 0x461BCD PUSH1 0xE5 SHL DUP8 MSTORE DUP7 ADD MSTORE DUP5 ADD MSTORE DUP3 ADD MSTORE PUSH12 0x697320746F6F206561726C79 PUSH1 0xA0 SHL PUSH1 0x64 DUP3 ADD MSTORE REVERT JUMPDEST PUSH32 0x4368616C6C656E6765466163746F72793A2054686520656E7472792066656520 SWAP1 PUSH1 0x2F PUSH1 0x84 SWAP5 PUSH1 0x20 DUP10 SWAP6 MLOAD SWAP6 PUSH3 0x461BCD PUSH1 0xE5 SHL DUP8 MSTORE DUP7 ADD MSTORE DUP5 ADD MSTORE DUP3 ADD MSTORE PUSH15 0x73656E7420697320746F6F206C6F77 PUSH1 0x88 SHL PUSH1 0x64 DUP3 ADD MSTORE REVERT JUMPDEST DUP4 DUP3 CALLVALUE PUSH2 0x1CF JUMPI DUP2 PUSH1 0x3 NOT CALLDATASIZE ADD SLT PUSH2 0x1CF JUMPI PUSH1 0x20 SWAP1 MLOAD PUSH32 0x0 DUP2 MSTORE RETURN JUMPDEST DUP4 DUP3 CALLVALUE PUSH2 0x1CF JUMPI DUP2 PUSH1 0x3 NOT CALLDATASIZE ADD SLT PUSH2 0x1CF JUMPI PUSH1 0x20 SWAP1 MLOAD PUSH32 0x0 DUP2 MSTORE RETURN JUMPDEST DUP4 DUP3 CALLVALUE PUSH2 0x1CF JUMPI DUP2 PUSH1 0x3 NOT CALLDATASIZE ADD SLT PUSH2 0x1CF JUMPI MLOAD PUSH32 0x0 PUSH1 0x1 PUSH1 0x1 PUSH1 0xA0 SHL SUB AND DUP2 MSTORE PUSH1 0x20 SWAP1 RETURN JUMPDEST SWAP3 POP POP CALLVALUE PUSH2 0x190 JUMPI DUP3 PUSH1 0x3 NOT CALLDATASIZE ADD SLT PUSH2 0x190 JUMPI SWAP2 PUSH2 0x140 SWAP3 PUSH1 0x1 DUP1 PUSH1 0xA0 SHL SUB DUP1 SWAP3 SLOAD AND DUP4 MSTORE PUSH32 0x0 PUSH1 0x20 DUP5 ADD MSTORE PUSH32 0x0 SWAP1 DUP4 ADD MSTORE PUSH32 0x0 PUSH1 0x60 DUP4 ADD MSTORE PUSH32 0x0 PUSH1 0x80 DUP4 ADD MSTORE PUSH32 0x0 PUSH1 0xA0 DUP4 ADD MSTORE PUSH32 0x0 PUSH1 0xC0 DUP4 ADD MSTORE PUSH32 0x0 PUSH1 0xE0 DUP4 ADD MSTORE DUP1 PUSH32 0x0 AND PUSH2 0x100 DUP4 ADD MSTORE PUSH32 0x0 AND PUSH2 0x120 DUP3 ADD MSTORE RETURN JUMPDEST PUSH1 0x0 SLOAD PUSH1 0x1 PUSH1 0x1 PUSH1 0xA0 SHL SUB AND CALLER SUB PUSH2 0xA43 JUMPI JUMP JUMPDEST PUSH1 0x64 PUSH1 0x40 MLOAD PUSH3 0x461BCD PUSH1 0xE5 SHL DUP2 MSTORE PUSH1 0x20 PUSH1 0x4 DUP3 ADD MSTORE PUSH1 0x20 PUSH1 0x24 DUP3 ADD MSTORE PUSH32 0x4F776E61626C653A2063616C6C6572206973206E6F7420746865206F776E6572 PUSH1 0x44 DUP3 ADD MSTORE REVERT JUMPDEST SWAP2 SWAP1 DUP3 ADD DUP1 SWAP3 GT PUSH2 0xA94 JUMPI JUMP JUMPDEST PUSH4 0x4E487B71 PUSH1 0xE0 SHL PUSH1 0x0 MSTORE PUSH1 0x11 PUSH1 0x4 MSTORE PUSH1 0x24 PUSH1 0x0 REVERT INVALID LOG2 PUSH5 0x6970667358 0x22 SLT KECCAK256 CODESIZE PREVRANDAO OR 0xAD PUSH19 0xFC60C118BD9846033E123CBE4509059C58E1BF 0x4B EXTCODEHASH 0xCA NUMBER 0xEB EQ SWAP2 0x24 PUSH5 0x736F6C6343 STOP ADDMOD SLT STOP CALLER PUSH1 0xA0 CALLVALUE PUSH2 0xA9 JUMPI PUSH1 0x1F PUSH2 0x936 CODESIZE DUP2 SWAP1 SUB SWAP2 DUP3 ADD PUSH1 0x1F NOT AND DUP4 ADD SWAP2 PUSH1 0x1 PUSH1 0x1 PUSH1 0x40 SHL SUB DUP4 GT DUP5 DUP5 LT OR PUSH2 0xAE JUMPI DUP1 DUP5 SWAP3 PUSH1 0x20 SWAP5 PUSH1 0x40 MSTORE DUP4 CODECOPY DUP2 ADD SUB SLT PUSH2 0xA9 JUMPI MLOAD PUSH1 0x1 PUSH1 0x1 PUSH1 0xA0 SHL SUB SWAP1 DUP2 DUP2 AND SWAP1 DUP2 SWAP1 SUB PUSH2 0xA9 JUMPI PUSH1 0x0 SLOAD CALLER PUSH1 0x1 DUP1 PUSH1 0xA0 SHL SUB NOT DUP3 AND OR PUSH1 0x0 SSTORE PUSH1 0x40 MLOAD SWAP3 CALLER SWAP2 AND PUSH32 0x8BE0079C531659141344CD1FD0A4F28419497F9722A3DAAFE3B4186F6B6457E0 PUSH1 0x0 DUP1 LOG3 PUSH1 0x80 MSTORE PUSH2 0x871 SWAP1 DUP2 PUSH2 0xC5 DUP3 CODECOPY PUSH1 0x80 MLOAD DUP2 PUSH2 0x353 ADD MSTORE RETURN JUMPDEST PUSH1 0x0 DUP1 REVERT JUMPDEST PUSH4 0x4E487B71 PUSH1 0xE0 SHL PUSH1 0x0 MSTORE PUSH1 0x41 PUSH1 0x4 MSTORE PUSH1 0x24 PUSH1 0x0 REVERT INVALID PUSH1 0x80 PUSH1 0x40 DUP2 DUP2 MSTORE PUSH1 0x4 SWAP1 DUP2 CALLDATASIZE LT ISZERO PUSH2 0x16 JUMPI PUSH1 0x0 DUP1 REVERT JUMPDEST PUSH1 0x0 SWAP3 DUP4 CALLDATALOAD PUSH1 0xE0 SHR SWAP1 DUP2 PUSH4 0x2D05D3F EQ PUSH2 0x7BE JUMPI POP DUP1 PUSH4 0x72EA61C EQ PUSH2 0x79F JUMPI DUP1 PUSH4 0xD668087 EQ PUSH2 0x781 JUMPI DUP1 PUSH4 0x11A471FF EQ PUSH2 0x762 JUMPI DUP1 PUSH4 0x1B0FC106 EQ PUSH2 0x55E JUMPI DUP1 PUSH4 0x2EFCFDA3 EQ PUSH2 0x53F JUMPI DUP1 PUSH4 0x47AFCDFD EQ PUSH2 0x516 JUMPI DUP1 PUSH4 0x48CD4CB1 EQ PUSH2 0x4F7 JUMPI DUP1 PUSH4 0x4A934534 EQ PUSH2 0x4DB JUMPI DUP1 PUSH4 0x534DB0E2 EQ PUSH2 0x4B2 JUMPI DUP1 PUSH4 0x69DD20C8 EQ PUSH2 0x493 JUMPI DUP1 PUSH4 0x715018A6 EQ PUSH2 0x436 JUMPI DUP1 PUSH4 0x78DC25CC EQ PUSH2 0x413 JUMPI DUP1 PUSH4 0x78E97925 EQ PUSH2 0x3F4 JUMPI DUP1 PUSH4 0x8DA5CB5B EQ PUSH2 0x3CC JUMPI DUP1 PUSH4 0x8F775839 EQ PUSH2 0x3A5 JUMPI DUP1 PUSH4 0x9D25D7F5 EQ PUSH2 0x386 JUMPI DUP1 PUSH4 0xAF7665CE EQ PUSH2 0x33E JUMPI DUP1 PUSH4 0xC839113A EQ PUSH2 0x28E JUMPI DUP1 PUSH4 0xDC1D277C EQ PUSH2 0x1D7 JUMPI PUSH4 0xF2FDE38B EQ PUSH2 0x10B JUMPI PUSH1 0x0 DUP1 REVERT JUMPDEST CALLVALUE PUSH2 0x1D3 JUMPI PUSH1 0x20 CALLDATASIZE PUSH1 0x3 NOT ADD SLT PUSH2 0x1D3 JUMPI PUSH1 0x1 PUSH1 0x1 PUSH1 0xA0 SHL SUB DUP3 CALLDATALOAD DUP2 DUP2 AND SWAP4 SWAP2 SWAP3 SWAP1 DUP5 SWAP1 SUB PUSH2 0x1CF JUMPI PUSH2 0x13C PUSH2 0x7E3 JUMP JUMPDEST DUP4 ISZERO PUSH2 0x17D JUMPI POP POP DUP3 SLOAD PUSH1 0x1 PUSH1 0x1 PUSH1 0xA0 SHL SUB NOT DUP2 AND DUP4 OR DUP5 SSTORE AND PUSH32 0x8BE0079C531659141344CD1FD0A4F28419497F9722A3DAAFE3B4186F6B6457E0 DUP4 DUP1 LOG3 DUP1 RETURN JUMPDEST SWAP1 PUSH1 0x20 PUSH1 0x84 SWAP3 MLOAD SWAP2 PUSH3 0x461BCD PUSH1 0xE5 SHL DUP4 MSTORE DUP3 ADD MSTORE PUSH1 0x26 PUSH1 0x24 DUP3 ADD MSTORE PUSH32 0x4F776E61626C653A206E6577206F776E657220697320746865207A65726F2061 PUSH1 0x44 DUP3 ADD MSTORE PUSH6 0x646472657373 PUSH1 0xD0 SHL PUSH1 0x64 DUP3 ADD MSTORE REVERT JUMPDEST DUP5 DUP1 REVERT JUMPDEST DUP3 DUP1 REVERT JUMPDEST POP SWAP1 CALLVALUE PUSH2 0x1D3 JUMPI DUP3 PUSH1 0x3 NOT CALLDATASIZE ADD SLT PUSH2 0x1D3 JUMPI SWAP2 PUSH2 0x1E0 SWAP3 PUSH1 0x1 DUP1 PUSH1 0xA0 SHL SUB DUP1 SWAP3 SLOAD AND SWAP3 PUSH1 0x1 SLOAD SWAP2 PUSH1 0x2 SLOAD SWAP1 PUSH1 0x3 SLOAD SWAP1 SLOAD PUSH1 0x5 SLOAD PUSH1 0x6 SLOAD SWAP1 DUP8 PUSH1 0x7 SLOAD AND SWAP3 PUSH1 0x8 SLOAD SWAP5 DUP10 PUSH1 0x9 SLOAD AND SWAP7 PUSH1 0xA SLOAD SWAP9 PUSH1 0xB SLOAD SWAP11 PUSH1 0x20 DUP3 MLOAD SWAP15 DUP16 SWAP1 DUP2 MSTORE ADD MSTORE DUP13 ADD MSTORE PUSH1 0x60 DUP12 ADD MSTORE PUSH1 0x80 DUP11 ADD MSTORE PUSH1 0xA0 DUP10 ADD MSTORE PUSH1 0xC0 DUP9 ADD MSTORE PUSH1 0xE0 DUP8 ADD MSTORE PUSH2 0x100 DUP7 ADD MSTORE PUSH2 0x120 DUP6 ADD MSTORE PUSH2 0x140 DUP5 ADD MSTORE PUSH1 0xFF DUP2 PUSH1 0xA0 SHR AND ISZERO ISZERO PUSH2 0x160 DUP5 ADD MSTORE AND PUSH2 0x180 DUP3 ADD MSTORE PUSH1 0x2 PUSH2 0x1A0 DUP3 ADD MSTORE PUSH8 0x2C68AF0BB140000 PUSH2 0x1C0 DUP3 ADD MSTORE RETURN JUMPDEST POP SWAP1 PUSH1 0xA0 CALLDATASIZE PUSH1 0x3 NOT ADD SLT PUSH2 0x1D3 JUMPI PUSH1 0x64 CALLDATALOAD PUSH1 0x1 PUSH1 0x1 PUSH1 0xA0 SHL SUB DUP2 AND SWAP3 SWAP1 DUP4 SWAP1 SUB PUSH2 0x33A JUMPI PUSH1 0x1 SLOAD PUSH2 0x2F7 JUMPI POP NUMBER PUSH1 0x1 SSTORE TIMESTAMP PUSH1 0x2 SSTORE CALLVALUE PUSH1 0x3 SSTORE DUP1 CALLDATALOAD SWAP1 SSTORE PUSH1 0x24 CALLDATALOAD PUSH1 0x5 SSTORE PUSH1 0x44 CALLDATALOAD PUSH1 0x6 SSTORE PUSH12 0xFFFFFFFFFFFFFFFFFFFFFFFF PUSH1 0xA0 SHL PUSH1 0x7 SLOAD AND OR PUSH1 0x7 SSTORE PUSH1 0x84 CALLDATALOAD PUSH1 0x8 SSTORE DUP1 RETURN JUMPDEST SWAP1 PUSH1 0x20 PUSH1 0x64 SWAP3 MLOAD SWAP2 PUSH3 0x461BCD PUSH1 0xE5 SHL DUP4 MSTORE DUP3 ADD MSTORE PUSH1 0x1C PUSH1 0x24 DUP3 ADD MSTORE PUSH32 0x436F6E747261637420616C726561647920696E697469616C697A656400000000 PUSH1 0x44 DUP3 ADD MSTORE REVERT JUMPDEST DUP4 DUP1 REVERT JUMPDEST DUP4 DUP3 CALLVALUE PUSH2 0x382 JUMPI DUP2 PUSH1 0x3 NOT CALLDATASIZE ADD SLT PUSH2 0x382 JUMPI MLOAD PUSH32 0x0 PUSH1 0x1 PUSH1 0x1 PUSH1 0xA0 SHL SUB AND DUP2 MSTORE PUSH1 0x20 SWAP1 RETURN JUMPDEST POP DUP1 REVERT JUMPDEST DUP4 DUP3 CALLVALUE PUSH2 0x382 JUMPI DUP2 PUSH1 0x3 NOT CALLDATASIZE ADD SLT PUSH2 0x382 JUMPI PUSH1 0x20 SWAP1 PUSH1 0xA SLOAD SWAP1 MLOAD SWAP1 DUP2 MSTORE RETURN JUMPDEST DUP4 DUP3 CALLVALUE PUSH2 0x382 JUMPI DUP2 PUSH1 0x3 NOT CALLDATASIZE ADD SLT PUSH2 0x382 JUMPI PUSH1 0x20 SWAP1 PUSH1 0xFF PUSH1 0xB SLOAD PUSH1 0xA0 SHR AND SWAP1 MLOAD SWAP1 ISZERO ISZERO DUP2 MSTORE RETURN JUMPDEST DUP4 DUP3 CALLVALUE PUSH2 0x382 JUMPI DUP2 PUSH1 0x3 NOT CALLDATASIZE ADD SLT PUSH2 0x382 JUMPI SWAP1 SLOAD SWAP1 MLOAD PUSH1 0x1 PUSH1 0x1 PUSH1 0xA0 SHL SUB SWAP1 SWAP2 AND DUP2 MSTORE PUSH1 0x20 SWAP1 RETURN JUMPDEST DUP4 DUP3 CALLVALUE PUSH2 0x382 JUMPI DUP2 PUSH1 0x3 NOT CALLDATASIZE ADD SLT PUSH2 0x382 JUMPI PUSH1 0x20 SWAP1 PUSH1 0x2 SLOAD SWAP1 MLOAD SWAP1 DUP2 MSTORE RETURN JUMPDEST DUP4 DUP3 CALLVALUE PUSH2 0x382 JUMPI DUP2 PUSH1 0x3 NOT CALLDATASIZE ADD SLT PUSH2 0x382 JUMPI PUSH1 0x20 SWAP1 MLOAD PUSH8 0x2C68AF0BB140000 DUP2 MSTORE RETURN JUMPDEST DUP4 CALLVALUE PUSH2 0x490 JUMPI DUP1 PUSH1 0x3 NOT CALLDATASIZE ADD SLT PUSH2 0x490 JUMPI PUSH2 0x44F PUSH2 0x7E3 JUMP JUMPDEST DUP1 SLOAD PUSH1 0x1 PUSH1 0x1 PUSH1 0xA0 SHL SUB NOT DUP2 AND DUP3 SSTORE DUP2 SWAP1 PUSH1 0x1 PUSH1 0x1 PUSH1 0xA0 SHL SUB AND PUSH32 0x8BE0079C531659141344CD1FD0A4F28419497F9722A3DAAFE3B4186F6B6457E0 DUP3 DUP1 LOG3 DUP1 RETURN JUMPDEST DUP1 REVERT JUMPDEST DUP4 DUP3 CALLVALUE PUSH2 0x382 JUMPI DUP2 PUSH1 0x3 NOT CALLDATASIZE ADD SLT PUSH2 0x382 JUMPI PUSH1 0x20 SWAP1 PUSH1 0x5 SLOAD SWAP1 MLOAD SWAP1 DUP2 MSTORE RETURN JUMPDEST DUP4 DUP3 CALLVALUE PUSH2 0x382 JUMPI DUP2 PUSH1 0x3 NOT CALLDATASIZE ADD SLT PUSH2 0x382 JUMPI PUSH1 0x9 SLOAD SWAP1 MLOAD PUSH1 0x1 PUSH1 0x1 PUSH1 0xA0 SHL SUB SWAP1 SWAP2 AND DUP2 MSTORE PUSH1 0x20 SWAP1 RETURN JUMPDEST DUP4 DUP3 CALLVALUE PUSH2 0x382 JUMPI DUP2 PUSH1 0x3 NOT CALLDATASIZE ADD SLT PUSH2 0x382 JUMPI PUSH1 0x20 SWAP1 MLOAD PUSH1 0x2 DUP2 MSTORE RETURN JUMPDEST DUP4 DUP3 CALLVALUE PUSH2 0x382 JUMPI DUP2 PUSH1 0x3 NOT CALLDATASIZE ADD SLT PUSH2 0x382 JUMPI PUSH1 0x20 SWAP1 PUSH1 0x1 SLOAD SWAP1 MLOAD SWAP1 DUP2 MSTORE RETURN JUMPDEST DUP4 DUP3 CALLVALUE PUSH2 0x382 JUMPI DUP2 PUSH1 0x3 NOT CALLDATASIZE ADD SLT PUSH2 0x382 JUMPI PUSH1 0xB SLOAD SWAP1 MLOAD PUSH1 0x1 PUSH1 0x1 PUSH1 0xA0 SHL SUB SWAP1 SWAP2 AND DUP2 MSTORE PUSH1 0x20 SWAP1 RETURN JUMPDEST DUP4 DUP3 CALLVALUE PUSH2 0x382 JUMPI DUP2 PUSH1 0x3 NOT CALLDATASIZE ADD SLT PUSH2 0x382 JUMPI PUSH1 0x20 SWAP1 PUSH1 0x6 SLOAD SWAP1 MLOAD SWAP1 DUP2 MSTORE RETURN JUMPDEST POP PUSH1 0x20 SWAP1 DUP2 PUSH1 0x3 NOT CALLDATASIZE ADD SLT PUSH2 0x33A JUMPI PUSH1 0x9 SLOAD DUP4 CALLDATALOAD SWAP4 PUSH1 0x1 PUSH1 0x1 PUSH1 0xA0 SHL SUB DUP3 AND PUSH2 0x70F JUMPI DUP1 SLOAD TIMESTAMP GT PUSH2 0x6A6 JUMPI PUSH1 0x3 SLOAD CALLVALUE SUB PUSH2 0x648 JUMPI PUSH1 0x8 SLOAD DUP6 EQ PUSH2 0x5DF JUMPI POP PUSH1 0x1 PUSH1 0x1 PUSH1 0xA0 SHL SUB NOT AND CALLER SWAP1 DUP2 OR PUSH1 0x9 SSTORE PUSH1 0xA DUP5 SWAP1 SSTORE SWAP1 MLOAD SWAP3 DUP4 MSTORE SWAP2 PUSH32 0x198848172490C9CEDE6F00B7D3D59D018F0BC4715A37F81B8CE39CC7807369AD SWAP2 SWAP1 LOG2 DUP1 RETURN JUMPDEST DUP3 MLOAD PUSH3 0x461BCD PUSH1 0xE5 SHL DUP2 MSTORE SWAP1 DUP2 ADD DUP5 SWAP1 MSTORE PUSH1 0x3B PUSH1 0x24 DUP3 ADD MSTORE PUSH32 0x546865206368616C6C656E6765722063616E6E6F742070726564696374207468 PUSH1 0x44 DUP3 ADD MSTORE PUSH32 0x652073616D652076616C7565206173207468652063726561746F720000000000 PUSH1 0x64 DUP3 ADD MSTORE PUSH1 0x84 SWAP1 REVERT JUMPDEST DUP3 MLOAD PUSH3 0x461BCD PUSH1 0xE5 SHL DUP2 MSTORE SWAP1 DUP2 ADD DUP5 SWAP1 MSTORE PUSH1 0x32 PUSH1 0x24 DUP3 ADD MSTORE PUSH32 0x54686520656E74727920666565206D757374206265207061696420746F206163 PUSH1 0x44 DUP3 ADD MSTORE PUSH18 0x6365707420746865206368616C6C656E6765 PUSH1 0x70 SHL PUSH1 0x64 DUP3 ADD MSTORE PUSH1 0x84 SWAP1 REVERT JUMPDEST DUP3 MLOAD PUSH3 0x461BCD PUSH1 0xE5 SHL DUP2 MSTORE SWAP1 DUP2 ADD DUP5 SWAP1 MSTORE PUSH1 0x3D PUSH1 0x24 DUP3 ADD MSTORE PUSH32 0x546865206368616C6C656E676572206D75737420616363657074207468652063 PUSH1 0x44 DUP3 ADD MSTORE PUSH32 0x68616C6C656E6765206265666F726520746865206C6F636B2074696D65000000 PUSH1 0x64 DUP3 ADD MSTORE PUSH1 0x84 SWAP1 REVERT JUMPDEST DUP3 MLOAD PUSH3 0x461BCD PUSH1 0xE5 SHL DUP2 MSTORE SWAP1 DUP2 ADD DUP5 SWAP1 MSTORE PUSH1 0x27 PUSH1 0x24 DUP3 ADD MSTORE PUSH32 0x546865206368616C6C656E67652068617320616C7265616479206265656E2061 PUSH1 0x44 DUP3 ADD MSTORE PUSH7 0x18D8D95C1D1959 PUSH1 0xCA SHL PUSH1 0x64 DUP3 ADD MSTORE PUSH1 0x84 SWAP1 REVERT JUMPDEST DUP4 DUP3 CALLVALUE PUSH2 0x382 JUMPI DUP2 PUSH1 0x3 NOT CALLDATASIZE ADD SLT PUSH2 0x382 JUMPI PUSH1 0x20 SWAP1 PUSH1 0x8 SLOAD SWAP1 MLOAD SWAP1 DUP2 MSTORE RETURN JUMPDEST POP SWAP1 CALLVALUE PUSH2 0x1D3 JUMPI DUP3 PUSH1 0x3 NOT CALLDATASIZE ADD SLT PUSH2 0x1D3 JUMPI PUSH1 0x20 SWAP3 POP SLOAD SWAP1 MLOAD SWAP1 DUP2 MSTORE RETURN JUMPDEST DUP4 DUP3 CALLVALUE PUSH2 0x382 JUMPI DUP2 PUSH1 0x3 NOT CALLDATASIZE ADD SLT PUSH2 0x382 JUMPI PUSH1 0x20 SWAP1 PUSH1 0x3 SLOAD SWAP1 MLOAD SWAP1 DUP2 MSTORE RETURN JUMPDEST DUP5 SWAP1 CALLVALUE PUSH2 0x382 JUMPI DUP2 PUSH1 0x3 NOT CALLDATASIZE ADD SLT PUSH2 0x382 JUMPI PUSH1 0x7 SLOAD PUSH1 0x1 PUSH1 0x1 PUSH1 0xA0 SHL SUB AND DUP2 MSTORE PUSH1 0x20 SWAP1 RETURN JUMPDEST PUSH1 0x0 SLOAD PUSH1 0x1 PUSH1 0x1 PUSH1 0xA0 SHL SUB AND CALLER SUB PUSH2 0x7F7 JUMPI JUMP JUMPDEST PUSH1 0x64 PUSH1 0x40 MLOAD PUSH3 0x461BCD PUSH1 0xE5 SHL DUP2 MSTORE PUSH1 0x20 PUSH1 0x4 DUP3 ADD MSTORE PUSH1 0x20 PUSH1 0x24 DUP3 ADD MSTORE PUSH32 0x4F776E61626C653A2063616C6C6572206973206E6F7420746865206F776E6572 PUSH1 0x44 DUP3 ADD MSTORE REVERT INVALID LOG2 PUSH5 0x6970667358 0x22 SLT KECCAK256 SGT 0xCF 0xCB SSTORE 0x2E SWAP10 CALLVALUE SWAP11 0x22 PUSH16 0x1BCE61DD641BCB9B9D72E5086C17057B DELEGATECALL SWAP16 AND GASLIMIT 0xFC 0xD9 PUSH5 0x736F6C6343 STOP ADDMOD SLT STOP CALLER "},"methodIdentifiers":{"challengeImplementation()":"242fdb91","createChallenge(uint256,uint256,uint256)":"51d2f246","ethPriceFeedAddress()":"8add9f06","getFactoryDetails()":"232b22fa","maxChallengeDuration()":"d2177bdd","maxLockDuration()":"a16cdbb1","minChallengeDuration()":"40cfc3b1","minEntryFee()":"76e5b862","minLockDuration()":"d6a298e9","owner()":"8da5cb5b","renounceOwnership()":"715018a6","settlementDuration()":"57692213","startBlock()":"48cd4cb1","transferOwnership(address)":"f2fde38b"}}}}}