{"contracts/Challenge.sol":{"Challenge":{"abi":[{"inputs":[{"internalType":"address","name":"_ethPriceFeedAddress","type":"address"}],"stateMutability":"nonpayable","type":"constructor"},{"anonymous":false,"inputs":[{"indexed":true,"internalType":"address","name":"challengerAddress","type":"address"},{"indexed":false,"internalType":"uint256","name":"challengerPrediction","type":"uint256"}],"name":"ChallengeAccepted","type":"event"},{"anonymous":false,"inputs":[{"indexed":true,"internalType":"address","name":"previousOwner","type":"address"},{"indexed":true,"internalType":"address","name":"newOwner","type":"address"}],"name":"OwnershipTransferred","type":"event"},{"inputs":[],"name":"SETTLEMENT_FEE_MAX","outputs":[{"internalType":"uint256","name":"","type":"uint256"}],"stateMutability":"view","type":"function"},{"inputs":[],"name":"SETTLEMENT_FEE_PERCENT","outputs":[{"internalType":"uint256","name":"","type":"uint256"}],"stateMutability":"view","type":"function"},{"inputs":[{"internalType":"uint256","name":"_challengerPrediction","type":"uint256"}],"name":"acceptChallenge","outputs":[],"stateMutability":"payable","type":"function"},{"inputs":[],"name":"challenger","outputs":[{"internalType":"address","name":"","type":"address"}],"stateMutability":"view","type":"function"},{"inputs":[],"name":"challengerPrediction","outputs":[{"internalType":"uint256","name":"","type":"uint256"}],"stateMutability":"view","type":"function"},{"inputs":[],"name":"creator","outputs":[{"internalType":"address","name":"","type":"address"}],"stateMutability":"view","type":"function"},{"inputs":[],"name":"creatorPrediction","outputs":[{"internalType":"uint256","name":"","type":"uint256"}],"stateMutability":"view","type":"function"},{"inputs":[],"name":"entryFee","outputs":[{"internalType":"uint256","name":"","type":"uint256"}],"stateMutability":"view","type":"function"},{"inputs":[],"name":"ethPriceFeed","outputs":[{"internalType":"contract AggregatorV3Interface","name":"","type":"address"}],"stateMutability":"view","type":"function"},{"inputs":[],"name":"getChallengeDetails","outputs":[{"internalType":"address","name":"_owner","type":"address"},{"internalType":"uint256","name":"_startBlock","type":"uint256"},{"internalType":"uint256","name":"_startTime","type":"uint256"},{"internalType":"uint256","name":"_entryFee","type":"uint256"},{"internalType":"uint256","name":"_lockTime","type":"uint256"},{"internalType":"uint256","name":"_settlementStartTime","type":"uint256"},{"internalType":"uint256","name":"_settlementEndTime","type":"uint256"},{"internalType":"address","name":"_creator","type":"address"},{"internalType":"uint256","name":"_creatorPrediction","type":"uint256"},{"internalType":"address","name":"_challenger","type":"address"},{"internalType":"uint256","name":"_challengerPrediction","type":"uint256"},{"internalType":"bool","name":"_settled","type":"bool"},{"internalType":"address","name":"_settledBy","type":"address"},{"internalType":"uint256","name":"_SETTLEMENT_FEE_PERCENT","type":"uint256"},{"internalType":"uint256","name":"_SETTLEMENT_FEE_MAX","type":"uint256"}],"stateMutability":"view","type":"function"},{"inputs":[{"internalType":"uint256","name":"_lockTime","type":"uint256"},{"internalType":"uint256","name":"_settlementStartTime","type":"uint256"},{"internalType":"uint256","name":"_settlementEndTime","type":"uint256"},{"internalType":"address","name":"_creator","type":"address"},{"internalType":"uint256","name":"_creatorPrediction","type":"uint256"}],"name":"initialize","outputs":[],"stateMutability":"payable","type":"function"},{"inputs":[],"name":"lockTime","outputs":[{"internalType":"uint256","name":"","type":"uint256"}],"stateMutability":"view","type":"function"},{"inputs":[],"name":"owner","outputs":[{"internalType":"address","name":"","type":"address"}],"stateMutability":"view","type":"function"},{"inputs":[],"name":"renounceOwnership","outputs":[],"stateMutability":"nonpayable","type":"function"},{"inputs":[],"name":"settled","outputs":[{"internalType":"bool","name":"","type":"bool"}],"stateMutability":"view","type":"function"},{"inputs":[],"name":"settledBy","outputs":[{"internalType":"address","name":"","type":"address"}],"stateMutability":"view","type":"function"},{"inputs":[],"name":"settlementEndTime","outputs":[{"internalType":"uint256","name":"","type":"uint256"}],"stateMutability":"view","type":"function"},{"inputs":[],"name":"settlementStartTime","outputs":[{"internalType":"uint256","name":"","type":"uint256"}],"stateMutability":"view","type":"function"},{"inputs":[],"name":"startBlock","outputs":[{"internalType":"uint256","name":"","type":"uint256"}],"stateMutability":"view","type":"function"},{"inputs":[],"name":"startTime","outputs":[{"internalType":"uint256","name":"","type":"uint256"}],"stateMutability":"view","type":"function"},{"inputs":[{"internalType":"address","name":"newOwner","type":"address"}],"name":"transferOwnership","outputs":[],"stateMutability":"nonpayable","type":"function"}],"evm":{"bytecode":{"linkReferences":{},"object":"60a0346100a957601f61093638819003918201601f19168301916001600160401b038311848410176100ae578084926020946040528339810103126100a957516001600160a01b0390818116908190036100a9576000543360018060a01b0319821617600055604051923391167f8be0079c531659141344cd1fd0a4f28419497f9722a3daafe3b4186f6b6457e0600080a360805261087190816100c58239608051816103530152f35b600080fd5b634e487b7160e01b600052604160045260246000fdfe608060408181526004908136101561001657600080fd5b600092833560e01c90816302d05d3f146107be57508063072ea61c1461079f5780630d6680871461078157806311a471ff146107625780631b0fc1061461055e5780632efcfda31461053f57806347afcdfd1461051657806348cd4cb1146104f75780634a934534146104db578063534db0e2146104b257806369dd20c814610493578063715018a61461043657806378dc25cc1461041357806378e97925146103f45780638da5cb5b146103cc5780638f775839146103a55780639d25d7f514610386578063af7665ce1461033e578063c839113a1461028e578063dc1d277c146101d75763f2fde38b1461010b57600080fd5b346101d35760203660031901126101d3576001600160a01b038235818116939192908490036101cf5761013c6107e3565b831561017d57505082546001600160a01b0319811683178455167f8be0079c531659141344cd1fd0a4f28419497f9722a3daafe3b4186f6b6457e08380a380f35b906020608492519162461bcd60e51b8352820152602660248201527f4f776e61626c653a206e6577206f776e657220697320746865207a65726f206160448201526564647265737360d01b6064820152fd5b8480fd5b8280fd5b5090346101d357826003193601126101d357916101e09260018060a01b038092541692600154916002549060035490546005546006549087600754169260085494896009541696600a5498600b549a602082519e8f90815201528c015260608b015260808a015260a089015260c088015260e087015261010086015261012085015261014084015260ff8160a01c1615156101608401521661018082015260026101a08201526702c68af0bb1400006101c0820152f35b509060a03660031901126101d3576064356001600160a01b038116929083900361033a576001546102f75750436001554260025534600355803590556024356005556044356006556bffffffffffffffffffffffff60a01b600754161760075560843560085580f35b906020606492519162461bcd60e51b8352820152601c60248201527f436f6e747261637420616c726561647920696e697469616c697a6564000000006044820152fd5b8380fd5b838234610382578160031936011261038257517f00000000000000000000000000000000000000000000000000000000000000006001600160a01b03168152602090f35b5080fd5b838234610382578160031936011261038257602090600a549051908152f35b83823461038257816003193601126103825760209060ff600b5460a01c1690519015158152f35b838234610382578160031936011261038257905490516001600160a01b039091168152602090f35b8382346103825781600319360112610382576020906002549051908152f35b838234610382578160031936011261038257602090516702c68af0bb1400008152f35b833461049057806003193601126104905761044f6107e3565b80546001600160a01b03198116825581906001600160a01b03167f8be0079c531659141344cd1fd0a4f28419497f9722a3daafe3b4186f6b6457e08280a380f35b80fd5b8382346103825781600319360112610382576020906005549051908152f35b83823461038257816003193601126103825760095490516001600160a01b039091168152602090f35b8382346103825781600319360112610382576020905160028152f35b8382346103825781600319360112610382576020906001549051908152f35b838234610382578160031936011261038257600b5490516001600160a01b039091168152602090f35b8382346103825781600319360112610382576020906006549051908152f35b506020908160031936011261033a576009548335936001600160a01b03821661070f57805442116106a65760035434036106485760085485146105df57506001600160a01b03191633908117600955600a8490559051928352917f198848172490c9cede6f00b7d3d59d018f0bc4715a37f81b8ce39cc7807369ad9190a280f35b825162461bcd60e51b8152908101849052603b60248201527f546865206368616c6c656e6765722063616e6e6f74207072656469637420746860448201527f652073616d652076616c7565206173207468652063726561746f7200000000006064820152608490fd5b825162461bcd60e51b8152908101849052603260248201527f54686520656e74727920666565206d757374206265207061696420746f2061636044820152716365707420746865206368616c6c656e676560701b6064820152608490fd5b825162461bcd60e51b8152908101849052603d60248201527f546865206368616c6c656e676572206d7573742061636365707420746865206360448201527f68616c6c656e6765206265666f726520746865206c6f636b2074696d650000006064820152608490fd5b825162461bcd60e51b8152908101849052602760248201527f546865206368616c6c656e67652068617320616c7265616479206265656e206160448201526618d8d95c1d195960ca1b6064820152608490fd5b8382346103825781600319360112610382576020906008549051908152f35b5090346101d357826003193601126101d35760209250549051908152f35b8382346103825781600319360112610382576020906003549051908152f35b8490346103825781600319360112610382576007546001600160a01b03168152602090f35b6000546001600160a01b031633036107f757565b606460405162461bcd60e51b815260206004820152602060248201527f4f776e61626c653a2063616c6c6572206973206e6f7420746865206f776e65726044820152fdfea264697066735822122013cfcb552e99349a226f1bce61dd641bcb9b9d72e5086c17057bf49f1645fcd964736f6c63430008120033","opcodes":"PUSH1 0xA0 CALLVALUE PUSH2 0xA9 JUMPI PUSH1 0x1F PUSH2 0x936 CODESIZE DUP2 SWAP1 SUB SWAP2 DUP3 ADD PUSH1 0x1F NOT AND DUP4 ADD SWAP2 PUSH1 0x1 PUSH1 0x1 PUSH1 0x40 SHL SUB DUP4 GT DUP5 DUP5 LT OR PUSH2 0xAE JUMPI DUP1 DUP5 SWAP3 PUSH1 0x20 SWAP5 PUSH1 0x40 MSTORE DUP4 CODECOPY DUP2 ADD SUB SLT PUSH2 0xA9 JUMPI MLOAD PUSH1 0x1 PUSH1 0x1 PUSH1 0xA0 SHL SUB SWAP1 DUP2 DUP2 AND SWAP1 DUP2 SWAP1 SUB PUSH2 0xA9 JUMPI PUSH1 0x0 SLOAD CALLER PUSH1 0x1 DUP1 PUSH1 0xA0 SHL SUB NOT DUP3 AND OR PUSH1 0x0 SSTORE PUSH1 0x40 MLOAD SWAP3 CALLER SWAP2 AND PUSH32 0x8BE0079C531659141344CD1FD0A4F28419497F9722A3DAAFE3B4186F6B6457E0 PUSH1 0x0 DUP1 LOG3 PUSH1 0x80 MSTORE PUSH2 0x871 SWAP1 DUP2 PUSH2 0xC5 DUP3 CODECOPY PUSH1 0x80 MLOAD DUP2 PUSH2 0x353 ADD MSTORE RETURN JUMPDEST PUSH1 0x0 DUP1 REVERT JUMPDEST PUSH4 0x4E487B71 PUSH1 0xE0 SHL PUSH1 0x0 MSTORE PUSH1 0x41 PUSH1 0x4 MSTORE PUSH1 0x24 PUSH1 0x0 REVERT INVALID PUSH1 0x80 PUSH1 0x40 DUP2 DUP2 MSTORE PUSH1 0x4 SWAP1 DUP2 CALLDATASIZE LT ISZERO PUSH2 0x16 JUMPI PUSH1 0x0 DUP1 REVERT JUMPDEST PUSH1 0x0 SWAP3 DUP4 CALLDATALOAD PUSH1 0xE0 SHR SWAP1 DUP2 PUSH4 0x2D05D3F EQ PUSH2 0x7BE JUMPI POP DUP1 PUSH4 0x72EA61C EQ PUSH2 0x79F JUMPI DUP1 PUSH4 0xD668087 EQ PUSH2 0x781 JUMPI DUP1 PUSH4 0x11A471FF EQ PUSH2 0x762 JUMPI DUP1 PUSH4 0x1B0FC106 EQ PUSH2 0x55E JUMPI DUP1 PUSH4 0x2EFCFDA3 EQ PUSH2 0x53F JUMPI DUP1 PUSH4 0x47AFCDFD EQ PUSH2 0x516 JUMPI DUP1 PUSH4 0x48CD4CB1 EQ PUSH2 0x4F7 JUMPI DUP1 PUSH4 0x4A934534 EQ PUSH2 0x4DB JUMPI DUP1 PUSH4 0x534DB0E2 EQ PUSH2 0x4B2 JUMPI DUP1 PUSH4 0x69DD20C8 EQ PUSH2 0x493 JUMPI DUP1 PUSH4 0x715018A6 EQ PUSH2 0x436 JUMPI DUP1 PUSH4 0x78DC25CC EQ PUSH2 0x413 JUMPI DUP1 PUSH4 0x78E97925 EQ PUSH2 0x3F4 JUMPI DUP1 PUSH4 0x8DA5CB5B EQ PUSH2 0x3CC JUMPI DUP1 PUSH4 0x8F775839 EQ PUSH2 0x3A5 JUMPI DUP1 PUSH4 0x9D25D7F5 EQ PUSH2 0x386 JUMPI DUP1 PUSH4 0xAF7665CE EQ PUSH2 0x33E JUMPI DUP1 PUSH4 0xC839113A EQ PUSH2 0x28E JUMPI DUP1 PUSH4 0xDC1D277C EQ PUSH2 0x1D7 JUMPI PUSH4 0xF2FDE38B EQ PUSH2 0x10B JUMPI PUSH1 0x0 DUP1 REVERT JUMPDEST CALLVALUE PUSH2 0x1D3 JUMPI PUSH1 0x20 CALLDATASIZE PUSH1 0x3 NOT ADD SLT PUSH2 0x1D3 JUMPI PUSH1 0x1 PUSH1 0x1 PUSH1 0xA0 SHL SUB DUP3 CALLDATALOAD DUP2 DUP2 AND SWAP4 SWAP2 SWAP3 SWAP1 DUP5 SWAP1 SUB PUSH2 0x1CF JUMPI PUSH2 0x13C PUSH2 0x7E3 JUMP JUMPDEST DUP4 ISZERO PUSH2 0x17D JUMPI POP POP DUP3 SLOAD PUSH1 0x1 PUSH1 0x1 PUSH1 0xA0 SHL SUB NOT DUP2 AND DUP4 OR DUP5 SSTORE AND PUSH32 0x8BE0079C531659141344CD1FD0A4F28419497F9722A3DAAFE3B4186F6B6457E0 DUP4 DUP1 LOG3 DUP1 RETURN JUMPDEST SWAP1 PUSH1 0x20 PUSH1 0x84 SWAP3 MLOAD SWAP2 PUSH3 0x461BCD PUSH1 0xE5 SHL DUP4 MSTORE DUP3 ADD MSTORE PUSH1 0x26 PUSH1 0x24 DUP3 ADD MSTORE PUSH32 0x4F776E61626C653A206E6577206F776E657220697320746865207A65726F2061 PUSH1 0x44 DUP3 ADD MSTORE PUSH6 0x646472657373 PUSH1 0xD0 SHL PUSH1 0x64 DUP3 ADD MSTORE REVERT JUMPDEST DUP5 DUP1 REVERT JUMPDEST DUP3 DUP1 REVERT JUMPDEST POP SWAP1 CALLVALUE PUSH2 0x1D3 JUMPI DUP3 PUSH1 0x3 NOT CALLDATASIZE ADD SLT PUSH2 0x1D3 JUMPI SWAP2 PUSH2 0x1E0 SWAP3 PUSH1 0x1 DUP1 PUSH1 0xA0 SHL SUB DUP1 SWAP3 SLOAD AND SWAP3 PUSH1 0x1 SLOAD SWAP2 PUSH1 0x2 SLOAD SWAP1 PUSH1 0x3 SLOAD SWAP1 SLOAD PUSH1 0x5 SLOAD PUSH1 0x6 SLOAD SWAP1 DUP8 PUSH1 0x7 SLOAD AND SWAP3 PUSH1 0x8 SLOAD SWAP5 DUP10 PUSH1 0x9 SLOAD AND SWAP7 PUSH1 0xA SLOAD SWAP9 PUSH1 0xB SLOAD SWAP11 PUSH1 0x20 DUP3 MLOAD SWAP15 DUP16 SWAP1 DUP2 MSTORE ADD MSTORE DUP13 ADD MSTORE PUSH1 0x60 DUP12 ADD MSTORE PUSH1 0x80 DUP11 ADD MSTORE PUSH1 0xA0 DUP10 ADD MSTORE PUSH1 0xC0 DUP9 ADD MSTORE PUSH1 0xE0 DUP8 ADD MSTORE PUSH2 0x100 DUP7 ADD MSTORE PUSH2 0x120 DUP6 ADD MSTORE PUSH2 0x140 DUP5 ADD MSTORE PUSH1 0xFF DUP2 PUSH1 0xA0 SHR AND ISZERO ISZERO PUSH2 0x160 DUP5 ADD MSTORE AND PUSH2 0x180 DUP3 ADD MSTORE PUSH1 0x2 PUSH2 0x1A0 DUP3 ADD MSTORE PUSH8 0x2C68AF0BB140000 PUSH2 0x1C0 DUP3 ADD MSTORE RETURN JUMPDEST POP SWAP1 PUSH1 0xA0 CALLDATASIZE PUSH1 0x3 NOT ADD SLT PUSH2 0x1D3 JUMPI PUSH1 0x64 CALLDATALOAD PUSH1 0x1 PUSH1 0x1 PUSH1 0xA0 SHL SUB DUP2 AND SWAP3 SWAP1 DUP4 SWAP1 SUB PUSH2 0x33A JUMPI PUSH1 0x1 SLOAD PUSH2 0x2F7 JUMPI POP NUMBER PUSH1 0x1 SSTORE TIMESTAMP PUSH1 0x2 SSTORE CALLVALUE PUSH1 0x3 SSTORE DUP1 CALLDATALOAD SWAP1 SSTORE PUSH1 0x24 CALLDATALOAD PUSH1 0x5 SSTORE PUSH1 0x44 CALLDATALOAD PUSH1 0x6 SSTORE PUSH12 0xFFFFFFFFFFFFFFFFFFFFFFFF PUSH1 0xA0 SHL PUSH1 0x7 SLOAD AND OR PUSH1 0x7 SSTORE PUSH1 0x84 CALLDATALOAD PUSH1 0x8 SSTORE DUP1 RETURN JUMPDEST SWAP1 PUSH1 0x20 PUSH1 0x64 SWAP3 MLOAD SWAP2 PUSH3 0x461BCD PUSH1 0xE5 SHL DUP4 MSTORE DUP3 ADD MSTORE PUSH1 0x1C PUSH1 0x24 DUP3 ADD MSTORE PUSH32 0x436F6E747261637420616C726561647920696E697469616C697A656400000000 PUSH1 0x44 DUP3 ADD MSTORE REVERT JUMPDEST DUP4 DUP1 REVERT JUMPDEST DUP4 DUP3 CALLVALUE PUSH2 0x382 JUMPI DUP2 PUSH1 0x3 NOT CALLDATASIZE ADD SLT PUSH2 0x382 JUMPI MLOAD PUSH32 0x0 PUSH1 0x1 PUSH1 0x1 PUSH1 0xA0 SHL SUB AND DUP2 MSTORE PUSH1 0x20 SWAP1 RETURN JUMPDEST POP DUP1 REVERT JUMPDEST DUP4 DUP3 CALLVALUE PUSH2 0x382 JUMPI DUP2 PUSH1 0x3 NOT CALLDATASIZE ADD SLT PUSH2 0x382 JUMPI PUSH1 0x20 SWAP1 PUSH1 0xA SLOAD SWAP1 MLOAD SWAP1 DUP2 MSTORE RETURN JUMPDEST DUP4 DUP3 CALLVALUE PUSH2 0x382 JUMPI DUP2 PUSH1 0x3 NOT CALLDATASIZE ADD SLT PUSH2 0x382 JUMPI PUSH1 0x20 SWAP1 PUSH1 0xFF PUSH1 0xB SLOAD PUSH1 0xA0 SHR AND SWAP1 MLOAD SWAP1 ISZERO ISZERO DUP2 MSTORE RETURN JUMPDEST DUP4 DUP3 CALLVALUE PUSH2 0x382 JUMPI DUP2 PUSH1 0x3 NOT CALLDATASIZE ADD SLT PUSH2 0x382 JUMPI SWAP1 SLOAD SWAP1 MLOAD PUSH1 0x1 PUSH1 0x1 PUSH1 0xA0 SHL SUB SWAP1 SWAP2 AND DUP2 MSTORE PUSH1 0x20 SWAP1 RETURN JUMPDEST DUP4 DUP3 CALLVALUE PUSH2 0x382 JUMPI DUP2 PUSH1 0x3 NOT CALLDATASIZE ADD SLT PUSH2 0x382 JUMPI PUSH1 0x20 SWAP1 PUSH1 0x2 SLOAD SWAP1 MLOAD SWAP1 DUP2 MSTORE RETURN JUMPDEST DUP4 DUP3 CALLVALUE PUSH2 0x382 JUMPI DUP2 PUSH1 0x3 NOT CALLDATASIZE ADD SLT PUSH2 0x382 JUMPI PUSH1 0x20 SWAP1 MLOAD PUSH8 0x2C68AF0BB140000 DUP2 MSTORE RETURN JUMPDEST DUP4 CALLVALUE PUSH2 0x490 JUMPI DUP1 PUSH1 0x3 NOT CALLDATASIZE ADD SLT PUSH2 0x490 JUMPI PUSH2 0x44F PUSH2 0x7E3 JUMP JUMPDEST DUP1 SLOAD PUSH1 0x1 PUSH1 0x1 PUSH1 0xA0 SHL SUB NOT DUP2 AND DUP3 SSTORE DUP2 SWAP1 PUSH1 0x1 PUSH1 0x1 PUSH1 0xA0 SHL SUB AND PUSH32 0x8BE0079C531659141344CD1FD0A4F28419497F9722A3DAAFE3B4186F6B6457E0 DUP3 DUP1 LOG3 DUP1 RETURN JUMPDEST DUP1 REVERT JUMPDEST DUP4 DUP3 CALLVALUE PUSH2 0x382 JUMPI DUP2 PUSH1 0x3 NOT CALLDATASIZE ADD SLT PUSH2 0x382 JUMPI PUSH1 0x20 SWAP1 PUSH1 0x5 SLOAD SWAP1 MLOAD SWAP1 DUP2 MSTORE RETURN JUMPDEST DUP4 DUP3 CALLVALUE PUSH2 0x382 JUMPI DUP2 PUSH1 0x3 NOT CALLDATASIZE ADD SLT PUSH2 0x382 JUMPI PUSH1 0x9 SLOAD SWAP1 MLOAD PUSH1 0x1 PUSH1 0x1 PUSH1 0xA0 SHL SUB SWAP1 SWAP2 AND DUP2 MSTORE PUSH1 0x20 SWAP1 RETURN JUMPDEST DUP4 DUP3 CALLVALUE PUSH2 0x382 JUMPI DUP2 PUSH1 0x3 NOT CALLDATASIZE ADD SLT PUSH2 0x382 JUMPI PUSH1 0x20 SWAP1 MLOAD PUSH1 0x2 DUP2 MSTORE RETURN JUMPDEST DUP4 DUP3 CALLVALUE PUSH2 0x382 JUMPI DUP2 PUSH1 0x3 NOT CALLDATASIZE ADD SLT PUSH2 0x382 JUMPI PUSH1 0x20 SWAP1 PUSH1 0x1 SLOAD SWAP1 MLOAD SWAP1 DUP2 MSTORE RETURN JUMPDEST DUP4 DUP3 CALLVALUE PUSH2 0x382 JUMPI DUP2 PUSH1 0x3 NOT CALLDATASIZE ADD SLT PUSH2 0x382 JUMPI PUSH1 0xB SLOAD SWAP1 MLOAD PUSH1 0x1 PUSH1 0x1 PUSH1 0xA0 SHL SUB SWAP1 SWAP2 AND DUP2 MSTORE PUSH1 0x20 SWAP1 RETURN JUMPDEST DUP4 DUP3 CALLVALUE PUSH2 0x382 JUMPI DUP2 PUSH1 0x3 NOT CALLDATASIZE ADD SLT PUSH2 0x382 JUMPI PUSH1 0x20 SWAP1 PUSH1 0x6 SLOAD SWAP1 MLOAD SWAP1 DUP2 MSTORE RETURN JUMPDEST POP PUSH1 0x20 SWAP1 DUP2 PUSH1 0x3 NOT CALLDATASIZE ADD SLT PUSH2 0x33A JUMPI PUSH1 0x9 SLOAD DUP4 CALLDATALOAD SWAP4 PUSH1 0x1 PUSH1 0x1 PUSH1 0xA0 SHL SUB DUP3 AND PUSH2 0x70F JUMPI DUP1 SLOAD TIMESTAMP GT PUSH2 0x6A6 JUMPI PUSH1 0x3 SLOAD CALLVALUE SUB PUSH2 0x648 JUMPI PUSH1 0x8 SLOAD DUP6 EQ PUSH2 0x5DF JUMPI POP PUSH1 0x1 PUSH1 0x1 PUSH1 0xA0 SHL SUB NOT AND CALLER SWAP1 DUP2 OR PUSH1 0x9 SSTORE PUSH1 0xA DUP5 SWAP1 SSTORE SWAP1 MLOAD SWAP3 DUP4 MSTORE SWAP2 PUSH32 0x198848172490C9CEDE6F00B7D3D59D018F0BC4715A37F81B8CE39CC7807369AD SWAP2 SWAP1 LOG2 DUP1 RETURN JUMPDEST DUP3 MLOAD PUSH3 0x461BCD PUSH1 0xE5 SHL DUP2 MSTORE SWAP1 DUP2 ADD DUP5 SWAP1 MSTORE PUSH1 0x3B PUSH1 0x24 DUP3 ADD MSTORE PUSH32 0x546865206368616C6C656E6765722063616E6E6F742070726564696374207468 PUSH1 0x44 DUP3 ADD MSTORE PUSH32 0x652073616D652076616C7565206173207468652063726561746F720000000000 PUSH1 0x64 DUP3 ADD MSTORE PUSH1 0x84 SWAP1 REVERT JUMPDEST DUP3 MLOAD PUSH3 0x461BCD PUSH1 0xE5 SHL DUP2 MSTORE SWAP1 DUP2 ADD DUP5 SWAP1 MSTORE PUSH1 0x32 PUSH1 0x24 DUP3 ADD MSTORE PUSH32 0x54686520656E74727920666565206D757374206265207061696420746F206163 PUSH1 0x44 DUP3 ADD MSTORE PUSH18 0x6365707420746865206368616C6C656E6765 PUSH1 0x70 SHL PUSH1 0x64 DUP3 ADD MSTORE PUSH1 0x84 SWAP1 REVERT JUMPDEST DUP3 MLOAD PUSH3 0x461BCD PUSH1 0xE5 SHL DUP2 MSTORE SWAP1 DUP2 ADD DUP5 SWAP1 MSTORE PUSH1 0x3D PUSH1 0x24 DUP3 ADD MSTORE PUSH32 0x546865206368616C6C656E676572206D75737420616363657074207468652063 PUSH1 0x44 DUP3 ADD MSTORE PUSH32 0x68616C6C656E6765206265666F726520746865206C6F636B2074696D65000000 PUSH1 0x64 DUP3 ADD MSTORE PUSH1 0x84 SWAP1 REVERT JUMPDEST DUP3 MLOAD PUSH3 0x461BCD PUSH1 0xE5 SHL DUP2 MSTORE SWAP1 DUP2 ADD DUP5 SWAP1 MSTORE PUSH1 0x27 PUSH1 0x24 DUP3 ADD MSTORE PUSH32 0x546865206368616C6C656E67652068617320616C7265616479206265656E2061 PUSH1 0x44 DUP3 ADD MSTORE PUSH7 0x18D8D95C1D1959 PUSH1 0xCA SHL PUSH1 0x64 DUP3 ADD MSTORE PUSH1 0x84 SWAP1 REVERT JUMPDEST DUP4 DUP3 CALLVALUE PUSH2 0x382 JUMPI DUP2 PUSH1 0x3 NOT CALLDATASIZE ADD SLT PUSH2 0x382 JUMPI PUSH1 0x20 SWAP1 PUSH1 0x8 SLOAD SWAP1 MLOAD SWAP1 DUP2 MSTORE RETURN JUMPDEST POP SWAP1 CALLVALUE PUSH2 0x1D3 JUMPI DUP3 PUSH1 0x3 NOT CALLDATASIZE ADD SLT PUSH2 0x1D3 JUMPI PUSH1 0x20 SWAP3 POP SLOAD SWAP1 MLOAD SWAP1 DUP2 MSTORE RETURN JUMPDEST DUP4 DUP3 CALLVALUE PUSH2 0x382 JUMPI DUP2 PUSH1 0x3 NOT CALLDATASIZE ADD SLT PUSH2 0x382 JUMPI PUSH1 0x20 SWAP1 PUSH1 0x3 SLOAD SWAP1 MLOAD SWAP1 DUP2 MSTORE RETURN JUMPDEST DUP5 SWAP1 CALLVALUE PUSH2 0x382 JUMPI DUP2 PUSH1 0x3 NOT CALLDATASIZE ADD SLT PUSH2 0x382 JUMPI PUSH1 0x7 SLOAD PUSH1 0x1 PUSH1 0x1 PUSH1 0xA0 SHL SUB AND DUP2 MSTORE PUSH1 0x20 SWAP1 RETURN JUMPDEST PUSH1 0x0 SLOAD PUSH1 0x1 PUSH1 0x1 PUSH1 0xA0 SHL SUB AND CALLER SUB PUSH2 0x7F7 JUMPI JUMP JUMPDEST PUSH1 0x64 PUSH1 0x40 MLOAD PUSH3 0x461BCD PUSH1 0xE5 SHL DUP2 MSTORE PUSH1 0x20 PUSH1 0x4 DUP3 ADD MSTORE PUSH1 0x20 PUSH1 0x24 DUP3 ADD MSTORE PUSH32 0x4F776E61626C653A2063616C6C6572206973206E6F7420746865206F776E6572 PUSH1 0x44 DUP3 ADD MSTORE REVERT INVALID LOG2 PUSH5 0x6970667358 0x22 SLT KECCAK256 SGT 0xCF 0xCB SSTORE 0x2E SWAP10 CALLVALUE SWAP11 0x22 PUSH16 0x1BCE61DD641BCB9B9D72E5086C17057B DELEGATECALL SWAP16 AND GASLIMIT 0xFC 0xD9 PUSH5 0x736F6C6343 STOP ADDMOD SLT STOP CALLER "},"methodIdentifiers":{"SETTLEMENT_FEE_MAX()":"78dc25cc","SETTLEMENT_FEE_PERCENT()":"4a934534","acceptChallenge(uint256)":"1b0fc106","challenger()":"534db0e2","challengerPrediction()":"9d25d7f5","creator()":"02d05d3f","creatorPrediction()":"11a471ff","entryFee()":"072ea61c","ethPriceFeed()":"af7665ce","getChallengeDetails()":"dc1d277c","initialize(uint256,uint256,uint256,address,uint256)":"c839113a","lockTime()":"0d668087","owner()":"8da5cb5b","renounceOwnership()":"715018a6","settled()":"8f775839","settledBy()":"47afcdfd","settlementEndTime()":"2efcfda3","settlementStartTime()":"69dd20c8","startBlock()":"48cd4cb1","startTime()":"78e97925","transferOwnership(address)":"f2fde38b"}}}}}